:020000040800F2
:1070000000C0002019720008F1660108F566010849
:10701000F9660108FD66010801670108000000002B
:1070200000000000000000000000000005670108EB
:1070300009670108000000000D67010811670108D9
:107040004572000845720008457200084572000844
:107050004572000845720008457200084572000834
:107060004572000845720008457200084572000824
:107070004572000845720008457200084572000814
:107080004572000845720008457200084572000804
:1070900045720008457200084572000845720008F4
:1070A00045720008457200084572000845720008E4
:1070B000B5D70008457200084572000845720008FF
:1070C00045720008457200084572000845720008C4
:1070D00045720008F9D8000845DC00084572000830
:1070E0004572000845720008457200080000000063
:1070F0000000000000000000000000000000000090
:1071000000000000000000005FF808F100B583B047
:10711000304B314A1360314A1360314B3149002200
:1071200001E01A6004338B42FBD32B4B1B6813B96D
:107130002A4B1B6803B1FEE7264B2B4A13602B4AF0
:1071400013602B4B2B4A2C4803E011681960043361
:1071500004328342F9D3244B1A68284B9A4204D153
:10716000224B1A681B689A4200D0FEE702F076FEB6
:1071700001A8694602F0F2FD214B224EF61AB61024
:1071800000241D4603E055F8243098470134A642F8
:10719000F9DC1D4B1D4EF61AB61000241D4603E007
:1071A00055F8243098470134A642F9DC019800993B
:1071B0000FF0B8F90546164B164CE41AA4101E46FB
:1071C00003E0013C56F824309847002CF9DC2846AF
:1071D00002F096FDBABADECA9C010020C43A002033
:1071E0009C010020C83A00200000002098010020E7
:1071F0000000002048A401089C01002078563412A9
:107200004872000848720008487200084872000876
:10721000487200084872000808B5FFF777FF00BF02
:10722000FEE700BFFEE700BFFEE700BFFEE700BFCE
:10723000FEE700BFFEE700BFFEE700BFFEE700BFBE
:08724000FEE700BFFEE700BFFE
:1072480010B50446B0F5E06F0FD0B0F5C06F0CD0A4
:10725800B0F5A06F09D0B0F5806F06D0B0F5407FCB
:1072680003D00548632102F09DFD44F0BF6444F457
:107278000034024BDC6010BD5C7C010800ED00E0CE
:1072880010B50446C378012B03D92048752102F0B4
:1072980089FD63780F2B03D91C48762102F082FD03
:1072A800A3780F2B03D91948772102F07BFDE378E7
:1072B80003B3174BDB68DB43C3F30223C3F10402B8
:1072C8000F2121FA03F3617801FA02F2A17819403B
:1072D800114309012278C9B20E4B1A4482F80013EF
:1072E8002278510902F01F02012000FA02F243F845
:1072F800212010BD2378590903F01F03012202FA47
:1073080003F32031034A42F8213010BD5C7C0108A8
:1073180000ED00E000E100E038B504460D46B0F1AC
:10732800005F06D0B0F1006F03D00948AA2102F02F
:1073380039FD084B9D4203D90548AB2102F032FDC7
:1073480025F0604121F07F012143034B996038BD4E
:107358005C7C0108FEFF0F0000ED00E010B504465C
:10736800042806D010F1050F03D00748D52102F0F4
:1073780019FD042C054B1A680CBF42F0040222F0D8
:1073880004021A6010BD00BF5C7C010810E000E038
:1073980038B505460C464D4B98420BD003F5806333
:1073A800984207D003F5A053984203D04848E521F6
:1073B80002F0F8FC2368F3B1B3F5803F1BD0B3F5B6
:1073C800003F18D0B3F5403F15D0B3F5802F12D049
:1073D800B3F5A02F0FD0B3F5C02F0CD0B3F5E02F25
:1073E80009D0B3F5002F06D0B3F5102F03D03848D5
:1073F800E62102F0D7FC2379012B03D93448E72191
:1074080002F0D0FC6379012B03D93148E82102F05E
:10741800C9FCA36843B3B3F5003F25D0B3F5802F6B
:1074280022D0B3F5C02F1FD0B3F5002F1CD0B3F571
:10743800202F19D0B3F5402F16D0B3F5602F13D0F5
:1074480093B1B3F5003F0FD0B3F5C02F0CD0B3F50F
:10745800002F09D0B3F5202F06D0B3F5402F03D065
:107468001B48E92102F09EFCE36833B1B3F5006FD5
:1074780003D01748EA2102F095FC237C013BDBB2DC
:107488000F2B03D91248EB2102F08CFC6B6823F414
:10749800702323F480732268217942EA012213437E
:1074A8006B60AA680B4B1340E168A2680A436179D4
:1074B80042EA41021343AB60EA6A22F47002237C79
:1074C800013BDBB242EA0353EB6238BD00240140C2
:1074D800847C0108FDF7F1FF38B504460D46114BD1
:1074E80098420CD003F58063984208D003F5A05366
:1074F800984204D00C484FF49A7102F053FC012DC5
:1075080004D9094840F2351102F04CFC25B1A368B2
:1075180043F00103A36038BDA36823F00103A3600F
:1075280038BD00BF00240140847C010838B50446FA
:107538000D460F4B984208D003F5C053984204D02B
:107548000C4840F24D1102F02DFC012D04D90948D8
:107558004FF4A77102F026FC25B1A36843F48073A9
:10756800A36038BDA36823F48073A36038BD00BF4F
:1075780000240140847C010810B504460A4B984257
:107588000CD003F58063984208D003F5A0539842C5
:1075980004D006484FF4C27102F004FCA36843F01B
:1075A8000803A36010BD00BF00240140847C0108CB
:1075B80010B504460B4B98420CD003F580639842F3
:1075C80008D003F5A053984204D007484FF4C97176
:1075D80002F0E8FBA06800F00800003018BF0120A6
:1075E80010BD00BF00240140847C010810B504468A
:1075F8000A4B98420CD003F58063984208D003F5F3
:10760800A053984204D006484FF4D57102F0CAFB43
:10761800A36843F00403A36010BD00BF0024014029
:10762800847C010810B504460B4B98420CD003F536
:107638008063984208D003F5A053984204D00748C5
:107648004FF4DC7102F0AEFBA06800F004000030DB
:1076580018BF012010BD00BF00240140847C010830
:1076680038B504460D46114B98420CD003F580639B
:10767800984208D003F5A053984204D00C484FF420
:10768800E97102F08FFB012D04D9094840F2D311AA
:1076980002F088FB25B1A36843F4A003A36038BDBA
:1076A800A36823F4A003A36038BD00BF00240140F1
:1076B800847C0108F8B504460D4616461F46374B2C
:1076C80098420CD003F58063984208D003F5A05384
:1076D800984204D032484FF4167102F063FB112D22
:1076E80004D92F4840F2592102F05CFB731EDBB22B
:1076F8000F2B04D92A4840F25A2102F053FB072FD6
:1077080004D9274840F25B2102F04CFB092D0DD922
:10771800E168A5F10A0303EB430307229A4021EA33
:1077280002029F4042EA0703E3600AE0216905EB91
:10773800450307229A4021EA02029F4042EA0703D2
:107748002361062E0CD8626B013E06EB86061F23CA
:10775800B34022EA0303B54043EA05066663F8BD71
:107768000C2E0DD8226B073E06EB86061F23B3406E
:1077780022EA030305FA06F643EA06052563F8BD7F
:10778800E26A0D3E06EB86061F23B34022EA030396
:10779800B54043EA0506E662F8BD00BF0024014093
:1077A800847C010810B504464F4B984225D0143309
:1077B800984222D0143398421FD0143398421CD0D8
:1077C8001433984219D01433984216D0143398427F
:1077D80013D003F5627398420FD0143398420CD03B
:1077E8001433984209D01433984206D0143398427F
:1077F80003D03E486F2102F0D5FA236823F0010335
:107808001B041B0C2360002323606360A360E360F8
:10781800354B9C4205D1083B5A6842F00F025A602A
:1078280010BD334B9C4205D11C3B5A6842F0F00214
:107838005A6010BD2F4B9C4205D1303B5A6842F428
:1078480070625A6010BD2C4B9C4205D1443B5A686B
:1078580042F470425A6010BD284B9C4205D1583BF7
:107868005A6842F470225A6010BD254B9C4205D1DB
:107878006C3B5A6842F470025A6010BD214B9C421E
:1078880005D1803B5A6842F070625A6010BD1E4BA9
:107898009C4205D1083B5A6842F00F025A6010BD5D
:1078A8001A4B9C4205D11C3B5A6842F0F0025A60C0
:1078B80010BD174B9C4205D1303B5A6842F47062A8
:1078C8005A6010BD134B9C4205D1443B5A6842F4A0
:1078D80070425A6010BD104B9C4204D1583B5A6804
:1078E80042F470225A6010BD08000240B47C0108BE
:1078F8001C00024030000240440002405800024090
:107908006C00024080000240080402401C0402404F
:1079180030040240440402405804024038B5054689
:107928000C46504B984225D01433984222D0143339
:1079380098421FD0143398421CD01433984219D05F
:107948001433984216D01433984213D003F5627357
:1079580098420FD0143398420CD01433984209D06F
:107968001433984206D01433984203D03E48CF21AE
:1079780002F018FAA368102B04D01BB13A48D021A2
:1079880002F010FAE368013B4FF6FE72934203D906
:107998003548D12102F006FA2369402B04D01BB1E7
:1079A8003148D22102F0FEF96369802B04D01BB163
:1079B8002D48D32102F0F6F9A3694BB1B3F5807FC6
:1079C80006D0B3F5007F03D02748D42102F0EAF9A6
:1079D800E3694BB1B3F5806F06D0B3F5006F03D000
:1079E8002148D52102F0DEF9236A202B04D01BB1EF
:1079F8001D48D62102F0D6F9636AB3F5405F0AD074
:107A0800B3F5005F07D0B3F5805F04D01BB116480B
:107A1800D72102F0C7F9A36AB3F5804F04D01BB190
:107A28001148D82102F0BEF92B6823F4FF4323F054
:107A38007003A168226A11432269114362691143E4
:107A4800A2691143E2691143626A1143A26A0A43B7
:107A580013432B60E3686B602368AB606368EB607B
:107A680038BD00BF08000240B47C010838B50446A0
:107A78000D461F4B984226D01433984223D0143316
:107A8800984220D0143398421DD0143398421AD00B
:107A98001433984217D01433984214D003F5627304
:107AA800984210D0143398420DD0143398420AD01B
:107AB8001433984207D01433984204D00D4840F24A
:107AC800291102F06FF9012D04D90A484FF4957174
:107AD80002F068F925B1236843F00103236038BD3B
:107AE800236823F001031B041B0C236038BD00BF6F
:107AF80008000240B47C010810B50446431E012B5F
:107B080040F29B80042800F09880082800F09580B7
:107B1800102800F09280202800F08F80402800F084
:107B28008C80802800F08980B0F5807F00F0858007
:107B3800B0F5007F00F08180B0F5806F7DD0B0F5A2
:107B4800006F7AD0B0F5805F77D0B0F5005F74D061
:107B5800B0F5804F71D0B0F5004F6ED0B0F5803FD2
:107B68006BD0B0F5003F68D0B0F5802F65D0B0F588
:107B7800002F62D0B0F5801F5FD0B0F5001F5CD039
:107B8800B0F5800F59D0B0F5000F56D0B0F1807F16
:107B980053D0B0F1007F50D0B0F1806F4DD0B0F12C
:107BA800006F4AD02B4B984247D00133984244D0BB
:107BB8000233984241D0043398423ED00833984269
:107BC8003BD01033984238D02033984235D04033D8
:107BD800984232D0803398422FD003F58073984270
:107BE8002BD003F50073984227D003F580639842A1
:107BF80023D0B0F1102F20D003F5C05398421CD0E9
:107C080003F50053984218D003F58043984214D0E6
:107C180003F50043984210D003F5803398420CD006
:107C280003F50033984208D003F58023984204D026
:107C3800094840F2B71102F0B5F814F0805F14BF9C
:107C4800064B074B1B6803EA0400003018BF0120ED
:107C580010BD00BF01000010B47C01080004024000
:107C68000000024010B50446022804D9054840F235
:107C7800031102F097F8044B1A6802F03802144313
:107C88001C6010BDE47C01080020024010B50446C9
:107C9800102805D020B1074840F22F1102F082F8D1
:107CA800054B1A6822F010021A601A6814431C6007
:107CB80010BD00BFE47C010800200240034B044AC9
:107CC8005A6002F188325A60704700BF00200240B3
:107CD80023016745024B1A6942F080021A61704716
:107CE8000020024010B5044630F0350300D120B919
:107CF800034840F2CC5102F055F8024BDC6010BD4D
:107D0800E47C0108002002400B4BDB6813F0010FF4
:107D18000DD1094BDB6813F0040F0AD1064BDB6861
:107D280003F01003002B0CBF042003207047012030
:107D380070470220704700BF0020024010B504467B
:107D4800FFF7E2FF02E0FFF7DFFF013C012801D166
:107D5800002CF8D1002C08BF052010BD38B504460A
:107D680000F17842114B9A4204D9114840F2A71108
:107D780002F018F84FF43020FFF7E0FF042813D181
:107D88000C4D2B6943F002032B616C612B6943F0A6
:107D980040032B614FF43020FFF7D0FF2B6923F00D
:107DA8000203DB04DB0C2B6138BD00BFFEFF0F00B4
:107DB800E47C01080020024030B583B004460D463B
:107DC8000023019300F178421A4B9A4204D91A48C9
:107DD80040F2B52101F0E6FF4FF40050FFF7AEFF87
:107DE800042824D1154B1A6942F001021A61ABB27A
:107DF80023804FF40050FFF7A1FF042810D102346C
:107E08000194019B2D0C1D804FF40050FFF796FF45
:107E18000A4B1A6922F00102D204D20C1A6106E058
:107E2800064B1A6922F00102D204D20C1A6103B07F
:107E380030BD00BFFEFF0F00E47C010800200240B7
:107E48002DE9F04105460C46494B98421BD003F5F5
:107E58008063984217D003F58063984213D003F5E6
:107E6800806398420FD003F5806398420BD003F5E6
:107E78008063984207D003F58063984203D03D4859
:107E8800B22101F08FFFE3788BB1042B0FD0282BA0
:107E98000DD0482B0BD0142B09D0102B07D01C2B3E
:107EA80005D0182B03D03348B32101F07BFF23887A
:107EB8001BB93048B42101F075FFE37803F00F07D0
:107EC8003E4613F0100F0AD0A378013BDBB2022B19
:107ED80003D92848BB2101F065FFA6783E432378E3
:107EE800FBB12F68002301204FF00F0C16E000FAB9
:107EF80003F22188114091420FD199000CFA01F840
:107F080027EA080706FA01F10F43E178282901D189
:107F18006A6102E0482908BF2A610133072BE6D9C4
:107F28002F602388FF2B21D96F68002301204FF091
:107F38000F0C18E003F1080200FA02F22188114040
:107F480091420FD199000CFA01F827EA080706FABE
:107F580001F10F43E178282908BF6A61E1784829CF
:107F680008BF2A610133072BE4D96F60BDE8F081AF
:107F780000080140187D010838B504460D462A4B13
:107F880098421CD003F58063984218D003F58063AB
:107F9800984214D003F58063984210D003F58063AB
:107FA80098420CD003F58063984208D003F58063AB
:107FB800984204D01D484FF48F7101F0F3FE6B1EF8
:107FC8009BB2012B28D9042D26D0082D24D0102DA2
:107FD80022D0202D20D0402D1ED0802D1CD0B5F5CC
:107FE800807F19D0B5F5007F16D0B5F5806F13D016
:107FF800B5F5006F10D0B5F5805F0DD0B5F5005F11
:108008000AD0B5F5804F07D0B5F5004F04D0074822
:1080180040F21F1101F0C6FEA36803EA0500003014
:1080280018BF012038BD00BF00080140187D0108B5
:1080380038B504460D462A4B98421CD003F5806398
:10804800984218D003F58063984214D003F58063F2
:10805800984210D003F5806398420CD003F58063F2
:10806800984208D003F58063984204D01D484FF425
:10807800A27101F097FE6B1E9BB2012B28D9042D2B
:1080880026D0082D24D0102D22D0202D20D0402DF0
:108098001ED0802D1CD0B5F5807F19D0B5F5007F96
:1080A80016D0B5F5806F13D0B5F5006F10D0B5F5C3
:1080B800805F0DD0B5F5005F0AD0B5F5804F07D0C9
:1080C800B5F5004F04D0074840F2451101F06AFEAB
:1080D800E36803EA0500003018BF012038BD00BF7F
:1080E80000080140187D010838B504460D46144BB8
:1080F80098421CD003F58063984218D003F580633A
:10810800984214D003F58063984210D003F5806339
:1081180098420CD003F58063984208D003F5806339
:10812800984204D0074840F2691101F03BFE25B996
:1081380004484FF4B57101F035FE256138BD00BF24
:1081480000080140187D010838B504460D46144B57
:1081580098421CD003F58063984218D003F58063D9
:10816800984214D003F58063984210D003F58063D9
:1081780098420CD003F58063984208D003F58063D9
:10818800984204D0074840F2791101F00BFE25B956
:1081980004484FF4BD7101F005FE656138BD00BFAC
:1081A80000080140187D010838B504460D46431EF5
:1081B800012B40F29080042800F08D80082800F000
:1081C8008A80624B984200F086802033984200F003
:1081D80082805F4B98427ED0803398427BD05D4B43
:1081E800984278D003F58073984274D003F5807371
:1081F800984270D0584B98426DD003F580639842EE
:1082080069D0B0F5805F66D0B0F5EA1F63D0B0F5ED
:10821800EB1F60D0B0F5004F5DD0504B98425AD05C
:108228000133984257D00233984254D004339842CD
:1082380051D0083398424ED0B0F1201F4BD0303384
:10824800984248D0464B984245D003F580739842EF
:1082580041D003F5007398423DD0424B98423AD042
:1082680003F57063984236D0B0F5011F33D03E4B0A
:10827800984230D0013398422DD0023398422AD008
:108288000433984227D00833984224D010339842B8
:1082980021D0203398421ED0403398421BD08033DF
:1082A800984218D003F58073984214D003F50073F0
:1082B800984210D003F5806398420CD003F5006310
:1082C800984208D003F58053984204D0274840F2DA
:1082D8002A2101F067FD012D04D9244840F22B2101
:1082E80001F060FD002C224BB4BFDB695B68C4F36E
:1082F8000340A1B204F44012B2F5401F07D123F0A5
:1083080070631B4A506820F07060506012E014F4EB
:10831800801F07D0032202FA00F023EA000343F08B
:10832800706307E0620D120101FA02F223EA020308
:1083380043F070631DB1620D120191400B43002C94
:108348000B4AB4BFD361536038BD00BF100014009E
:10835800400016000001180000081A000100200063
:10836800000130000011200001000080187D010884
:1083780000000140F0B587B004460D46524B9842C4
:1083880007D003F58063984203D05048C62101F016
:1083980009FD2B68013B4E4A934203D94B48C7213C
:1083A80001F000FDAB883BB1022B05D00A2B03D0AE
:1083B8004648C82101F0F6FCEB88B3F5804F07D09A
:1083C8004BF6FF72934203D04048C92101F0EAFC02
:1083D8002B89B3F5806F03D33C48CA2101F0E2FC36
:1083E8006B89B3F5806F04D01BB13848CB2101F0FD
:1083F800D9FCAB89B3F5804F06D0B3F5404F03D015
:108408003248CC2101F0CEFCA68826F03F0636047F
:10841800360C01A800F0B0FB03992E48A0FB0130F0
:10842800800C87B23E43A680238823F001031B04F7
:108438001B0C23802A68284B9A4209D85300B1FBA9
:10844800F3F39BB2032B98BF04230137278424E05E
:10845800EE884BF6FF739E4205D102EB4202B1FB58
:10846800F2F39BB208E002EB820202EB8202B1FB5C
:10847800F2F39BB243F48043C3F30B020AB943F00F
:10848800010343F400434FF4967200FB02F0134AD1
:1084980082FB0010801101302084A38323889BB2C3
:1084A80043F001032380228892B222F4816222F0F1
:1084B8000202A9886B890B4313432380AA892B895D
:1084C8001343238107B0F0BD005400404C7D0108E0
:1084D8007F1A060083DE1B43A0860100D34D62107D
:1084E80038B504460D46104B984208D003F5806312
:1084F800984204D00D484FF4A97101F053FC012DA6
:1085080004D90A4840F2531101F04CFC2DB12388DC
:108518009BB243F00103238038BD238823F0010375
:108528001B041B0C238038BD005400404C7D0108FF
:1085380038B504460D46104B984208D003F58063C1
:10854800984204D00D484FF4CD7101F02BFC012D59
:1085580004D90A4840F29B1101F024FC2DB123886C
:108568009BB243F48073238038BD238823F480733F
:108578001B041B0C238038BD005400404C7D0108AF
:1085880038B504460D46104B984208D003F5806371
:10859800984204D00D484FF4D97101F003FC012D25
:1085A80004D90A4840F2B31101F0FCFB2DB123882D
:1085B8009BB243F40073238038BD238823F40073EF
:1085C8001B041B0C238038BD005400404C7D01085F
:1085D80038B504460D46104B984208D003F5806321
:1085E800984204D00D484FF4E57101F0DBFB012DF2
:1085F80004D90A4840F2CB1101F0D4FB2DB12388ED
:108608009BB243F48063238038BD238823F48063BE
:108618001B041B0C238038BD005400404C7D01080E
:1086280038B504460D46074B984208D003F58063D9
:10863800984204D0044840F2552101F0B3FB25824A
:1086480038BD00BF005400404C7D010810B50446F9
:10865800074B984208D003F58063984204D0054838
:1086680040F2622101F09EFB208AC0B210BD00BF1B
:10867800005400404C7D010870B504460E4615466E
:108688000D4B984208D003F58063984204D00B48FC
:108698004FF41D7101F086FB012D04D9074840F203
:1086A800752101F07FFB15B146F0010601E006F0E7
:1086B800FE06268270BD00BF005400404C7D0108B4
:1086C80038B505460C462E4B984208D003F5806312
:1086D800984204D02B484FF4876101F063FB2A4B82
:1086E8009C4240D0B4F1021F3DD0284B9C423AD066
:1086F800B4F5020F37D0B4F5901F34D0244B9C4208
:1087080031D003F500039C422DD0A3F5E0039C4231
:1087180029D0204B9C4226D003F500039C4222D04E
:10872800A3F5E0039C421ED0102C1CD01A4B9C428F
:1087380019D01A4B9C4216D0194B9C4213D03E3389
:108748009C4210D0174B9C420DD0043B9C420AD04F
:10875800154B9C4207D0B4F5806F04D0094840F20D
:10876800394101F01FFBA88A80B22B8B40EA0340F5
:10877800204020F07F40A04214BF0020012038BDD7
:10878800005400404C7D01088200060080008600ED
:108798004000020084000600010003008200070078
:1087A80002000300840007000800030030B583B00E
:1087B80005460C46002301930093364B984208D097
:1087C80003F58063984204D0334840F29E4101F09B
:1087D800E9FAB4F5000F45D0B4F5800F42D0B4F5EE
:1087E800001F3FD0B4F5801F3CD0B4F5802F39D09E
:1087F800B4F5003F36D0B4F5803F33D0274B9C42C8
:1088080030D0A3F580439C422CD0B4F1102F29D04E
:10881800A3F560539C4225D0A3F580639C4221D0E8
:10882800A3F500739C421DD0A3F580739C4219D018
:10883800803B9C4216D0403B9C4213D0303B9C422C
:1088480010D0083B9C420DD0043B9C420AD0023B0E
:108858009C4207D0013B9C4204D00F4840F29F4104
:1088680001F0A0FA0095230F019324F07F44019BA7
:108878001BB1009B1433009303E0240C009B1833B6
:108888000093009B1B6803EA0400003018BF012016
:1088980003B030BD005400404C7D0108008000103A
:1088A80010B5044645F25553984204D018B1034810
:1088B8005F2101F077FA024B1C6010BD7C7D010836
:1088C8000030004010B50446062803D90348732138
:1088D80001F068FA024B5C6010BD00BF7C7D0108A6
:1088E8000030004010B50446B0F5805F03D303485C
:1088F800802101F057FA024B9C6010BD7C7D010875
:10890800003000404AF6AA22014B1A60704700BFA7
:10891800003000404CF6CC42014B1A60704700BF53
:10892800003000400D4B1A6842F001021A60596885
:108938000B4A0A405A601A6822F0847222F4803284
:108948001A601A6822F480221A605A6822F4FE0219
:108958005A604FF41F029A60704700BF001002402F
:108968000000FFF810B5044650B1B0F5803F07D0BD
:10897800B0F5802F04D0104840F2111101F012FA1E
:108988000E4B1A6822F480321A601A6822F4802288
:108998001A60B4F5803F03D0B4F5802F06D010BD1F
:1089A800064B1A6842F480321A6010BD034B1A68ED
:1089B80042F4A0221A6010BDB07D010800100240E8
:1089C80038B50C46054650B1B0F5803F07D0B0F534
:1089D800403F04D01E4840F27F1101F0E3F974B320
:1089E800B4F5802F2BD0B4F5002F28D0B4F5402F44
:1089F80025D0B4F5801F22D0B4F5A01F1FD0B4F540
:108A0800C01F1CD0B4F5E01F19D0B4F5001F16D054
:108A1800B4F5101F13D0B4F5201F10D0B4F5301FD3
:108A28000DD0B4F5401F0AD0B4F5501F07D0B4F5E7
:108A3800601F04D006484FF4C07101F0B3F9054B2C
:108A48005A6822F47C122C4314435C6038BD00BF82
:108A5800B07D01080010024010B50446012804D971
:108A680003484FF4CA7101F09DF9024B1C6010BD18
:108A7800B07D01086000424210B50446022804D9BE
:108A880005484FF40E7101F08DF9044B5A6822F035
:108A9800030214435C6010BDB07D01080010024061
:108AA800024B586800F00C00704700BF00100240ED
:108AB80010B50446A0B1802812D0902810D0A02864
:108AC8000ED0B0280CD0C0280AD0D02808D0E02872
:108AD80006D0F02804D006484FF4197101F062F965
:108AE800044B5A6822F0F00214435C6010BD00BFCA
:108AF800B07D01080010024010B5044680B1B0F501
:108B0800806F0DD0B0F5A06F0AD0B0F5C06F07D058
:108B1800B0F5E06F04D0064840F27E2101F042F93A
:108B2800044B5A6822F4E06214435C6010BD00BF35
:108B3800B07D01080010024010B5044680B1B0F5C0
:108B4800806F0DD0B0F5A06F0AD0B0F5C06F07D018
:108B5800B0F5E06F04D006484FF4267101F022F911
:108B6800044B5A6822F4605242EAC4045C6010BDA7
:108B7800B07D01080010024010B4284B5B6803F078
:108B88000C03042B05D0082B06D0F3B9244B036043
:108B98001DE0244B03601AE0204B5A685B68C2F35F
:108BA8008342023213F4803F04D11F4B03FB02F2CD
:108BB80002600CE0194B5B6813F4003F14BF1B4BB9
:108BC800184B03FB02F2026001E0154B0360134BE4
:108BD8005A68C2F3031216498A5CD2B2046824FAAE
:108BE80002F242605C68C4F302240C5DE4B222FA2B
:108BF80004F484605C68C4F3C224095DC9B2CA4045
:108C0800C2605B68C3F381330A49CB5CDBB2B2FB59
:108C1800F3F202615DF8044B704700BF0010024098
:108C280000127A00001BB70000093D00808D5B0030
:108C3800080000200400002038B504460D4620F442
:108C4800AA6323F0070303B920B90C4840F22B416B
:108C580001F0A8F8012D04D9084840F22C4101F090
:108C6800A1F825B1064B5A6914435C6138BD044B21
:108C78005A6922EA04045C6138BD00BFB07D01086E
:108C88000010024038B504460D460E4B034003B9A8
:108C980020B90D4840F24A4101F084F8012D04D969
:108CA800094840F24B4101F07DF825B1074B9A691C
:108CB80014439C6138BD054B9A6922EA04049C61FF
:108CC80038BD00BF0200C0FFB07D0108001002409F
:108CD80038B504460D460E4B184200D120B90D4850
:108CE80040F2694101F05EF8012D04D9094840F2CB
:108CF8006A4101F057F825B1074BDA691443DC6182
:108D080038BD054BDA6922EA0404DC6138BD00BFCE
:108D180000360181B07D01080010024010B50446FC
:108D2800212818D0312816D0392814D0412812D03B
:108D3800612810D07A280ED07B280CD07C280AD045
:108D48007D2808D07E2806D07F2804D00A4840F223
:108D5800345101F027F86309012B02D1074B186839
:108D680004E0022B054B0CBF186A586A04F01F0474
:108D7800E04000F0010010BDB07D01080010024085
:108D880010B582B00023019331242046FFF7C6FFB7
:108D9800019B01330193019BB3F5A06F01D000281B
:108DA800F3D03120FFF7BAFF003018BF012002B01E
:108DB80010BD00BF024B5A6A42F080725A62704777
:108DC800001002402DE9F84305460C46464B9842F0
:108DD8000BD0A3F57843984207D003F580639842F7
:108DE80003D04248A32100F0DDFF238863B1B3F527
:108DF800806F09D0B3F5004F06D0B3F5404F03D0CC
:108E08003A48A62100F0CEFF6388B3F5827F04D0EC
:108E18001BB13648A72100F0C5FFA388B3F5006F42
:108E280004D01BB13148A82100F0BCFFE3882BB166
:108E3800022B03D02D48A92100F0B4FF2389012B70
:108E480003D92A48AA2100F0ADFF6389B3F5007F52
:108E580004D01BB12548AB2100F0A4FFA3898BB136
:108E6800082B0FD0102B0DD0182B0BD0202B09D08E
:108E7800282B07D0302B05D0382B03D01B48AC212A
:108E880000F090FFE3892BB1802B03D01748AD2168
:108E980000F088FF238A1BB91448AE2100F082FF36
:108EA8002A8802F44152B4F800906388B4F8048028
:108EB800B4F806C027896689A089E18949EA0303CD
:108EC80048EA03034CEA03033B43334303430B439E
:108ED80013432B80AB8B23F400631B041B0CAB8365
:108EE800238A2B82BDE8F88300300140E07D010829
:108EF80038B504460D46124B98420CD0A3F578437A
:108F0800984208D003F58063984204D00D4840F297
:108F1800B71100F047FF012D04D90A484FF4DC715E
:108F280000F040FF2DB123889BB243F0400323801B
:108F380038BD238823F040031B041B0C238038BD55
:108F480000300140E07D010870B504460D46164624
:108F5800164B98420CD0A3F57843984208D003F5F5
:108F68008063984204D012484FF4087100F01AFF49
:108F7800012E04D90E4840F2212100F013FF25F0FC
:108F880003039BB203B925B9094840F2222100F036
:108F980009FF26B1A3889BB21D43A58070BDA38895
:108FA800ED43ADB21D40A58070BD00BF003001404B
:108FB800E07D010838B504460D46094B98420CD0AF
:108FC800A3F57843984208D003F58063984204D00B
:108FD800044840F23A2100F0E5FEA58138BD00BF03
:108FE80000300140E07D010810B50446094B984265
:108FF8000CD0A3F57843984208D003F580639842D3
:1090080004D0054840F24A2100F0CCFEA08980B285
:1090180010BD00BF00300140E07D010838B50546AD
:109028000C46164B98420CD0A3F57843984208D0CA
:1090380003F58063984204D0114840F2163100F0DD
:10904800B1FE802C12D0402C10D0202C0ED0102C29
:109058000CD0082C0AD0042C08D0022C06D0012CE5
:1090680004D0074840F2173100F09CFE2B8904EA2F
:109078000300003018BF012038BD00BF0030014098
:10908800E07D010838B504460D46524B984242D05F
:10909800B0F1804F3FD0A3F5943398423BD003F50D
:1090A8008063984237D003F58063984233D003F544
:1090B800806398422FD003F5806398422BD003F544
:1090C8009033984227D003F5C053984223D003F534
:1090D800806398421FD003F5806398421BD0A3F5A4
:1090E8009E33984217D003F58063984213D003F556
:1090F800806398420FD003F5903398420BD003F564
:109108008063984207D003F58063984203D03248C1
:10911800E72100F047FE6B885BB1102B09D0202BAC
:1091280007D0402B05D0602B03D02B48E82100F056
:1091380039FEEB884BB1B3F5807F06D0B3F5007FDD
:1091480003D02548E92100F02DFE23889BB2214A4F
:10915800944212D002F5006294420ED0B4F1804FCE
:109168000BD0A2F59832944207D002F5806294425F
:1091780003D002F58062944203D123F070036A8819
:109188001343164A944208D002F58062944204D0F0
:1091980023F440739BB2EA8813432380AB88A385EA
:1091A8002B8823850B4B9C420FD003F500639C4210
:1091B8000BD003F540639C4207D003F580639C42C3
:1091C80003D003F580639C4201D12B7A23860123C7
:1091D800A38238BD002C0140107E01080010004019
:1091E80038B504460D462E4B984243D0B0F1804F17
:1091F80040D0A3F5943398423CD003F5806398425D
:1092080038D003F58063984234D003F580639842E0
:1092180030D003F5806398422CD003F59033984200
:1092280028D003F5C053984224D003F580639842B0
:1092380020D003F5806398421CD0A3F59E33984252
:1092480018D003F58063984214D003F580639842E0
:1092580010D003F5903398420CD003F58063984200
:1092680008D003F58063984204D00E4840F22931B3
:1092780000F098FD012D04D90A4840F22A3100F087
:1092880091FD2DB123889BB243F00103238038BDA3
:10929800238823F001031B041B0C238038BD00BF67
:1092A800002C0140107E010870B504460D46164694
:1092B800314B984243D0B0F1804F40D0A3F594335E
:1092C80098423CD003F58063984238D003F5806318
:1092D800984234D003F58063984230D003F5806318
:1092E80098422CD003F59033984228D003F5C05308
:1092F800984224D003F58063984220D003F5806318
:1093080098421CD0A3F59E33984218D003F5806389
:10931800984214D003F58063984210D003F5903337
:1093280098420CD003F58063984208D003F5806317
:10933800984204D0114840F26B3100F033FD15F427
:109348007F4F00D125B90D484FF45B7100F02AFD1D
:10935800012E04D9094840F26D3100F023FD26B1F1
:10936800A3899BB21D43A58170BDA389ED43ADB20E
:109378001D40A58170BD00BF002C0140107E010872
:1093880070B504460E461546284B984243D0B0F1B6
:10939800804F40D0A3F5943398423CD003F58063C6
:1093A800984238D003F58063984234D003F580633F
:1093B800984230D003F5806398422CD003F590335F
:1093C800984228D003F5C053984224D003F580630F
:1093D800984220D003F5806398421CD0A3F59E33B1
:1093E800984218D003F58063984214D003F580633F
:1093F800984210D003F5903398420CD003F580635F
:10940800984208D003F58063984204D0084840F297
:109418009B4100F0C7FC012D04D9054840F29C414E
:1094280000F0C0FC2685A58270BD00BF002C01405D
:10943800107E010838B504460D462A4B984243D0A1
:10944800B0F1804F40D0A3F5943398423CD003F557
:109458008063984238D003F58063984234D003F58E
:109468008063984230D003F5806398422CD003F58E
:109478009033984228D003F5C053984224D003F57E
:109488008063984220D003F5806398421CD0A3F5EE
:109498009E33984218D003F58063984214D003F5A0
:1094A8008063984210D003F5903398420CD003F5AE
:1094B8008063984208D003F58063984204D00A4834
:1094C80040F6362100F06EFC15F4614F00D125B945
:1094D800054840F6372100F065FCED43ADB2258222
:1094E80038BD00BF002C0140107E010838B5044685
:1094F8000D46334B984243D0B0F1804F40D0A3F58E
:10950800943398423CD003F58063984238D003F5F1
:109518008063984234D003F58063984230D003F5D5
:10952800806398422CD003F59033984228D003F5F5
:10953800C053984224D003F58063984220D003F5A5
:10954800806398421CD0A3F59E33984218D003F547
:109558008063984214D003F58063984210D003F5D5
:10956800903398420CD003F58063984208D003F5F5
:109578008063984204D0134840F6582100F012FC4A
:109588006B1E9BB2012B10D9042D0ED0082D0CD0C8
:10959800102D0AD0202D08D0402D06D0802D04D0C3
:1095A800084840F6592100F0FDFB238AA08928408D
:1095B8001D4203D0003018BF012038BD002038BD3F
:1095C800002C0140107E010838B504460D462A4B90
:1095D800984243D0B0F1804F40D0A3F594339842DD
:1095E8003CD003F58063984238D003F580639842F5
:1095F80034D003F58063984230D003F580639842F5
:109608002CD003F59033984228D003F5C0539842E4
:1096180024D003F58063984220D003F580639842F4
:109628001CD0A3F59E33984218D003F58063984266
:1096380014D003F58063984210D003F59033984214
:109648000CD003F58063984208D003F580639842F4
:1096580004D00A4840F6822100F0A4FB15F47F4F9D
:1096680000D125B9054840F6832100F09BFBED4366
:10967800ADB2258238BD00BF002C0140107E010824
:1096880030B587B004460D46644B984213D0A3F515
:10969800744398420FD003F5806398420BD003F5CA
:1096A8008063984207D003F58063984203D05C48F2
:1096B800B82100F077FB2B68013B5A4A934203D943
:1096C8005748B92100F06EFBAB8833B1B3F5805F22
:1096D80003D05348BA2100F065FBEB8863B1B3F5BA
:1096E800805F09D0B3F5005F06D0B3F5405F03D0C3
:1096F8004B48BB2100F056FB2B894BB1B3F5806F6B
:1097080006D0B3F5C06F03D04548BC2100F04AFB32
:109718006B8923F00C0292B202B91BB94048BD21F3
:1097280000F040FBAB8963B1B3F5807F09D0B3F596
:10973800007F06D0B3F5407F03D03948BE2100F042
:1097480031FBAB8973B1354B9C420BD0A3F5744305
:109758009C4207D003F580639C4203D03048C22165
:1097680000F020FB238A23F440531B041B0CEA88D7
:1097780013432382A28992B222F4B05222F00C023F
:10978800A8882B89698903430B431343A381A38AC0
:1097980023F440731B041B0CAA891343A38201A85A
:1097A800FFF7EAF91D4B9C420CBF049A039AA38960
:1097B8001BB2002B08DA02EB820202EB82022B6852
:1097C8005B00B2FBF3F207E002EB820202EB8202DB
:1097D80029688900B2FBF1F2134BA3FB02135B0962
:1097E8001801642103FB1123A18909B2002908DAB1
:1097F800DB0032330C4DA5FB0323C3F342130343B1
:1098080007E01B013233084DA5FB0313C3F34313D1
:1098180003439BB2238107B030BD00BF003801402D
:10982800407E01081FAA44001F85EB5170B505460C
:109838000C46234B98420CD0A3F57443984208D0A9
:1098480003F58063984204D01E484FF4997100F0E4
:10985800A9FA23883BB1B3F5006F04D0194840F248
:10986800331100F09FFA63883BB1B3F5806F04D0E1
:1098780014484FF49A7100F095FAA3883BB1B3F5F8
:10988800007F04D00F4840F2351100F08BFAE388CE
:109898003BB1B3F5807F04D00A484FF49B7100F0C8
:1098A80081FA2B8A23F470631B041B0C26886288B8
:1098B800A088E188324302430A4313432B8270BDD8
:1098C80000380140407E010838B504460D46164B65
:1098D800984214D0A3F57443984210D003F58063DE
:1098E80098420CD003F58063984208D003F5806352
:1098F800984204D00D484FF4B17100F053FA012D8D
:1099080004D90A4840F2631100F04CFA2DB1A3893A
:109918009BB243F40053A38138BDA38923F40053B9
:109928001B041B0CA38138BD00380140407E010890
:1099380070B505460C461646364B984214D0A3F52A
:109948007443984210D003F5806398420CD003F515
:109958008063984208D003F58063984204D02E486B
:1099680040F2891100F01EFA282C1ED040F227730D
:109978009C421AD040F226639C4216D040F22553EE
:109988009C4212D040F224439C420ED040F646033B
:109998009C420AD040F66A139C4206D0602C04D040
:1099A8001D484FF4C57100F0FDF9012E04D91A487D
:1099B80040F28B1100F0F6F940F66A139C420FD181
:1099C800144B9D420CD0A3F574439D4208D003F577
:1099D80080639D4204D0104840F28F1100F0E2F9F4
:1099E800C4F3421304F01F04012202FA04F4934260
:1099F80001D10C3503E0022B0CBF103514351EB114
:109A08002B681C432C6070BD2B6823EA04042C606F
:109A180070BD00BF00380140407E010838B50446DB
:109A28000D46124B984214D0A3F57443984210D0B7
:109A380003F5806398420CD003F58063984208D000
:109A480003F58063984204D0094840F25F2100F092
:109A5800A9F9B5F5007F04D305484FF4187100F053
:109A6800A1F9C5F30805A58038BD00BF003801403D
:109A7800407E010810B504460D4B984214D0A3F55A
:109A88007443984210D003F5806398420CD003F5D4
:109A98008063984208D003F58063984204D0054853
:109AA8004FF41C7100F07EF9A088C0F3080010BDC7
:109AB80000380140407E010838B505460C46264B63
:109AC800984214D0A3F57443984210D003F58063EC
:109AD80098420CD003F58063984208D003F5806360
:109AE800984204D01D4840F2863100F05BF9012C01
:109AF80018D0802C16D0402C14D0202C12D0102C2A
:109B080010D0B4F5807F0DD0B4F5007F0AD0082CB2
:109B180008D0042C06D0022C04D0104840F287311B
:109B280000F040F9B4F5007F0FD10B4B9D420CD0EB
:109B3800A3F574439D4208D003F580639D4204D089
:109B4800064840F28B3100F02DF92B8804EA030017
:109B5800003018BF012038BD00380140407E0108A0
:109B680038B505460C463A4B984214D0A3F57443D1
:109B7800984210D003F5806398420CD003F58063B7
:109B8800984208D003F58063984204D0314840F2E7
:109B9800D93100F007F9282C25D040F227739C42D0
:109BA80021D040F226639C421DD040F225539C42AE
:109BB80019D040F224439C4215D040F646039C42FB
:109BC80011D040F66A139C420DD0B4F5587F0AD0E4
:109BD800B4F5187F07D0B4F5B07F04D01D4840F223
:109BE800DA3100F0DFF840F66A139C420FD1184BC7
:109BF8009D420CD0A3F574439D4208D003F58063C1
:109C08009D4204D0134840F2DE3100F0CBF8C4F393
:109C1800421304F01F0201219140012B03D1AA89AC
:109C280092B20A4005E0022B0CBF2A8AAA8A92B295
:109C38000A40240A012000FA04F4288880B220404F
:109C48001AB1003018BF012038BD002038BD00BF50
:109C580000380140407E010838B504460D46244BC3
:109C6800984214D0A3F57443984210D003F580634A
:109C780098420CD003F58063984208D003F58063BE
:109C8800984204D01B4840F2224100F08BF840F281
:109C980026639D4210D040F225539D420CD040F6D9
:109CA80046039D4208D040F66A139D4204D01148ED
:109CB80040F2234100F076F840F66A139D420FD136
:109CC8000B4B9C420CD0A3F574439C4208D003F57F
:109CD80080639C4204D0074840F2274100F062F8B4
:109CE8002D0A012303FA05F5ED43ADB2258038BDF1
:109CF80000380140407E0108FEE700BF08B5034870
:109D080000F076F80120FFF7F7FF00BF747E010826
:109D180008B50D4B1B6813B90C4A0B4B1A600A4B5C
:109D28001B68033020F003001844094A904206D902
:109D38000CF0F0FC0C2303604FF0FF3008BD024A22
:109D48001060184608BD00BFA0010020C83A0020D6
:109D580000B8002001230360014B0B60704700BF6F
:109D68001800002008B50CF0D5FC582303604FF00C
:109D7800FF3008BD08B50CF0CDFC582303604FF048
:109D8800FF3008BD08B50CF0C5FC5823036000205F
:109D980008BD00BF08B50CF0BDFC582303604FF0A8
:109DA800FF3008BD08B503460A460348194600F0C7
:109DB80005F8FFF7A3FF00BFC87E01080FB400B580
:109DC80083B004AB53F8042B0193084880210DF0AD
:109DD800B3FB011E03DD054800F038F801460846CC
:109DE80003B05DF804EB04B0704700BFA801002081
:109DF80010B504460CF05AFE0146204600F026F83D
:109E08000248012100F022F810BD00BF889E010819
:109E180010B400244FF0604212E0D2F8803E13F0F4
:109E2800010F04D0D2F8003E13F0010F01D12046F3
:109E380009E01368002BFCD003781370013401305B
:109E48008C42EAD308465DF8044B704708B5FFF723
:109E5800DFFF08BD08B500F067F808BD82B0002331
:109E68000193009303F1804303F504331A6842F425
:109E780080321A601A46136803F400330093019B7A
:109E880001330193009B1BB9019BB3F5A06FF2D17D
:109E9800214B1B6813F4003F14BF012300230093D8
:109EA800009B012B36D11D4B1A6842F010021A6034
:109EB8001A6822F003021A601A6842F002021A6055
:109EC800A3F580535A685A605A685A605A6842F42F
:109ED80080625A605A6822F47C125A605A6842F4C6
:109EE800E8125A601A6842F080721A601A461368BB
:109EF80013F0007FFBD0084B5A6822F003025A6027
:109F08005A6842F002025A601A46536803F00C037A
:109F1800082BFAD102B0704700100240002002401E
:109F280008B5FFF79BFF08BD08B5104B1A6842F04B
:109F380001021A6059680E4A0A405A601A6822F0EB
:109F4800847222F480321A601A6822F480221A601D
:109F58005A6822F4FE025A604FF41F029A60FFF713
:109F6800DFFF4FF00062034B9A6008BD001002400B
:109F78000000FFF800ED00E008B54FF4C060FDF701
:109F88005FF94FF000604FF4E041FDF7C5F962B6A4
:109F980008BD00BF08B57D20FEF7C0FE08B1FEF77A
:109FA80009FF45F25550FEF77BFC0520FEF78AFCB9
:109FB80040F6FF70FEF796FCFEF7ACFC08BD00BF4C
:109FC80010B582B004460C4B53F820000121FEF76F
:109FD80059FE0A4B33F81430ADF8043010238DF8CD
:109FE800073003238DF80630054B53F8240001A9E8
:109FF800FDF726FF02B010BD207F0108287F010869
:10A008002000002008B50346044A52F82000044AFC
:10A0180032F81310FEF798F808BD00BF20000020A2
:10A02800287F010808B50346044A52F82000044A6C
:10A0380032F81310FEF758F808BD00BF20000020C2
:10A04800287F010808B50346044A52F82000044A4C
:10A0580032F81310FDF7ECFF08BD00BF2000002008
:10A06800287F010882B0019002E0019B013B019327
:10A07800019B002BF9D102B0704700BF10B586B024
:10A0880004460420FDF76AF901A8FEF775FD10489B
:10A09800029BA0FB0320800C04FB00F00138B0F108
:10A0A800807F09D20B4B5860F0210B4A82F82310AD
:10A0B80000229A6007221A60064B1A6822F00202F0
:10A0C8001A601A46136813F4803FFBD006B010BD1F
:10A0D80083DE1B4310E000E000ED00E008B54FF41C
:10A0E8007A7303FB00F0FFF7C9FF08BD10B5094CF0
:10A0F80020464FF4DB7103F043FE94F8B431AE2BE5
:10A1080005D194F8B501AE3818BF012010BD012063
:10A1180010BD00BFE013002008B50548AE2380F845
:10A12800B43180F8B5314FF4DB7103F035FE08BD6A
:10A13800E0130020002070470020704710B5BBB125
:10A1480001280DD1012B03D1104600F023FB03E0B9
:10A158001046DAB200F09AFB003018BF012010BD9B
:10A1680028B950025A0205F00BF9002010BD10BDA5
:10A17800042010BD10B51C46DBB101280DD1012B00
:10A1880003D1104600F01EFB03E01046DAB200F0DF
:10A19800AFFB003018BF012010BD48B9074B1B6842
:10A1A800012B08D15002620205F060F9002010BDB1
:10A1B80010BD042010BD002010BD00BF24100020D9
:10A1C80038B5154601281FD1012918D011B1032926
:10A1D80010D032E01B484FF48061FDF7B5FF00F066
:10A1E80005FC041C18BF012416484FF48061FDF7D4
:10A1F8007BFF25E04FF400731380002420E000F07B
:10A208007FFA286000241BE0D0B9032917D8DFE8BB
:10A2180001F0020F060B04F0F3FF002410E04FF4E6
:10A228000073138000240BE001231380002407E04F
:10A238004FF400631360002402E0042400E00424C7
:10A24800204638BD000C01400C4B1A68A2F2BC72C3
:10A258000B4B1B685B0543EA42630A4A126843EAF0
:10A268000243094A128843EAC223084A128843EA89
:10A278004213074A108843EA40007047280000202C
:10A28800340000202C0000203C0000203800002072
:10A298003000002000B583B04FF48063ADF804307F
:10A2A80003238DF8063010238DF80730034801A9E1
:10A2B800FDF7C6FD03B05DF804FB00BF000C0140CC
:10A2C80070B5064640F6FF74FF2501E0013CA4B2D4
:10A2D800284600F0CDFBB04201D0002CF6D1002C6E
:10A2E80014BF0020FF2070BD70B50024FF264FF674
:10A2F800FE75304600F0BCFB00F01F00AC421AD0DF
:10A3080001340B2807D00D2817D0052818BFFF20C7
:10A31800FF28EED001E00B2070BD0024FF2503E0EC
:10A32800013414F1030F0AD8284600F0A1FB0028D5
:10A33800F6D0002070BD012070BD0D2070BDFF203B
:10A3480070BD00BFF8B507460C4616461F4D284697
:10A358004FF48061FDF7C8FEFF2000F089FBFF2065
:10A3680000F086FBFF2000F083FB28464FF4806155
:10A37800FDF7EAFE47F0400000F07AFB200E00F0FF
:10A3880077FBC4F3074000F073FBC4F3072000F029
:10A398006FFBE0B200F06CFB304600F069FB002474
:10A3A800FF2603E00134A4B2FF2C05D8304600F0A4
:10A3B8005FFB0546FF28F5D004484FF48061FDF7A0
:10A3C80093FEFF2000F054FB2846F8BD000C014026
:10A3D80070B506460C461546FF2000F049FBFF20E5
:10A3E80000F046FB13484FF48061FDF7ADFE46F0E0
:10A3F800400000F03DFB200E00F03AFBC4F307409C
:10A4080000F036FBC4F3072000F032FBE0B200F0A6
:10A418002FFB284600F02CFB0024FF2503E0013425
:10A42800A4B2FF2C04D8284600F022FBFF28F6D05F
:10A4380070BD00BF000C014070B5002301E001337E
:10A448009BB2B3F5706FFAD30024FF2504E02846C9
:10A4580000F00EFB0134A4B2092CF8D900242646DA
:10A468009525304631462A46FFF76CFF0134A4B2E1
:10A47800012801D0FE2CF4D9FF2C14BF00200120A4
:10A4880070BD00BFF0B587B075484FF48061FDF727
:10A498002BFE0023ADF804304FF48272ADF806208D
:10A4A800ADF808300222ADF80A200124ADF80C40BE
:10A4B8004FF40072ADF80E203822ADF81020ADF838
:10A4C80012300723ADF81430664D284601A9FEF76F
:10A4D80079FC28462146FEF70BFD042000F090FA8F
:10A4E800FF2000F0C5FAFFF7A7FF002840F0B18071
:10A4F8005B484FF48061FDF727FE08204FF4D571C3
:10A508008722FFF765FF044605284BD10222564BE8
:10A518001A7053484FF48061FDF716FEFF2000F0D3
:10A52800A7FA0024372625462927304629462A46F1
:10A53800FFF708FFFF2800F09180384629462A4691
:10A54800FFF700FF0134A4B208B1FE2CEDD9FF2CAF
:10A5580011D1002401262546304629462A46FFF710
:10A56800F1FE0134A4B208B1FE2CF5D9FF2C72D04B
:10A5780001223D4B1A70012000F042FAFF2000F042
:10A5880077FA3B2000219522FFF7DCFE002864D1F2
:10A5980010204FF400719522FFF7D4FE04460028DE
:10A5A80055D05BE0012852D1FF2000F061FAFF206E
:10A5B80000F05EFAFF2000F05BFAFF2000F058FA86
:10A5C80027484FF48061FDF78FFDFF2000F050FA17
:10A5D800372500242926284621462246FFF7B2FEC1
:10A5E80001283BD130464FF080412246FFF7AAFEB2
:10A5F8000028F0D13A2000210A46FFF7E9FE044678
:10A6080030B117484FF48061FDF76EFD204625E014
:10A61800FF2000F02DFA0546FF2000F029FAFF2060
:10A6280000F026FAFF2000F023FA0D484FF480616D
:10A63800FDF75AFDFF2000F01BFA15F0400F14BF7C
:10A6480004220322084B1A70012000F0D9F9204691
:10A6580004E0012002E0012000E0FFE707B0F0BDC0
:10A66800000C0140003800402C0200202DE9F8437E
:10A6780005460C46914619484FF48061FDF764FD84
:10A68800FE20FFF71DFE804670B114484FF480612C
:10A69800FDF72AFD4FF001081CE0384600F0E8F904
:10A6A80005F8010B344600E0FF27631E9EB2002C1C
:10A6B800F3D1FF2000F0DCF9FF2000F0D9F9B9F15F
:10A6C800010F07D105484FF48061FDF70DFDFF200C
:10A6D80000F0CEF94046BDE8F88300BF000C014009
:10A6E80010B5044609200021FF22FFF72BFE30B9E0
:10A6F800204610210122FFF7B9FF002010BD10BD30
:10A7080000B585B06846FFF7EBFF00283ED19DF8FD
:10A71800003003F0C003402B08D19DF808009DF8D5
:10A72800093003EB00200130C00430E09DF806003A
:10A7380000F003009DF8073003EB00209DF8083077
:10A748009B0903EB80009DF8092002F003029DF8A5
:10A758000A30DB0903EB42030233012203E0520013
:10A7680092B2013BDBB2002BF9D100FB02229DF82B
:10A77800053003F00F03012103E0490089B2013BD2
:10A788009BB2002BF9D102FB01F000E0002005B0DC
:10A798005DF804FB10B503460C46094A1278042AF2
:10A7A80018BF4302112019460022FFF7CBFD30B92C
:10A7B80020464FF400710122FFF758FF10BD10BD6D
:10A7C8002C02002070B503460C462E4A1278042A43
:10A7D80018BF4302182019460022FFF7B3FD0028CE
:10A7E8004FD129484FF48061FDF7AEFCFF2000F0FF
:10A7F8003FF9FF2000F03CF9FF2000F039F9FE2076
:10A8080000F036F9002506E0661C207800F030F9E3
:10A818000135ADB23446B5F5007FF5D3FF2000F021
:10A8280027F9FF2000F024F9FF2000F021F9044661
:10A8380000F01F03052B11D013484FF48061FDF77A
:10A8480053FC204670BD0134A4B2B4420AD10E486C
:10A858004FF48061FDF748FC012070BD0024FF25FE
:10A868004FF6FF76284600F003F90028EBD006489B
:10A878004FF48061FDF738FCFF2000F0F9F8002064
:10A8880070BD70BD2C020020000C0140F8B50346D5
:10A898000C461546144A1278042A18BF430212209F
:10A8A80019460022FFF74EFDE8B94FF4007700265D
:10A8B800204639463246FFF7D9FE28B904F5007418
:10A8C800681E10F0FF05F3D10C2000210A46FFF79F
:10A8D80039FD06484FF48061FDF706FCFF2000F0C3
:10A8E800C7F82846F8BDF8BD2C020020000C01402E
:10A8F8002DE9F04704460D4692463A4B1B78042B47
:10A9080018BF4402012B04D0172011460022FFF77C
:10A9180019FD192021460022FFF714FD04460028DE
:10A928005CD131484FF48061FDF70EFCFF2000F048
:10A938009FF8FF2000F09CF84FF0FC094FF000084A
:10A94800FF27484600F094F8444606E06E1C287835
:10A9580000F08EF80134A4B23546B4F5007FF5D383
:10A96800384600F085F8384600F082F8384600F09E
:10A978007FF8044600F01F03052B05D01A484FF452
:10A988008061FDF7B1FB29E0FFF7AEFC0446012822
:10A9980005D115484FF48061FDF7A6FB1EE00AF1CA
:10A9A800FF3313F0FF0ACCD1FD2000F061F8002836
:10A9B80008BF4FF0FE0AFFF797FC30B10A484FF482
:10A9C8008061FDF791FB012408E007484FF480619E
:10A9D800FDF78AFBFF2000F04BF854462046BDE8FF
:10A9E800F08700BF2C020020000C014010B5FF24A6
:10A9F800204600F03DF8FF28FAD1002010BD00BF26
:10AA08001A4A138823F038031B041B0C13800428EC
:10AA180024D8DFE800F003080F161D00134B1A882E
:10AA280092B21A801AE0114B1A8892B242F00802C8
:10AA38001A8013E00D4B1A8892B242F010021A8065
:10AA48000CE00A4B1A8892B242F018021A8005E00C
:10AA5800064B1A8892B242F038021A80034B1A88C1
:10AA680092B242F040021A80704700BF003800409E
:10AA7800F8B507460024154E022504E00134A4B2B7
:10AA8800B4F5C87F1DD830462946FEF7C7FA002816
:10AA9800F4D00E483946FEF78DFA00240B4E0125F6
:10AAA80004E00134A4B2B4F5C87F0CD83046294676
:10AAB800FEF7B4FA0028F4D00448FEF795FAC0B2BD
:10AAC800F8BD0020F8BD0020F8BD00BF00380040E8
:10AAD80010B586B007F070FA04460DF1060006F0CE
:10AAE8006DF90DF10E0006F075F90DF10A0006F08A
:10AAF8007DF90DF1120006F085F9684604F121018F
:10AB0800062207F005FB04F127000DF106010422D7
:10AB180007F002FB04F12B000DF10E01042207F0EF
:10AB2800FBFA04F12F000DF10A01042207F0F4FAF0
:10AB380004F14F000DF11201042207F0EDFA94F828
:10AB48004D301BB102238DF8163002E001238DF839
:10AB580016300020694607F005FA06B010BD00BFA0
:10AB6800704700BF04E00A7802701A4601310130CC
:10AB7800531E002AF7D17047C9B202E001701A4685
:10AB88000130531E002AF9D1704700BF70B4034644
:10AB9800002001E029463346541E32B15E1C187865
:10ABA8004D1C0B782246C01AF4D070BC704700BF09
:10ABB80000E00130037813B15AB28A42F9D158B291
:10ABC800704700BFCA7E8B7E43EA02230278032ABD
:10ABD80005D1487D0A7D42EA002243EA024318462D
:10ABE800704700BF8176C1F30723C376090C01754E
:10ABF800090A4175704700BF2DE9F0014B730F2317
:10AC0800CB7200240C738C76CC76531E03EB430670
:10AC180003EB860623464FF6FF77DFF84480BB42F6
:10AC28001CBF30F81630013618F804504B55013562
:10AC3800C3F3072C01F805C0002B08BF3B460134BD
:10AC48000C2CECD94FF6FF74A34202D030F8163022
:10AC58000BB942F040020A70BDE8F001704700BF2E
:10AC68001C800108F0B583B0064617461C460B2227
:10AC7800FFF778FF052C13D816E0023711460CE0D1
:10AC880003F0010505EB44045B0814F4803F1CBF86
:10AC980084F4883484F0210401310F29F0D900E0CC
:10ACA80000223B88002BE8D1072100E0114604F080
:10ACB8000F0202F13003392B88BF02F137034A1E15
:10ACC80002A8084400F8083C2409EFD17E2002AB12
:10ACD800134403F8080C0023881E07E07F31C9B22B
:10ACE8007D2902D8984206D001330133934202D21B
:10ACF800F15C2029F2D12024591C3344072A05D8B5
:10AD080002A8104410F8080C013200E02046187020
:10AD18000B460729F0D903B0F0BD00BF0B22002372
:10AD2800D90141EA530301780B4403F0FF030130D2
:10AD3800013AF5D11846704710B4046824B94FF0A9
:10AD4800FF3323E0013200E022461378D9B21F29ED
:10AD580002D959B23A29F5D15BB23A2B15D1611C07
:10AD680094F90030303B092B06D8914207D1012BCA
:10AD780008D80132026009E04FF0FF3306E04FF0D7
:10AD8800FF3303E04FF0FF3300E0002318465DF87F
:10AD9800044B70472DE9F0410446037913B3C56AA3
:10ADA80000F13007407839462A460123FFF7E2F9D7
:10ADB800D8B900232371236AEA1AA3699A4217D2E1
:10ADC800E6784FF0010808E0A26915446078394632
:10ADD8002A464346FFF7CEF9013E012EF4D800205B
:10ADE800BDE8F0810020BDE8F0810120BDE8F081D8
:10ADF8000020BDE8F08100BF70B504460D46C36A67
:10AE08008B4212D0FFF7C6FF064678B9607804F186
:10AE180030012A460123FFF791F9002818BF0126BF
:10AE280018BF4FF0FF35E56200E00026304670BDE0
:10AE380010B50446002303714FF0FF33C362FFF7D8
:10AE4800DBFF58BB94F82F2294F82E3243EA0222F3
:10AE580012B2154B9A4223D194F8692094F86830BD
:10AE68001B0443EA026394F8672043EA022294F839
:10AE780066301A4322F07F420C4B9A4212D094F863
:10AE880084301B0494F8830094F8822043EA00235A
:10AE980013430648181A18BF012010BD032010BD1F
:10AEA800022010BD002010BD55AAFFFF46415400E6
:10AEB80008B588B103688BB1197889B1D9888288B7
:10AEC80091420FD15878FFF737F900F001000028B8
:10AED8000CBF0020032008BD092008BD092008BDBB
:10AEE800092008BD092008BD2DE9F04184B00546B8
:10AEF8001746002303600846FFF71EFF061EC0F230
:10AF08009781894B53F82640002C00F093812C60E0
:10AF1800237883B16078FFF70FF910F0010F0AD199
:10AF2800002F00F0898100F00400C0B2002814BF8F
:10AF38000A2000209FE1002323707C4B13F81600A1
:10AF48006070FFF7F7F810F0010F40F077811FB13C
:10AF580010F0040F40F0748120460021FFF768FFCD
:10AF6800012822D0002844D1704B03EB46035B78BC
:10AF7800EBB900273EE004EB031292F8F21102F558
:10AF8800F77251B1D07A917A090441EA0061507A96
:10AF980041EA0021127A114300E0294604A800EB97
:10AFA800830242F8101C013303E0002300E0002371
:10AFB8000025032BDFD95D4B03EB46035D7805B114
:10AFC800013D4FF00208594B03EB460604AA02EB79
:10AFD800850353F8107C27B120463946FFF728FF30
:10AFE80000E0404673782BB920B10135032DEDD927
:10AFF80000E00027032800F02581002840F0248184
:10B0080094F83C2094F83B3043EA02231BB2B3F592
:10B01800007F40F01B8194F8472094F8463053EAAB
:10B0280002230DD194F8572094F856301B0443EAB4
:10B03800026394F8552043EA022294F854301343EB
:10B04800A36194F84020E270511EC9B2012900F2B0
:10B05800FF8003FB02FC94F83D00A070002800F07C
:10B06800F980421E104240F0F78094F8421094F89C
:10B07800412042EA0121218111F00F0F40F0EE80BA
:10B0880094F8445094F8432052EA05250DD194F8D9
:10B09800535094F85220120442EA056294F8515031
:10B0A80042EA052594F85020154394F83F8094F817
:10B0B8003E2052EA082800F0D38008EB0C0606EB85
:10B0C8001116B542C0F0CE80AD1BB5FBF0F00028DC
:10B0D80000F0CA8040F6F575A8428CBF022501250C
:10B0E8004FF6F572904288BF0325821C6261E761C2
:10B0F80007EB080020623E44A662032D18D1002900
:10B1080040F0B48094F85F0094F85E10090441EAB6
:10B11800006194F85D0041EA002094F85C10014356
:10B128006162920012E000BF30020020400000205F
:10B13800002900F09D8060446062022D0FBF52001C
:10B1480002EB420102F0010202EB510202F2FF128D
:10B15800B3EB522FC0F08E804FF0FF332361E360D2
:10B1680080236371032D5AD194F8612094F86030DC
:10B1780043EA02231BB2012B51D12046791CFFF769
:10B188003BFE00284BD10023637194F82F2294F8DA
:10B198002E3243EA022212B2384B9A423FD194F837
:10B1A800332094F832301B0443EA026394F83120C8
:10B1B80043EA022294F830301A43314B9A422ED196
:10B1C80094F8172294F816321B0443EA026394F8A1
:10B1D800152243EA022294F814321A43294B9A4260
:10B1E8001DD194F81B2294F81A321B0443EA026317
:10B1F80094F8192243EA022294F81832134323617F
:10B2080094F81F2294F81E321B0443EA026394F850
:10B218001D2243EA022294F81C321343E36025708E
:10B22800194A138801339BB21380E380002022E07F
:10B238000B2020E00C201EE000201CE003201AE078
:10B248000A2018E0012016E00D2014E00D2012E07D
:10B258000D2010E00D200EE00D200CE00D200AE07E
:10B268000D2008E00D2006E00D2004E00D2002E08E
:10B278000D2000E00D2004B0BDE8F08155AAFFFFC5
:10B2880052526141727241612E0200202DE9F04F45
:10B2980083B000908B460D6800E001352B785AB2D8
:10B2A8002F2AFAD05C2AF8D00099D1F81C80002403
:10B2B80026464FF00109DFF850A2731CA85780B248
:10B2C8001F2837D92F2835D05C2833D0FE2C00F220
:10B2D8000C81C0B200F17F02D2B27D2A15D85E1C63
:10B2E800EB5CA3F14102D2B2192A0AD9A3F1610297
:10B2F800D2B2192A05D903F17F02D2B27D2A00F20F
:10B30800F68003EB002080B200E01E46494601F0BB
:10B318002BFC0746002800F0EC807F2806D8504612
:10B328003946FFF745FC002840F0E58028F81470FE
:10B338000134C2E72B44CBF800301F288CBF00260D
:10B3480004266FF0004207E0A31838F81330202BCA
:10B3580001D02E2B02D1013C002CF5D1002C00F09D
:10B36800CC80002528F81450009A906920210B22DF
:10B37800FFF702FC2B4600E0013338F81320202A9F
:10B38800FAD02E2AF8D023B146F0030601E0013C9A
:10B3980001E06FF0004154B1621838F812202E2AEB
:10B3A800F5D14FF008094FF0000AD34604E04FF0FA
:10B3B80008094FF0000AD34601945F1C38F813506F
:10B3C800002D67D0202D03D02E2D05D1A74203D004
:10B3D80046F003063B46F0E7CA4501D2A74215D11D
:10B3E800B9F10B0F02D146F0030653E0A74218BF8C
:10B3F80046F00306A7424DD84FEA8B0B5FFA8BFB4A
:10B40800019B4FF00B094FF0080AD6E77F2D08D9AA
:10B41800284601F0C5FB002101F0A6FB054646F0D1
:10B428000206FF2D11D909F1FF33534504D846F020
:10B4380003063B46CA46C0E7009B9A690AF1010326
:10B44800C5F3072102F80A101DE025B12D48294649
:10B45800FFF7AEFB20B146F0030653465F2512E026
:10B46800A5F141039BB2192B03D84BF0020B5346AD
:10B4780009E0A5F161039BB2192B9EBF4BF0010BAC
:10B48800203DADB2534600998A6903F1010AD554AB
:10B498003B4692E7009A93691A78E52A04BF052289
:10B4A8001A70B9F1080F04BF4FEA8B0B5FFA8BFBD8
:10B4B8000BF00C030C2B03D00BF00302032A01D171
:10B4C80046F0020616F0020F0AD10BF0030BBBF18F
:10B4D800010F08BF46F01006042B08BF46F0080607
:10B4E80000998B69DE72002008E0062006E006203D
:10B4F80004E0062002E0062000E0062003B0BDE8D4
:10B50800F08F00BF507F0108447F01082DE9F84FF4
:10B5180082460D460F7827F04007013F07EB4703A7
:10B5280007EB830701260024DFF874804FF6FF79C4
:10B5380018F804305A1CA85CEB5C43EA002076B18A
:10B5480001F02EFB0646FE2F1BD807F1010B3AF837
:10B55800170001F025FBB04216D15F4601E04845CF
:10B5680015D101340C2CE3D92B7813F0400F11D0EE
:10B578009EB13AF81700D0F1010038BF0020BDE8AD
:10B58800F88F0020BDE8F88F0020BDE8F88F002074
:10B59800BDE8F88F0120BDE8F88F0120BDE8F88FDD
:10B5A8001C80010870B50546FFF7F4FB0446002827
:10B5B80055D12B78032B4AD16B79012B47D105F153
:10B5C8003006304600214FF40072FFF7D5FA5523B4
:10B5D80085F82E32AA2385F82F32522385F8303089
:10B5E80085F83130612385F83230412285F83320DF
:10B5F800722185F8141285F8151285F8162285F837
:10B6080017322B6985F81832C3F3072285F81922F7
:10B61800C3F3074285F81A221B0E85F81B32EB6824
:10B6280085F81C32C3F3072285F81D22C3F30742AD
:10B6380085F81E221B0E85F81F32EA690132EA627C
:10B64800687831460123FEF795FD00236B71687811
:10B6580000210A46FEF7B4FD002818BF0124204641
:10B6680070BD00BF02394369023B8B4283BF8278B9
:10B67800836A01FB02300020704700BFF8B5054619
:10B688000C4601295AD943698B4259D90378022BB0
:10B6980028D0032B37D0012B54D101EB5106016A76
:10B6A80001EB5621FFF7A8FB00284DD1771CC6F304
:10B6B80008062E4496F83060296A284601EB57217F
:10B6C800FFF79AFB002842D1C7F308073D4495F8D5
:10B6D800300046EA002014F0010F14BF0009C0F33F
:10B6E8000B00F8BD016A01EB1421FFF785FB88BB4D
:10B6F800640004F4FF742B1993F8310093F8303088
:10B7080043EA0020F8BD016A01EBD411FFF774FB8E
:10B7180018BBA40004F4FE7404F130032B44D87859
:10B728009A78120442EA0062587842EA00202C44CF
:10B7380094F83030184320F07040F8BD0120F8BD6F
:10B748000120F8BD0120F8BD4FF0FF30F8BD4FF0E3
:10B75800FF30F8BD4FF0FF30F8BD4FF0FF30F8BDB7
:10B76800F8B505460E46E9808468012C34D0036894
:10B778005A69A24232D91CB91A78032A08BF5C6AEE
:10B7880024B91A89B2422BD9586A17E09F783F0129
:10B798000EE028682146FFF771FF0446B0F1FF3F2D
:10B7A80020D0012820D92B685B6983421ED9F61B5B
:10B7B800BE42EED228682146FFF754FFEC60B8B1CC
:10B7C80000EB161028612B6806F00F0603EB4613F2
:10B7D80030336B610020F8BD0220F8BD0220F8BDAF
:10B7E8000220F8BD0120F8BD0220F8BD0220F8BDF6
:10B7F8000220F8BD2DE9F04105460C461646012900
:10B808007CD943698B427BD90378022B42D0032B26
:10B8180054D0012B76D101EB5107016A01EB572176
:10B82800FFF7EAFA034600286DD107F10108C7F3CC
:10B83800080714F0010409D0EB1993F83020F3B28B
:10B8480002F00F0242EA0313DBB200E0F3B22F4426
:10B8580087F8303001232B71296A284601EB5821DB
:10B86800FFF7CAFA034600284DD1C8F3080814B1F7
:10B87800C6F3071608E005EB080292F8302022F01C
:10B888000F02C6F303261643A84488F83060012245
:10B898002A7138E0016A01EB1421FFF7ADFA03467B
:10B8A80088BB640004F4FF742A1982F83060C6F378
:10B8B800072682F8316001222A7124E0016A01EB2F
:10B8C800D411FFF799FA0346E8B9A40004F4FE740A
:10B8D80004F130022A44D17809062C4401F0704161
:10B8E8000E4384F83060C6F307215170C6F3074150
:10B8F8009170360ED67001222A7104E0022302E00C
:10B90800022300E002231846BDE8F0812DE9F0414A
:10B918000546884631B9C66886B14369B34298BFBF
:10B9280001260CE0FFF7AAFE012844D9B0F1FF3F39
:10B938004CD06B69834249D8464600E0012634461C
:10B94800022701346B69A34202D8012E36D93C463E
:10B9580028462146FFF792FE38B1B0F1FF3F30D0BC
:10B96800012830D0B442ECD12FE0284621466FF0B0
:10B978007042FFF73FFF034640B9B8F1000F05D00A
:10B98800284641462246FFF735FF03465BB9EC607F
:10B998002B69B3F1FF3F0BD0013B2B616B7943F06F
:10B9A80001036B7104E0012B14BF01244FF0FF3435
:10B9B8002046BDE8F0810120BDE8F0810020BDE807
:10B9C800F081BDE8F081BDE8F0810020BDE8F0819C
:10B9D8002DE9F84304460E46C5880135ABB2002B65
:10B9E80066D00369002B66D015F00F0757D10133D5
:10B9F8000361C16821B903681B89AB425ED94EE077
:10BA080000688378013B13EA151348D1FFF736FE27
:10BA18008046012855D9B0F1FF3F55D020684369C9
:10BA2800434535D8002E52D0E168FFF76FFF8046B6
:10BA380000284FD0012850D0B0F1FF3F50D02068E7
:10BA4800FFF7A8F900284ED12068303000214FF4C4
:10BA58000072FFF791F8266830464146FFF702FE6C
:10BA6800F06200264FF001090BE083F8049020688B
:10BA7800FFF790F9002839D12368DA6A0132DA62CF
:10BA8800013623689A78B242EFD8DA6A921BDA62F2
:10BA9800C4F80C8020684146FFF7E4FD2061E5808A
:10BAA800236803EB4713303363610020BDE8F88354
:10BAB8000420BDE8F8830420BDE8F8830420BDE82D
:10BAC800F8830220BDE8F8830120BDE8F88304204C
:10BAD800BDE8F8830720BDE8F8830220BDE8F883B5
:10BAE8000120BDE8F8830120BDE8F8830120BDE806
:10BAF800F88300BF2DE9F84F04460021FFF730FE18
:10BB0800002861D14FF6FF7323844FF0FF0A574690
:10BB18009946D0464FF00B0B20682169FFF76CF966
:10BB2800064600284DD165692B78002B48D0EA7A63
:10BB380002F03F01E52B04D012F0080F05D00F29C1
:10BB480003D0A4F82090474632E00F291DD1E069C0
:10BB580070B313F0400F06D095F80DA003F0BF03A3
:10BB6800E28822841F46BB4209D16B7B534508D12A
:10BB78002946FFF7CBFC30B1013FFFB218E047463A
:10BB880016E0474614E0474612E027B92846FFF773
:10BB9800C5F8504515D0A169CB7A13F0010F04D12F
:10BBA80028465A46FEF7F2FF58B1A4F820904746B7
:10BBB80020460021FFF70CFF06460028ACD000E025
:10BBC80004263046BDE8F88FBDE8F88F10B582B07E
:10BBD800044601910B785AB22F2A01D05C2A01D170
:10BBE800013101910023A360019B1B781F2B07D80B
:10BBF80020460021FFF7B4FD03460022626123E0DE
:10BC0800204601A9FFF742FB0346E8B92046FFF7A3
:10BC180071FFA369DA7A034640B1042814D102F00F
:10BC28000402D2B2002A08BF05230DE012F0040F67
:10BC38000AD16169CB7A13F0100F04D02068FEF79F
:10BC4800C1FFA060DCE70523184602B010BD00BFA5
:10BC58002DE9F04104460F460021FFF781FD024619
:10BC6800C8B90025A846012620682169FFF7C4F84D
:10BC7800024680B963691B78E52B00D01BB90135F2
:10BC8800BD4201D107E0454620463146FFF7A0FEF8
:10BC980002460028E8D0042A14BF10460720BDE851
:10BCA800F08100BF2DE9F04385B005468769C66974
:10BCB80001A839460C22FEF755FF9DF80F3013F006
:10BCC800010F1BD00023FB72EB6101240BE0384607
:10BCD80001A932462346FEF7C5FF2846FFF70AFFAB
:10BCE800804610B90134632CF1D9642C63D0B8F1C3
:10BCF800040F62D19DF80F30FB72EE619DF80F3092
:10BD080013F0020F03D101260CE0013300E00023F9
:10BD180036F81320002AF8D103F11906294AA2FBA4
:10BD28000636B60828463146FFF792FF044630BB70
:10BD3800013E24D0E9882846891BFFF711FD0446F7
:10BD4800E8B9A869FEF7EAFF81464FF00108002725
:10BD580028682969FFF750F8044680B9E8696969D5
:10BD6800F2B24B46FEF748FF2A6882F8048028465C
:10BD78003946FFF72DFE044608B9013EE8D1C4B99B
:10BD880028682969FFF738F8044690B968690021DE
:10BD98002022FEF7F1FE6869A9690B22FEF7E2FE90
:10BDA8006B69AA69D27A02F018021A732B68012209
:10BDB8001A71204602E0072000E0404605B0BDE8C1
:10BDC800F08300BF4FECC44E2DE9F04104460D4608
:10BDD800012926D943698B4225D90027B8461CE09A
:10BDE80020462946FFF74AFC064608B301281CD01E
:10BDF800B0F1FF3F1BD0204629464246FFF7FAFC28
:10BE08000746A8B92369B3F1FF3F05D00133236181
:10BE1800637943F00103637135466369AB42DFD848
:10BE280006E0022704E0022702E0022700E00127DB
:10BE38003846BDE8F08100BF10B584B0019000918C
:10BE4800144604A840F8041DFEF776FF002816DB08
:10BE58000E4B53F820300BB100221A70019B0BB126
:10BE680000221A70019B094A42F820304BB1012C7C
:10BE780009D101A869460022FFF736F804E00B2033
:10BE880002E0002000E0002004B010BD30020020D5
:10BE98002DE9F043ADF50F7D0191154604460028C4
:10BEA80000F0A4800023036002F01F0885A801A900
:10BEB80002F01E02FFF718F80646002840F09480AA
:10BEC80082AB8B9302AB8C9385A80199FFF77EFE1A
:10BED8008A9F064610B9002F08BF062615F01C0FCA
:10BEE8004AD04EB1042E03D185A8FFF7DBFE0646E3
:10BEF80048F008088A9F0BE0FB7A13F0110F06D16F
:10BF080005F00405EDB2002D18BF082600E007264D
:10BF1800002E40D118F0080F3DD0FEF795F9B87300
:10BF2800C0F30723FB73C0F307433B74000E787418
:10BF38000025FD723D777D77BD77FD778598394679
:10BF4800FEF740FE814638462946FEF74BFE8598A7
:10BF580001220271B9F1000F1DD0C56A4946FFF7E9
:10BF680033FF0646B8B9859809F1FF33C3602946FF
:10BF7800FEF742FF06460EE06EB9FB7A13F0100F8B
:10BF880008D115F0020F06D003F00103002B18BFEB
:10BF9800072600E0042646B918F0080F18BF48F035
:10BFA8002008859BDB6AE3612762EEB984F8068086
:10BFB8004FF0000884F80780859D28463946FEF72B
:10BFC80001FE2061FA7FBB7F1B0443EA02637A7F8C
:10BFD80043EA02233A7F1343E360C4F80880C4F8B5
:10BFE80018802560EB88A380304600E009200DF515
:10BFF8000F7DBDE8F08300BF2DE9F04F83B0044604
:10C008000F4690461E4600233360FEF751FF002876
:10C0180040F0A780E079002840F0A580A37913F0CC
:10C02800010F00F09F80A368E568ED1A454528BF19
:10C03800454604F1240301938EE0A368C3F3080284
:10C04800002A72D1206890F802A00AF1FF3A5FFA3C
:10C058008AFA1AEA532A11D10BB9206902E06169F8
:10C06800FFF70CFB012802D80220E0717BE0B0F159
:10C07800FF3F02D10120E07175E06061D4F80080D3
:10C0880040466169FFF7EEFA814610B90220E07177
:10C0980069E0D1445FEA552B25D00AEB0B0298F8EA
:10C0A80002309A4288BFCAEB030B98F80100394660
:10C0B8004A465B46FEF742F810B10120E07152E0B3
:10C0C800A37913F0400F0BD0A369C9EB03005845BF
:10C0D80006D207EB402001994FF40072FEF742FDAB
:10C0E8004FEA4B2B2FE0A2694A451CD0A37913F0E5
:10C0F800400F0DD098F8010001990123FEF73AF896
:10C1080010B10120E0712EE0A37923F04003A37160
:10C118002368587801994A460123FEF70FF810B1B1
:10C128000120E0711FE0C4F81890A168C1F308016C
:10C13800C1F5007BAB4528BFAB46214438462431C6
:10C148005A46FEF70FFD5F44A3685B44A36033685B
:10C158005B443360CBEB0505002D7FF46EAF002008
:10C1680001E000E0072003B0BDE8F08F38B50446D1
:10C17800FEF79EFE0346002845D1A27912F0200F53
:10C1880041D012F0400F0DD0214651F8243B587889
:10C19800A2690123FDF7EEFF002836D1A37923F029
:10C1A8004003A3712068E169FEF726FE034650BBF1
:10C1B800256AEB7A43F02003EB72237B2B77A38964
:10C1C8001B0A6B77A37BAB77E37BEB772846216968
:10C1D800FEF708FDFEF738F8A875C0F30723EB75DE
:10C1E800C0F307432B76000E68760023AB74EB741C
:10C1F800A37923F02003A371236801221A71206810
:10C20800FFF7D0F90346184638BD012038BD00BFF6
:10C2180010B50446FFF7AAFF034630B92046FEF7DB
:10C2280047FE034608B900222260184610BD00BF29
:10C23800F8B504460D46FEF73BFE0746002840F0D9
:10C24800A580E079002840F0A180E368AB4206D2DF
:10C25800A27902F00202D2B2002A08BF1D46A268E3
:10C268000023A360002D5CD02068867876026AB12E
:10C27800691EB1FBF6F1013AB2FBF6F3994205D318
:10C2880073421A40A260AD1A616911E0216971B95F
:10C29800FFF73CFB0146012802D10220E071F8BDFE
:10C2A800B0F1FF3F02D10120E071F8BD206161616A
:10C2B80019BB002538E0A27912F0020F05D02068DA
:10C2C800FFF724FB014620B91AE02068FFF7D6F9EA
:10C2D8000146B1F1FF3F02D10120E071F8BD01290B
:10C2E80003D9226852698A4202D80220E071F8BD57
:10C2F8006161A2683244A260AD1BB542DBD800E0A0
:10C308003546A2682A44A260C5F308025AB12068DB
:10C31800FFF7A8F910B90220E071F8BD00EB552528
:10C3280002E0002500E00025A368C3F3080313B367
:10C33800A269AA421FD0A37913F0400F0ED021465C
:10C3480051F8243B58780123FDF714FF10B1012060
:10C35800E071F8BDA37923F04003A371214651F899
:10C36800243B58782A460123FDF7E8FE10B1012046
:10C37800E071F8BDA561A368E268934204D9E3605F
:10C38800A37943F02003A3713846F8BDF8BD00BF78
:10C398002DE9F04F83B002AB43F8040D8A461446EA
:10C3A800104619460022FEF79FFD256880460028A2
:10C3B8005FD12B696C69A21E934202D8CAF800307B
:10C3C80057E02F78012F11D1022400262846214654
:10C3D800FFF754F9B0F1FF3F3FD0012840D000B932
:10C3E800013601346B699C42F0D33BE0296A002393
:10C3F8001A461E464FF4007B52B901F1010928463E
:10C40800FEF7FAFC804668BB05F1300349465A46F8
:10C41800022F09D193F801C0187850EA0C2008BF00
:10C4280001360233023A15E093F803C09878000405
:10C4380040EA0C6093F801C040EA0C2093F800C071
:10C4480020F0704020F0FF0050EA0C0008BF0136D1
:10C458000433043A013CCFD104E04FF0010801E075
:10C468004FF002082E616B7943F001036B71CAF833
:10C478000060404603B0BDE8F08F00BF2DE9F04FE3
:10C488008DB009900C461546012988BF132000F28B
:10C49800688309A8FEF750FC0028C0F23683BE4B1B
:10C4A80053F82060002E00F03B8300233370BB4B11
:10C4B80013F8107003EB400393F801803846FDF73A
:10C4C80039FE10F0010F40F02D8310F0040F40F0FA
:10C4D8002B83B8F1000F34D0384606F13001002222
:10C4E8000123FDF72BFE002840F0208396F82F2229
:10C4F80096F82E3243EA022212B2A94B9A4240F031
:10C50800178306EB081393F8E22103F5EF73002A6B
:10C5180000F01083D97A9A7A120442EA0162597AB1
:10C5280042EA01211A7A41EA020AD97B9A7B12046B
:10C5380042EA0162597B42EA01221B7B13430A93B8
:10C5480014E0384601210AAAFDF73AFE002840F017
:10C55800F3820A9B7F2B40F2F182002C0CBF4FF034
:10C568003F0A4FF0000ACAEB03030A936B1E2B42E3
:10C5780018BF00257DB94FF4FA600A9BB3FBF0F0B1
:10C588000023884900E0013331F813208242FAD8A9
:10C59800854A32F81350B5F5007F28BF6D0A002D83
:10C5A80008BF0125812D28BF80250A9AB2FBF5F323
:10C5B80040F6F5794B458CBF4FF002094FF0010961
:10C5C8004FF6F5718B4288BF4FF00309B9F1030F9D
:10C5D80009D19B0003F207235B0A01930021049110
:10C5E8002023029312E0B9F1010F05D103EB4303B5
:10C5F80001335B08033301E002335B0003F2FF13EE
:10C608005B0A01932021049101230293029951446A
:10C6180003918B46019B9B4404998B440BEB0503C8
:10C62800CAEB03039A42C0F08B82384603210BAA57
:10C63800FDF7C6FD20B90B9B13B1B3F5004F01D927
:10C6480001230B930B9B0BEB0302013A5B42134054
:10C65800CBEB03030B93B9F1030F06D1029A1A44EB
:10C66800029203991944039102E0019A1A44019233
:10C678000A9B02995A1A0199521A0499521AB2FB42
:10C68800F5F20592B9F1020F05D140F6F572059958
:10C69800914240F25782B9F1030F05D14FF6F57276
:10C6A8000599914240F25082B9F1030F0DD0B9F1CA
:10C6B800010F02D1B3F5803F0AD3B3F5803F2CBFF9
:10C6C8004FF0060B4FF0040B04E04FF00C0B01E0A9
:10C6D8004FF0010BB8F1000F10D006EB081888F8DE
:10C6E800E2B1384606F1300100220123FDF742FD90
:10C6F800002840F02B824FF0F80859E0002C55D163
:10C7080006F13004204600214FF40072FEF734FA97
:10C71800012386F8EF3186F8F031002286F8F121FE
:10C7280086F8F2B1FE2186F8F3110A990AEB010E98
:10C7380043F6C160BEFBF0F00B904FEA900E4EF04E
:10C748003F0E86F8F4E186F8F5013F2086F8F601F9
:10C7580086F8F72186F8F82186F8F92186F8FA1183
:10C76800C1F3072086F8FB01C1F3074086F8FC01F6
:10C77800090E86F8FD11552186F82E12AA2186F891
:10C788002F1238462146FDF7F5FC002840F0E081DD
:10C798004FF0F8080CE000BF3002002040000020F5
:10C7A80055AAFFFF2C7F01082C8001084FF0F008E4
:10C7B80006F1300B584600214FF40072FEF7DCF901
:10C7C8005846D3490B22FEF7CDF9002386F83B30B3
:10C7D800022386F83C3086F83D50029A86F83E20BF
:10C7E800C2F3072386F83F30012386F84030B9F1B9
:10C7F800030F4FF0000386F8413018BF022386F874
:10C8080042300A9BB3F5803F06D286F84330C3F323
:10C81800072386F844300CE086F85030C3F307222B
:10C8280086F85120C3F3074286F852201B0E86F87B
:10C83800533086F845803F2386F84830002386F831
:10C848004930FF2286F84A2086F84B3086F84CA0FB
:10C85800CAF3072386F84D30CAF3074386F84E30EB
:10C868004FEA1A6386F84F30FDF7EEFC0B90B9F1EA
:10C87800030F3CD186F87300C0F3072386F87430A1
:10C88800C0F3074386F87530000E86F87600019BE2
:10C8980086F854301946C3F3072386F85530C1F398
:10C8A800074386F856300B0E86F85730022386F871
:10C8B8005C30002386F85D3086F85E3086F85F309D
:10C8C800012286F8602086F86130062286F8622008
:10C8D80086F86330802386F87030292386F8723012
:10C8E80006F177008B491322FEF73CF91FE086F822
:10C8F8005700C0F3072386F85830C0F3074386F87B
:10C908005930000E86F85A00019A86F84620C2F37C
:10C91800072386F84730802386F85430292386F881
:10C92800563006F15B007C491322FEF71BF95523AC
:10C9380086F82E32AA2386F82F32384659465246B0
:10C948000123FDF717FC002840F00481B9F1030F1B
:10C9580006D1384659460AF106020123FDF70AFCBA
:10C968000023029368F0FF010691CAB20792089566
:10C97800039D62E0584600214FF40072FEF7FCF870
:10C98800B9F1030F13D0B9F1010F644A18BF6FF062
:10C99800FF0242EA08030B9386F83030FF2286F83C
:10C9A800312086F832201B0E86F833301CE0069BB7
:10C9B8000B93079986F83010FF2386F8313086F8F4
:10C9C800323086F8333086F8343086F8353086F8D9
:10C9D800363086F8373086F8383086F8393086F8B9
:10C9E8003A300F2386F83B306C1C384659462A46A5
:10C9F8000123FDF7BFFB002840F0AE805846002118
:10CA08004FF40072FEF7B8F801230B9322460CE0AE
:10CA1800541C384659460123FDF7ACFB002840F06A
:10CA28009D800B9B01330B9322460B9B01998B42F4
:10CA3800EED31546029A01320292029B002B99D03E
:10CA48000395089D0499B9F1030F08BF294604917D
:10CA58000124039A0D4602F1010838465946234637
:10CA6800FDF788FB00287BD14246013DF3D1B9F19F
:10CA7800030F41D1522386F8303086F831306123D4
:10CA880086F83230412286F83320722186F8141253
:10CA980086F8151286F8162286F81732059A531E5C
:10CAA80086F81832C3F3072386F81932531EC3F3E6
:10CAB800074286F81A221B0E86F81B32022386F8D4
:10CAC8001C32002386F81D3286F81E3286F81F3283
