:020000040800F2
:1000000000C0002019020008210200082502000893
:10001000290200082D02000831020008000000003B
:100020000000000000000000000000003502000891
:1000300039020008000000003D02000841020008EB
:100040004502000845020008450200084502000874
:100050004502000845020008450200084502000864
:100060004502000845020008450200084502000854
:100070004502000845020008450200084502000844
:100080004502000845020008450200084502000834
:100090004502000845020008450200084502000824
:1000A0004502000845020008450200084502000814
:1000B00045290008450200084502000845020008DD
:1000C00045020008450200084502000845020008F4
:1000D00045020008752B000845020008450200088B
:1000E0004502000845020008450200080000000023
:1000F0000000000000000000000000000000000000
:1001000000000000000000005FF808F100B583B0B7
:10011000304B314A1360314A1360314B3149002270
:1001200001E01A6004338B42FBD32B4B1B6813B9DD
:100130002A4B1B6803B1FEE7264B2B4A13602B4A60
:1001400013602B4B2B4A2C4803E0116819600433D1
:1001500004328342F9D3244B1A68284B9A4204D1C3
:10016000224B1A681B689A4200D0FEE701F098FE05
:1001700001A8694601F058FE214B224EF61AB6102E
:1001800000241D4603E055F8243098470134A64268
:10019000F9DC1D4B1D4EF61AB61000241D4603E077
:1001A00055F8243098470134A642F9DC01980099AB
:1001B00004F006FE0546164B164CE41AA4101E4623
:1001C00003E0013C56F824309847002CF9DC28461F
:1001D00001F002FEBABADECAC400002000120020FC
:1001E000C40000200412002000000020C0000020F5
:1001F0000000002018630008C40000207856341264
:1002000048020008480200084802000848020008A6
:10021000480200084802000808B5FFF777FF00BF52
:10022000FEE700BFFEE700BFFEE700BFFEE700BF3E
:10023000FEE700BFFEE700BFFEE700BFFEE700BF2E
:08024000FEE700BFFEE700BF6E
:1002480010B50446C378012B03D92048752101F065
:100258001FFE63780F2B03D91C48762101F018FE86
:10026800A3780F2B03D91948772101F011FEE37801
:1002780003B3174BDB68DB43C3F30223C3F1040268
:100288000F2121FA03F3617801FA02F2A1781940EB
:10029800114309012278C9B20E4B1A4482F800139F
:1002A8002278510902F01F02012000FA02F243F8F5
:1002B800212010BD2378590903F01F03012202FAF7
:1002C80003F32031034A42F8213010BD805F000853
:1002D80000ED00E000E100E010B50446042806D077
:1002E80010F1050F03D00748D52101F0D1FD042CEA
:1002F800054B1A680CBF42F0040222F004021A608F
:1003080010BD00BF805F000810E000E010B5044693
:10031800022804D9054840F2031101F0B9FD044B45
:100328001A6802F0380214431C6010BDA85F000868
:100338000020024010B50446102805D020B1074817
:1003480040F22F1101F0A4FD054B1A6822F01002AB
:100358001A601A6814431C6010BD00BFA85F00082B
:1003680000200240034B044A5A6002F188325A6066
:10037800704700BF0020024023016745024B1A69FD
:1003880042F080021A6170470020024010B504460E
:1003980030F0350300D120B9034840F2CC5101F0C8
:1003A80077FD024BDC6010BDA85F0008002002400A
:1003B8000B4BDB6813F0010F0DD1094BDB6813F011
:1003C800040F0AD1064BDB6803F01003002B0CBFA7
:1003D800042003207047012070470220704700BFA7
:1003E8000020024010B50446FFF7E2FF02E0FFF7E5
:1003F800DFFF013C012801D1002CF8D1002C08BFF7
:10040800052010BD38B5044600F17842114B9A42D8
:1004180004D9114840F2A71101F03AFD4FF43020F9
:10042800FFF7E0FF042813D10C4D2B6943F00203BA
:100438002B616C612B6943F040032B614FF4302032
:10044800FFF7D0FF2B6923F00203DB04DB0C2B61E1
:1004580038BD00BFFEFF0F00A85F00080020024063
:1004680030B583B004460D460023019300F178426D
:100478001A4B9A4204D91A4840F2B52101F008FDF6
:100488004FF40050FFF7AEFF042824D1154B1A692A
:1004980042F001021A61ABB223804FF40050FFF71B
:1004A800A1FF042810D102340194019B2D0C1D805A
:1004B8004FF40050FFF796FF0A4B1A6922F0010229
:1004C800D204D20C1A6106E0064B1A6922F0010226
:1004D800D204D20C1A6103B030BD00BFFEFF0F007A
:1004E800A85F0008002002402DE9F04105460C46AF
:1004F800494B98421BD003F58063984217D003F507
:100508008063984213D003F5806398420FD003F5B7
:10051800806398420BD003F58063984207D003F5B7
:100528008063984203D03D48B22101F0B1FCE378E2
:100538008BB1042B0FD0282B0DD0482B0BD0142BAC
:1005480009D0102B07D01C2B05D0182B03D033480B
:10055800B32101F09DFC23881BB93048B42101F078
:1005680097FCE37803F00F073E4613F0100F0AD00C
:10057800A378013BDBB2022B03D92848BB2101F049
:1005880087FCA6783E432378FBB12F68002301201F
:100598004FF00F0C16E000FA03F221881140914247
:1005A8000FD199000CFA01F827EA080706FA01F1B9
:1005B8000F43E178282901D16A6102E0482908BF80
:1005C8002A610133072BE6D92F602388FF2B21D915
:1005D8006F68002301204FF00F0C18E003F10802A8
:1005E80000FA02F22188114091420FD199000CFAC9
:1005F80001F827EA080706FA01F10F43E1782829EC
:1006080008BF6A61E178482908BF2A610133072BCE
:10061800E4D96F60BDE8F08100080140DC5F0008A4
:1006280038B504460D462A4B98421CD003F5806322
:10063800984218D003F58063984214D003F580637C
:10064800984210D003F5806398420CD003F580637C
:10065800984208D003F58063984204D01D484FF4AF
:100668008F7101F015FC6B1E9BB2012B28D9042D4C
:1006780026D0082D24D0102D22D0202D20D0402D7A
:100688001ED0802D1CD0B5F5807F19D0B5F5007F20
:1006980016D0B5F5806F13D0B5F5006F10D0B5F54D
:1006A800805F0DD0B5F5005F0AD0B5F5804F07D053
:1006B800B5F5004F04D0074840F21F1101F0E8FBE0
:1006C800A36803EA0500003018BF012038BD00BF49
:1006D80000080140DC5F000838B504460D46144B9D
:1006E80098421CD003F58063984218D003F58063C4
:1006F800984214D003F58063984210D003F58063C4
:1007080098420CD003F58063984208D003F58063C3
:10071800984204D0074840F2691101F0B9FB25B9A5
:1007280004484FF4B57101F0B3FB256138BD00BF33
:1007380000080140DC5F000838B504460D46144B3C
:1007480098421CD003F58063984218D003F5806363
:10075800984214D003F58063984210D003F5806363
:1007680098420CD003F58063984208D003F5806363
:10077800984204D0074840F2791101F089FB25B965
:1007880004484FF4BD7101F083FB656138BD00BFBB
:1007980000080140DC5F0008F0B587B004460D464C
:1007A800524B984207D003F58063984203D05048D3
:1007B800C62101F06DFB2B68013B4E4A934203D9D9
:1007C8004B48C72101F064FBAB883BB1022B05D035
:1007D8000A2B03D04648C82101F05AFBEB88B3F531
:1007E800804F07D04BF6FF72934203D04048C9218F
:1007F80001F04EFB2B89B3F5806F03D33C48CA2127
:1008080001F046FB6B89B3F5806F04D01BB1384803
:10081800CB2101F03DFBAB89B3F5804F06D0B3F592
:10082800404F03D03248CC2101F032FBA68826F095
:100838003F063604360C01A800F06EFB03992E48DB
:10084800A0FB0130800C87B23E43A680238823F0AA
:1008580001031B041B0C23802A68284B9A4209D8E1
:100868005300B1FBF3F39BB2032B98BF042301376A
:10087800278424E0EE884BF6FF739E4205D102EBF5
:100888004202B1FBF2F39BB208E002EB820202EBF8
:100898008202B1FBF2F39BB243F48043C3F30B0231
:1008A8000AB943F0010343F400434FF4967200FB86
:1008B80002F0134A82FB0010801101302084A383C8
:1008C80023889BB243F001032380228892B222F44A
:1008D800816222F00202A9886B890B4313432380AB
:1008E800AA892B891343238107B0F0BD0054004027
:1008F800106000087F1A060083DE1B43A0860100F3
:10090800D34D621038B504460D46104B984208D0B6
:1009180003F58063984204D00D484FF4A97101F0A3
:10092800B7FA012D04D90A4840F2531101F0B0FA80
:100938002DB123889BB243F00103238038BD23885F
:1009480023F001031B041B0C238038BD0054004016
:100958001060000838B504460D46104B984208D080
:1009680003F58063984204D00D484FF4CD7101F02F
:100978008FFA012D04D90A4840F29B1101F088FA38
:100988002DB123889BB243F48073238038BD23881C
:1009980023F480731B041B0C238038BD00540040D3
:1009A8001060000838B504460D46104B984208D030
:1009B80003F58063984204D00D484FF4D97101F0D3
:1009C80067FA012D04D90A4840F2B31101F060FA20
:1009D8002DB123889BB243F40073238038BD23884C
:1009E80023F400731B041B0C238038BD0054004003
:1009F8001060000838B504460D46104B984208D0E0
:100A080003F58063984204D00D484FF4E57101F076
:100A18003FFA012D04D90A4840F2CB1101F038FA07
:100A28002DB123889BB243F48063238038BD23888B
:100A380023F480631B041B0C238038BD0054004042
:100A48001060000838B504460D46074B984208D098
:100A580003F58063984204D0044840F2552101F020
:100A680017FA258238BD00BF005400401060000806
:100A780010B50446074B984208D003F580639842A6
:100A880004D0054840F2622101F002FA208AC0B27F
:100A980010BD00BF005400401060000870B5044647
:100AA8000E4615460D4B984208D003F580639842D0
:100AB80004D00B484FF41D7101F0EAF9012D04D957
:100AC800074840F2752101F0E3F915B146F0010637
:100AD80001E006F0FE06268270BD00BF005400400B
:100AE8001060000838B505460C462E4B984208D0D1
:100AF80003F58063984204D02B484FF4876101F0D6
:100B0800C7F92A4B9C4240D0B4F1021F3DD0284B74
:100B18009C423AD0B4F5020F37D0B4F5901F34D0C8
:100B2800244B9C4231D003F500039C422DD0A3F501
:100B3800E0039C4229D0204B9C4226D003F50003B9
:100B48009C4222D0A3F5E0039C421ED0102C1CD05E
:100B58001A4B9C4219D01A4B9C4216D0194B9C42F6
:100B680013D03E339C4210D0174B9C420DD0043B0F
:100B78009C420AD0154B9C4207D0B4F5806F04D034
:100B8800094840F2394101F083F9A88A80B22B8BD9
:100B980040EA0340204020F07F40A04214BF0020DC
:100BA800012038BD00540040106000088200060093
:100BB8008000860040000200840006000100030057
:100BC80082000700020003008400070008000300F9
:100BD80030B583B005460C46002301930093364B8D
:100BE800984208D003F58063984204D0334840F215
:100BF8009E4101F04DF9B4F5000F45D0B4F5800FD2
:100C080042D0B4F5001F3FD0B4F5801F3CD0B4F5F6
:100C1800802F39D0B4F5003F36D0B4F5803F33D0BB
:100C2800274B9C4230D0A3F580439C422CD0B4F192
:100C3800102F29D0A3F560539C4225D0A3F58063DB
:100C48009C4221D0A3F500739C421DD0A3F580736C
:100C58009C4219D0803B9C4216D0403B9C4213D00A
:100C6800303B9C4210D0083B9C420DD0043B9C4238
:100C78000AD0023B9C4207D0013B9C4204D00F485B
:100C880040F29F4101F004F90095230F019324F0ED
:100C98007F44019B1BB1009B1433009303E0240C99
:100CA800009B18330093009B1B6803EA0400003084
:100CB80018BF012003B030BD005400401060000888
:100CC800008000100D4B1A6842F001021A60596842
:100CD8000B4A0A405A601A6822F0847222F4803261
:100CE8001A601A6822F480221A605A6822F4FE02F6
:100CF8005A604FF41F029A60704700BF001002400C
:100D08000000FFF810B5044650B1B0F5803F07D099
:100D1800B0F5802F04D0104840F2111101F0B8F856
:100D28000E4B1A6822F480321A601A6822F4802264
:100D38001A60B4F5803F03D0B4F5802F06D010BDFB
:100D4800064B1A6842F480321A6010BD034B1A68C9
:100D580042F4A0221A6010BD406000080010024052
:100D680038B50C46054650B1B0F5803F07D0B0F510
:100D7800403F04D01E4840F27F1101F089F874B357
:100D8800B4F5802F2BD0B4F5002F28D0B4F5402F20
:100D980025D0B4F5801F22D0B4F5A01F1FD0B4F51C
:100DA800C01F1CD0B4F5E01F19D0B4F5001F16D031
:100DB800B4F5101F13D0B4F5201F10D0B4F5301FB0
:100DC8000DD0B4F5401F0AD0B4F5501F07D0B4F5C4
:100DD800601F04D006484FF4C07101F059F8054B64
:100DE8005A6822F47C122C4314435C6038BD00BF5F
:100DF800406000080010024010B50446012804D9DC
:100E080003484FF4CA7101F043F8024B1C6010BD4F
:100E1800406000086000424210B50446022804D928
:100E280005484FF40E7101F033F8044B5A6822F06C
:100E3800030214435C6010BD4060000800100240CB
:100E4800024B586800F00C00704700BF00100240C9
:100E580010B50446A0B1802812D0902810D0A02840
:100E68000ED0B0280CD0C0280AD0D02808D0E0284E
:100E780006D0F02804D006484FF4197101F008F89C
:100E8800044B5A6822F0F00214435C6010BD00BFA6
:100E9800406000080010024010B5044680B1B0F56B
:100EA800806F0DD0B0F5A06F0AD0B0F5C06F07D035
:100EB800B0F5E06F04D0064840F27E2100F0E8FF6C
:100EC800044B5A6822F4E06214435C6010BD00BF12
:100ED800406000080010024010B5044680B1B0F52B
:100EE800806F0DD0B0F5A06F0AD0B0F5C06F07D0F5
:100EF800B0F5E06F04D006484FF4267100F0C8FF43
:100F0800044B5A6822F4605242EAC4045C6010BD83
:100F1800406000080010024010B4284B5B6803F0E2
:100F28000C03042B05D0082B06D0F3B9244B03601F
:100F38001DE0244B03601AE0204B5A685B68C2F33B
:100F48008342023213F4803F04D11F4B03FB02F2A9
:100F580002600CE0194B5B6813F4003F14BF1B4B95
:100F6800184B03FB02F2026001E0154B0360134BC0
:100F78005A68C2F3031216498A5CD2B2046824FA8A
:100F880002F242605C68C4F302240C5DE4B222FA07
:100F980004F484605C68C4F3C224095DC9B2CA4021
:100FA800C2605B68C3F381330A49CB5CDBB2B2FB36
:100FB800F3F202615DF8044B704700BF0010024075
:100FC80000127A00001BB70000093D00808D5B000D
:100FD800080000200400002038B504460D460E4BDA
:100FE800034003B920B90D4840F24A4100F050FFD0
:100FF800012D04D9094840F24B4100F049FF25B1C1
:10100800074B9A6914439C6138BD054B9A6922EADB
:1010180004049C6138BD00BF0200C0FF40600008A6
:101028000010024038B504460D460E4B184200D158
:1010380020B90D4840F2694100F02AFF012D04D97A
:10104800094840F26A4100F023FF25B1074BDA69ED
:101058001443DC6138BD054BDA6922EA0404DC611B
:1010680038BD00BF00360181406000080010024012
:1010780010B50446212818D0312816D0392814D0A4
:10108800412812D0612810D07A280ED07B280CD0A5
:101098007C280AD07D2808D07E2806D07F2804D056
:1010A8000A4840F2345100F0F3FE6309012B02D1E3
:1010B800074B186804E0022B054B0CBF186A586AE6
:1010C80004F01F04E04000F0010010BD406000087B
:1010D8000010024010B582B000230193312420464D
:1010E800FFF7C6FF019B01330193019BB3F5A06F86
:1010F80001D00028F3D03120FFF7BAFF003018BF25
:10110800012002B010BD00BF2DE9F84305460C468A
:10111800464B98420BD0A3F57843984207D003F585
:101128008063984203D04248A32100F0B1FE23888F
:1011380063B1B3F5806F09D0B3F5004F06D0B3F5AE
:10114800404F03D03A48A62100F0A2FE6388B3F5C9
:10115800827F04D01BB13648A72100F099FEA388EE
:10116800B3F5006F04D01BB13148A82100F090FE00
:10117800E3882BB1022B03D02D48A92100F088FE6B
:101188002389012B03D92A48AA2100F081FE63890B
:10119800B3F5007F04D01BB12548AB2100F078FEE1
:1011A800A3898BB1082B0FD0102B0DD0182B0BD087
:1011B800202B09D0282B07D0302B05D0382B03D073
:1011C8001B48AC2100F064FEE3892BB1802B03D0CF
:1011D8001748AD2100F05CFE238A1BB91448AE21E4
:1011E80000F056FE2A8802F44152B4F80090638851
:1011F800B4F80480B4F806C027896689A089E18913
:1012080049EA030348EA03034CEA03033B43334335
:1012180003430B4313432B80AB8B23F400631B0462
:101228001B0CAB83238A2B82BDE8F8830030014076
:101238007060000838B504460D46124B98420CD031
:10124800A3F57843984208D003F58063984204D008
:101258000D4840F2B71100F01BFE012D04D90A48D1
:101268004FF4DC7100F014FE2DB123889BB243F0DB
:101278004003238038BD238823F040031B041B0C44
:10128800238038BD003001407060000838B504463E
:101298000D46094B98420CD0A3F57843984208D0E4
:1012A80003F58063984204D0044840F23A2100F0E4
:1012B800EFFDA58138BD00BF003001407060000817
:1012C80010B50446094B98420CD0A3F578439842D0
:1012D80008D003F58063984204D0054840F24A21BB
:1012E80000F0D6FDA08980B210BD00BF00300140DB
:1012F8007060000838B505460C46164B98420CD06D
:10130800A3F57843984208D003F58063984204D047
:10131800114840F2163100F0BBFD802C12D0402C51
:1013280010D0202C0ED0102C0CD0082C0AD0042C55
:1013380008D0022C06D0012C04D0074840F21731FF
:1013480000F0A6FD2B8904EA0300003018BF012035
:1013580038BD00BF003001407060000838B5044651
:101368000D46524B984242D0B0F1804F3FD0A3F582
:10137800943398423BD003F58063984237D003F505
:101388008063984233D003F5806398422FD003F5E9
:10139800806398422BD003F59033984227D003F509
:1013A800C053984223D003F5806398421FD003F5B9
:1013B800806398421BD0A3F59E33984217D003F55B
:1013C8008063984213D003F5806398420FD003F5E9
:1013D800903398420BD003F58063984207D003F509
:1013E8008063984203D03248E72100F051FD6B88B2
:1013F8005BB1102B09D0202B07D0402B05D0602BD8
:1014080003D02B48E82100F043FDEB884BB1B3F53E
:10141800807F06D0B3F5007F03D02548E92100F08E
:1014280037FD23889BB2214A944212D002F500620C
:1014380094420ED0B4F1804F0BD0A2F5983294426A
:1014480007D002F58062944203D002F5806294428C
:1014580003D123F070036A881343164A944208D0D4
:1014680002F58062944204D023F440739BB2EA8868
:1014780013432380AB88A3852B8823850B4B9C4281
:101488000FD003F500639C420BD003F540639C42E8
:1014980007D003F580639C4203D003F580639C4228
:1014A80001D12B7A23860123A38238BD002C014069
:1014B800A06000080010004038B504460D462E4BC9
:1014C800984243D0B0F1804F40D0A3F5943398426E
:1014D8003CD003F58063984238D003F58063984286
:1014E80034D003F58063984230D003F58063984286
:1014F8002CD003F59033984228D003F5C053984276
:1015080024D003F58063984220D003F58063984285
:101518001CD0A3F59E33984218D003F580639842F7
:1015280014D003F58063984210D003F590339842A5
:101538000CD003F58063984208D003F58063984285
:1015480004D00E4840F2293100F0A2FC012D04D944
:101558000A4840F22A3100F09BFC2DB123889BB247
:1015680043F00103238038BD238823F001031B04C3
:101578001B0C238038BD00BF002C0140A060000870
:1015880070B504460D461646314B984243D0B0F12B
:10159800804F40D0A3F5943398423CD003F5806344
:1015A800984238D003F58063984234D003F58063BD
:1015B800984230D003F5806398422CD003F59033DD
:1015C800984228D003F5C053984224D003F580638D
:1015D800984220D003F5806398421CD0A3F59E332F
:1015E800984218D003F58063984214D003F58063BD
:1015F800984210D003F5903398420CD003F58063DD
:10160800984208D003F58063984204D0114840F20C
:101618006B3100F03DFC15F47F4F00D125B90D4822
:101628004FF45B7100F034FC012E04D9094840F2F4
:101638006D3100F02DFC26B1A3899BB21D43A58115
:1016480070BDA389ED43ADB21D40A58170BD00BF3B
:10165800002C0140A060000870B504460E461546EF
:10166800284B984243D0B0F1804F40D0A3F5943333
:1016780098423CD003F58063984238D003F58063E4
:10168800984234D003F58063984230D003F58063E4
:1016980098422CD003F59033984228D003F5C053D4
:1016A800984224D003F58063984220D003F58063E4
:1016B80098421CD0A3F59E33984218D003F5806356
:1016C800984214D003F58063984210D003F5903304
:1016D80098420CD003F58063984208D003F58063E4
:1016E800984204D0084840F29B4100F0D1FB012DFC
:1016F80004D9054840F29C4100F0CAFB2685A58222
:1017080070BD00BF002C0140A060000838B5044639
:101718000D46334B984243D0B0F1804F40D0A3F5EB
:10172800943398423CD003F58063984238D003F54F
:101738008063984234D003F58063984230D003F533
:10174800806398422CD003F59033984228D003F553
:10175800C053984224D003F58063984220D003F503
:10176800806398421CD0A3F59E33984218D003F5A5
:101778008063984214D003F58063984210D003F533
:10178800903398420CD003F58063984208D003F553
:101798008063984204D0134840F6582100F078FB43
:1017A8006B1E9BB2012B10D9042D0ED0082D0CD026
:1017B800102D0AD0202D08D0402D06D0802D04D021
:1017C800084840F6592100F063FB238AA089284085
:1017D8001D4203D0003018BF012038BD002038BD9D
:1017E800002C0140A060000838B504460D462A4B7D
:1017F800984243D0B0F1804F40D0A3F5943398423B
:101808003CD003F58063984238D003F58063984252
:1018180034D003F58063984230D003F58063984252
:101828002CD003F59033984228D003F5C053984242
:1018380024D003F58063984220D003F58063984252
:101848001CD0A3F59E33984218D003F580639842C4
:1018580014D003F58063984210D003F59033984272
:101868000CD003F58063984208D003F58063984252
:1018780004D00A4840F6822100F00AFB15F47F4F95
:1018880000D125B9054840F6832100F001FBED435E
:10189800ADB2258238BD00BF002C0140A060000811
:1018A80030B587B004460D46644B984213D0A3F573
:1018B800744398420FD003F5806398420BD003F528
:1018C8008063984207D003F58063984203D05C4850
:1018D800B82100F0DDFA2B68013B5A4A934203D93C
:1018E8005748B92100F0D4FAAB8833B1B3F5805F1B
:1018F80003D05348BA2100F0CBFAEB8863B1B3F5B3
:10190800805F09D0B3F5005F06D0B3F5405F03D020
:101918004B48BB2100F0BCFA2B894BB1B3F5806F63
:1019280006D0B3F5C06F03D04548BC2100F0B0FA2B
:101938006B8923F00C0292B202B91BB94048BD2151
:1019480000F0A6FAAB8963B1B3F5807F09D0B3F58F
:10195800007F06D0B3F5407F03D03948BE2100F0A0
:1019680097FAAB8973B1354B9C420BD0A3F57443FE
:101978009C4207D003F580639C4203D03048C221C3
:1019880000F086FA238A23F440531B041B0CEA88D0
:1019980013432382A28992B222F4B05222F00C029D
:1019A800A8882B89698903430B431343A381A38A1E
:1019B80023F440731B041B0CAA891343A38201A8B8
:1019C800FFF7AAFA1D4B9C420CBF049A039AA389FD
:1019D8001BB2002B08DA02EB820202EB82022B68B0
:1019E8005B00B2FBF3F207E002EB820202EB820239
:1019F80029688900B2FBF1F2134BA3FB02135B09C0
:101A08001801642103FB1123A18909B2002908DA0E
:101A1800DB0032330C4DA5FB0323C3F3421303430E
:101A280007E01B013233084DA5FB0313C3F343132F
:101A380003439BB2238107B030BD00BF003801408B
:101A4800D06000081FAA44001F85EB5170B50546F9
:101A58000C46234B98420CD0A3F57443984208D007
:101A680003F58063984204D01E484FF4997100F042
:101A78000FFA23883BB1B3F5006F04D0194840F240
:101A8800331100F005FA63883BB1B3F5806F04D0D9
:101A980014484FF49A7100F0FBF9A3883BB1B3F5F1
:101AA800007F04D00F4840F2351100F0F1F9E388C7
:101AB8003BB1B3F5807F04D00A484FF49B7100F026
:101AC800E7F92B8A23F470631B041B0C26886288B1
:101AD800A088E188324302430A4313432B8270BD36
:101AE80000380140D060000838B504460D46164B52
:101AF800984214D0A3F57443984210D003F580633C
:101B080098420CD003F58063984208D003F58063AF
:101B1800984204D00D484FF4B17100F0B9F9012D85
:101B280004D90A4840F2631100F0B2F92DB1A38933
:101B38009BB243F40053A38138BDA38923F4005317
:101B48001B041B0CA38138BD00380140D06000087D
:101B580070B505460C461646364B984214D0A3F588
:101B68007443984210D003F5806398420CD003F573
:101B78008063984208D003F58063984204D02E48C9
:101B880040F2891100F084F9282C1ED040F2277306
:101B98009C421AD040F226639C4216D040F225534C
:101BA8009C4212D040F224439C420ED040F6460399
:101BB8009C420AD040F66A139C4206D0602C04D09E
:101BC8001D484FF4C57100F063F9012E04D91A4875
:101BD80040F28B1100F05CF940F66A139C420FD179
:101BE800144B9D420CD0A3F574439D4208D003F5D5
:101BF80080639D4204D0104840F28F1100F048F9EC
:101C0800C4F3421304F01F04012202FA04F49342BD
:101C180001D10C3503E0022B0CBF103514351EB171
:101C28002B681C432C6070BD2B6823EA04042C60CD
:101C380070BD00BF00380140D060000838B50446C8
:101C48000D46124B984214D0A3F57443984210D015
:101C580003F5806398420CD003F58063984208D05E
:101C680003F58063984204D0094840F25F2100F0F0
:101C78000FF9B5F5007F04D305484FF4187100F04B
:101C880007F9C5F30805A58038BD00BF0038014035
:101C9800D060000810B504460D4B984214D0A3F547
:101CA8007443984210D003F5806398420CD003F532
:101CB8008063984208D003F58063984204D00548B1
:101CC8004FF41C7100F0E4F8A088C0F3080010BDC0
:101CD80000380140D060000838B505460C463A4B3C
:101CE800984214D0A3F57443984210D003F580634A
:101CF80098420CD003F58063984208D003F58063BE
:101D0800984204D0314840F2D93100F0C1F8282C6B
:101D180025D040F227739C4221D040F226639C4292
:101D28001DD040F225539C4219D040F224439C42D6
:101D380015D040F646039C4211D040F66A139C42E7
:101D48000DD0B4F5587F0AD0B4F5187F07D0B4F594
:101D5800B07F04D01D4840F2DA3100F099F840F61F
:101D68006A139C420FD1184B9D420CD0A3F57443C3
:101D78009D4208D003F580639D4204D0134840F289
:101D8800DE3100F085F8C4F3421304F01F0201218C
:101D98009140012B03D1AA8992B20A4005E0022B97
:101DA8000CBF2A8AAA8A92B20A40240A012000FAA1
:101DB80004F4288880B220401AB1003018BF0120EE
:101DC80038BD002038BD00BF00380140D060000891
:101DD800FEE700BF08B50120FFF7FAFF08B50D4B75
:101DE8001B6813B90C4A0B4B1A600A4B1B6803306B
:101DF80020F003001844094A904206D903F01CF861
:101E08000C2303604FF0FF3008BD024A10601846EB
:101E180008BD00BFC80000200412002000BC00203C
:101E280001230360014B0B60704700BF18000020BE
:101E380008B503F001F8582303604FF0FF3008BDE0
:101E480008B502F0F9FF582303604FF0FF3008BDD2
:101E580008B502F0F1FF58230360002008BD00BF59
:101E680008B502F0E9FF582303604FF0FF3008BDC2
:101E780008B502F0E1FF582303604FF0FF3008BDBA
:101E880008B502F0D9FF582303604FF0FF3008BDB2
:101E980008B5FFF79FFF00BF08B500F067F808BD59
:101EA80082B000230193009303F1804303F50433C8
:101EB8001A6842F480321A601A46136803F4003331
:101EC8000093019B01330193009B1BB9019BB3F560
:101ED800A06FF2D1214B1B6813F4003F14BF0123FC
:101EE80000230093009B012B36D11D4B1A6842F04A
:101EF80010021A601A6822F003021A601A6842F087
:101F080002021A60A3F580535A685A605A685A60E8
:101F18005A6842F480625A605A6822F47C125A6005
:101F28005A6842F4E8125A601A6842F080721A60DD
:101F38001A46136813F0007FFBD0084B5A6822F04A
:101F480003025A605A6842F002025A601A465368FD
:101F580003F00C03082BFAD102B0704700100240BE
:101F68000020024008B5FFF79BFF08BD08B5104BDD
:101F78001A6842F001021A6059680E4A0A405A600B
:101F88001A6822F0847222F480321A601A6822F4E5
:101F980080221A605A6822F4FE025A604FF41F0227
:101FA8009A60FFF7DFFF4FF00062034B9A6008BDAD
:101FB800001002400000FFF800ED00E0030A43EAC9
:101FC800002080B2704700BFC0F30722120442EA23
:101FD8000062030A03F47F43134343EA1060704727
:101FE80008B5FFF7EBFF08BD08B5FFF7EDFF08BD23
:101FF80008B5FFF7F5FF08BD08B5FFF7E5FF08BD11
:1020080010B5044672B6FEF7ADF93520FEF7BEF9F5
:102018002046FEF7F7F9042802D0034800F03EFEF8
:10202800FEF7ACF962B610BD046100082DE9F04175
:1020380005460F46904672B6960812F0030F18BF71
:102048000136FEF78FF93520FEF7A0F900240FE0DE
:10205800284657F82410FEF703FA042806D0084843
:1020680000F01CFE4FF0FF30BDE8F081043501346C
:10207800B442EDDBFEF782F962B64046BDE8F08176
:102088001C6100082DE9F04180460F46012A0DD158
:1020980007E068682E8904FB0600FFF7B1FF0134EA
:1020A80001E00024154DEB89A342F2DC144B1A68B9
:1020B8003A441A60B7F5007F15D208EB0700FF21F4
:1020C800C7F5007202F0D6FE0E4C206841464FF468
:1020D8000072FFF7ABFF094B5B6823600022084BD7
:1020E8001A60BDE8F081074C206841463A46FFF780
:1020F8009DFF23681F442760BDE8F081C4090020C4
:10210800D00000202000002008B51A4B1B88FF2BA8
:1021180017D9194800F0C2FD184B4FF000621A6039
:1021280002F5E0425A604FF400621A8140225A8157
:102138000C221A7303225A733122DA81104A1A6167
:1021480008BD104800F0AAFD0C4B4FF000621A6061
:1021580002F5E0425A604FF480621A8180225A8167
:1021680018221A7303225A736522DA81064A1A6101
:1021780008BD00BFE0F7FF1F38610008C409002050
:1021880000F001085461000800F8010810B582B099
:1021980004460C4B53F820000121FEF71DFF0A4BA3
:1021A80033F81430ADF8043010238DF807300323CA
:1021B8008DF80630054B53F8240001A9FEF794F971
:1021C80002B010BD746100087C6100082400002082
:1021D80008B50346044A52F82000044A32F813109E
:1021E800FEF7AAFA08BD00BF240000207C610008A1
:1021F80008B50346044A52F82000044A32F813107E
:10220800FEF76AFA08BD00BF240000207C610008C0
:10221800044B53F82030D968034A32F810204A405A
:10222800DA607047240000207C61000800B583B0A4
:102238002023ADF8043028238DF8073003238DF8C8
:102248000630034801A9FEF74FF903B05DF804FB17
:102258000010014008B502482021FEF7E1F908BD49
:102268000010014010B586B04FF400100121FEF7B0
:10227800D9FEC023ADF8143003238DF816301C2383
:102288008DF81730114805A9FEF72EF90023ADF88F
:1022980008304BF6FF73ADF80A30A023ADF80C30C8
:1022A8004FF48063ADF80E304FF48043ADF8103032
:1022B80006A9074B41F8143D064C2046FEF76CFA78
:1022C80020460121FEF71EFB06B010BD000C0140A0
:1022D800A0860100005400402DE9F04107468846D9
:1022E80014463C4E4FF4003530462946FEF770FC44
:1022F8000028F9D137480121FEF72CFB354E364D21
:1023080030462946FEF7EEFB0028F9D03148A021D7
:102318000022FEF7C3FB2F4E304D30462946FEF70C
:10232800E1FB0028F9D02B484FEA1821FEF78AFB79
:10233800284E2B4D30462946FEF7D4FB0028F9D00D
:1023480024485FFA88F1FEF77DFB224E244D304683
:102358002946FEF7C7FB0028F9D01E480121FEF7E1
:10236800F9FA1C4E1C4D30462946FEF7BBFB0028E7
:10237800F9D01848A0210122FEF790FB154E194DFF
:1023880030462946FEF7AEFB0028F9D016E0012CAE
:1023980007D128464146FEF72DFB28460121FEF7C6
:1023A80001FB28463146FEF79DFB58B12846FEF74B
:1023B8005FFB07F8010B013CA4B203E0054D4FF0A9
:1023C8000008094E002CE2D102480121FEF712FB59
:1023D800BDE8F081005400400100030082000700BE
:1023E8008400070002000300400003002DE9F041CB
:1023F8000746884616462B4D4FF40034284621469A
:10240800FEF7E6FB0028F9D126480121FEF7A2FADB
:10241800244D254C28462146FEF764FB0028F9D0B8
:102428002048A0210022FEF739FB1E4D1F4C2846EC
:102438002146FEF757FB0028F9D01A484FEA182121
:10244800FEF700FB174D1A4C28462146FEF74AFBBB
:102458000028F9D013485FFA88F1FEF7F3FA114D16
:10246800134C28462146FEF73DFB0028F9D00CE026
:10247800204617F8011BFEF7E5FA20462946FEF725
:1024880031FB0028F9D0464601E0064C084D731E82
:102498001FFA83F8002EEBD102480121FEF782FAD9
:1024A800BDE8F081005400400100030082000700ED
:1024B8008400070010B5FEF705FC4FF48030FEF7E6
:1024C80021FCFEF707FE012833D11020FDF732FF6B
:1024D8000220FDF71BFF0020FEF7BAFC0020FEF7E4
:1024E800FBFC4FF48060FEF7D7FC4FF480304FF4CC
:1024F8008011FEF735FC0120FEF77EFC39242046CA
:10250800FEF7B6FD0028FAD00220FEF785FCFEF79C
:1025180097FC0828FBD101200146FEF783FD4FF404
:1025280080400121FEF77EFD44F21D000121FEF7E7
:1025380053FD10BD01604360826000230361C360E6
:102548000120704738B504460568C2680369D21A85
:1025580043689A420DDAC268013B02EA0300A268A6
:1025680002FB005002F07DFCE3680133E3600120C8
:1025780038BD002038BD00BFF8B504460F460068D6
:10258800E1682369C91A6368994231DAE668216902
:10259800761A9E1BE1685D1E29408D199D422CBF4D
:1025A800C1EB03053546761BAA42B8BF1546521B38
:1025B800B242B8BF1646A26802FB0100394602FBC8
:1025C80005F202F04EFCE3682B44E3602068626881
:1025D800013A1340A26802FB030002FB057102FBEB
:1025E80006F202F03EFCE3683344E360A819F8BD44
:1025F8000020F8BD38B504460568C26803699A42E8
:102608000ED003694268013A13408268084602FB0B
:10261800035102F026FC236901332361012038BDF0
:10262800002038BDF8B504460F460168C068236924
:10263800984231D0E6682369F61A23696568681EEE
:1026480003409819A8422CBFC3EB05053546761BF5
:10265800AA42B8BF1546521BB242B8BF1646A26876
:10266800384602FB031102FB05F202F0FAFB23696C
:102678002B44236121686268013A1340A26802FB77
:10268800057002FB031102FB06F202F0EAFB236964
:1026980033442361A819F8BD0020F8BD08B50348E4
:1026A8004FF48051FEF748F808BD00BF000C014008
:1026B80008B503484FF48051FEF70EF808BD00BF77
:1026C800000C014070B506460C4D022428462146F0
:1026D800FEF710FE0028F9D008483146FEF7D6FD6F
:1026E800064D012428462146FEF704FE0028F9D0AD
:1026F8000248FEF7E5FDC0B270BD00BF00380040DB
:1027080008B5FFF7DFFF08BD08B5FF20FFF7DAFFC0
:1027180008BD00BF30B587B04FF40053ADF8143092
:1027280003238DF8163018238DF81730234C2046D4
:1027380005A9FDF7D9FE4FF40043ADF81430204643
:1027480005A9FDF7D1FE4FF48043ADF814300423FA
:102758008DF81730204605A9FDF7C6FE4FF48053C3
:10276800ADF8143010238DF81730204605A9FDF771
:10277800BBFE0023ADF800304FF48272ADF80220A2
:10278800ADF804300222ADF806200124ADF8084067
:102798004FF40072ADF80A20ADF80C30ADF80E30E9
:1027A8000723ADF81030064D28466946FEF7ACFC05
:1027B80028462146FEF73EFD07B030BD000C01401B
:1027C8000038004010B584B0184B6C46186859683A
:1027D8009A68DB680FC4FFF76BFF154C20464FF46F
:1027E8000071FDF7A9FF4FF47A7000F00FF9204649
:1027F8004FF40071FDF770FF0E480F4901F036F9EC
:102808000E480F4901F044F90120694601F0C6FA63
:10281800B0F1FF3F03D10B4800F040FA03E042F269
:10282800107000F0F3F804B010BD00BF806100081C
:10283800000C0140A5260008B92600081127000849
:10284800092700089061000870B5C0B006460D461B
:102858001446B2F5807F88BF4FF480746846002123
:102868004FF4807202F006FB002E684614BF4FF446
:10287800807100212246FFF72FFD2846694622462F
:1028880002F0EFFA322000F0FDF8002040B070BDF1
:102898002DE9F047C0B006460D46144668460021AB
:1028A8004FF4807202F0E6FA68462946224602F0A2
:1028B800D8FAB4F5807F88BF4FF48074C4F34F19F9
:1028C8005FFA89F504F01F0A002E14BF4FF48076D2
:1028D80000261F2C15D8684631462246FFF786FD8C
:1028E8000A2000F0CFF821E0610100A80844314433
:1028F8004246FFF77BFD384600F0C4F80134E4B2E5
:1029080003E000244FF020080A27AC42ECD3BAF1C8
:10291800000F0BD05FFA89F1490100A8084431443F
:102928005246FFF763FD0A2000F0ACF8322000F0B1
:10293800A9F8002040B0BDE8F08700BF08B54FF007
:1029480080400121FEF7E2FE30B34FF080400121C4
:10295800FEF74AFF114B1A6801321A60104BA3FBAD
:1029680002135B09642101FB13232BB90020FFF735
:102978004FFC0120FFF74CFC084B1A68094BA3FBDE
:1029880002139B094FF47A7101FB132323B9002228
:10299800024B1A6000F006FC08BD00BFD4000020FE
:1029A8001F85EB51D34D621030B585B01C238DF8CF
:1029B800003000258DF8015001248DF802408DF873
:1029C80003406846FDF73CFC4FF47A73ADF80830D5
:1029D800ADF80450ADF80A50ADF806504FF08040FD
:1029E80001A9FEF7BBFC4FF0804047212246FEF7C5
:1029F80033FE4FF080402146FEF75EFD4FF08040E9
:102A080021462246FEF7BCFD05B030BD82B00190DC
:102A180002E0019B013B0193019B002BF9D102B01D
:102A2800704700BF10B586B004460420FDF754FC7B
:102A380001A8FEF771FA1048029BA0FB0320800C46
:102A480004FB00F00138B0F1807F09D20B4B5860CD
:102A5800F0210B4A82F8231000229A6007221A609C
:102A6800064B1A6822F002021A601A46136813F419
:102A7800803FFBD006B010BD83DE1B4310E000E0B2
:102A880000ED00E008B54FF47A7303FB00F0FFF7A0
:102A9800C9FF08BDF8B505460F4616461C4640F264
:102AA80027710022FFF754F8384631462246FFF7CF
:102AB80063FD0446284640F227710122FFF748F8D3
:102AC8002046F8BD2DE9F84307460C46914698463E
:102AD800E6682569AE42FBD0384640F2255100220F
:102AE800FFF736F8204649464246FFF79BFD044665
:102AF800384640F225510122FFF72AF82046BDE862
:102B0800F88300BF70B582B005460C46164640F201
:102B18002771FFF7E1F888B130460DF10701FFF79B
:102B280069FD28B128469DF80710FFF787F805E0EA
:102B3800284640F227710022FFF70AF8284640F29B
:102B48002551FFF7C9F870B1E2682369D21A6368A2
:102B58009A4208DA2846FFF79DF802A901F8010D04
:102B68002046FFF7EFFC02B070BD00BF08B5034870
:102B78000349044AFFF7C6FF08BD00BF00380140FB
:102B8800EC090020D809002070B588B031483249D6
:102B980001224FF48063FFF7CDFC30483049012211
:102BA8004FF48063FFF7C6FC25238DF8003000241E
:102BB8008DF801408DF8024001258DF803506846D4
:102BC800FDF73EFB4FF49053ADF8043018238DF811
:102BD800073003238DF80630224E304601A9FDF751
:102BE80083FC04238DF807304FF44063ADF80430BC
:102BF800304601A9FDF778FC4FF4E1330493ADF8B2
:102C08001440ADF81640ADF81840ADF81C400C2340
:102C1800ADF81A30ADF80840ADF80A404FF400732B
:102C2800ADF80C30ADF80E400F4C204604A9FEF765
:102C380037FE204602A9FEF709FF204640F225513B
:102C48002A46FEF785FF20462946FEF74DFF08B0C5
:102C580070BD00BFEC090020D8040020D80900206E
:102C6800D8000020000801400038014008B502469D
:102C78000B4602480249FFF70DFF08BD0038014026
:102C8800D809002008B502460B4602480249FFF75A
:102C980019FF08BD00380140EC0900200FB400B549
:102CA800A3B024AA52F8041B219201A802F02EFD19
:102CB80001A802F011F9014601A8FFF7D7FF23B0D8
:102CC8005DF804EB04B0704700230A4A13700A4AFF
:102CD80013600A4A13800A4A13800A4A13600A4A90
:102CE80013800A4A13600A4A13600A4A13600A4AA0
:102CF80013707047DC080020D8080020FC0800206A
:102D0800FE08002000090020F4080020080900201F
:102D1800F808002004090020F6080020054B1B686D
:102D280033B10023034A1360034A1360034A136054
:102D3800704700BF08090020F80800200409002097
:102D4800054B1B683BB90122034B1A600023034A59
:102D58001360034A1360704708090020F808002030
:102D68000409002030B583B0054602214CF23872C0
:102D7800012300F0A7FBC4B2AC420CD10A252046BF
:102D880029460DF1070200F0C5FD9DF80730222BFA
:102D9800F5D1204601E04FF0FF3003B030BD00BF51
:102DA80070B584B006460D46144603931846FFF7DF
:102DB8001BF904AB43F8040DBDF820200092F0B2D3
:102DC8002946A2B200F00AFCA0420CBF20464FF0F0
:102DD800FF3004B070BD00BF10B584B004460420B5
:102DE800FFF7FEF8ADF80C002046FFF7F9F8ADF84C
:102DF8000E00074B1B68074A1288074908680092AB
:102E080003A90422FFF7CCFFFFF79AFF04B010BD17
:102E1800D8080020FC0800202C00002008B50B4B27
:102E28001B68012B02D0022B09D008BD0522074BD5
:102E38001A60FFF773FF0020FFF7CEFF08BD0422DA
:102E4800024B1A60FFF76AFF08BD00BF00090020A7
:102E580008B503460A460248194602F002F808BDBA
:102E6800DC0800202DE9F047ADF5BF6D81460C4622
:102E7800174698460120FFF7B3F8ADF80C000DF19E
:102E88000E00494602F020F8484602F025F80130C5
:102E98000DF10E0505442846214602F015F8204696
:102EA80002F01AF801300544002418E007EBC40AC0
:102EB80057F834602846314602F006F8304602F0EA
:102EC8000BF801300544DAF804602846314601F071
:102ED800FBFF304602F000F8013005440134A045FC
:102EE800E4D803AA0C4B1B680C49086845210091DB
:102EF8001146AA1AFFF754FF0122094B1A604846E7
:102F080001F0EAFF411C4846FFF7A2FFFFF718FF50
:102F18000DF5BF6DBDE8F087D80800202C00002013
:102F280000090020F0B585B00F4616461D46C4B20C
:102F380020460A210DF10F0200F0ECFC01281ED1F9
:102F48009DF80F30222B1DD12046092103AA00F03D
:102F5800E1FC012819D1BDF80C30CBB10A9B0093D4
:102F680020463946B2B22B4600F0DCFBADF80C0027
:102F78002868FFF741F82860BDF80C000AE04FF018
:102F8800FF3007E04FF0FF3004E04FF0FF3001E082
:102F98004FF0FF3005B0F0BD10B504460088FFF7CC
:102FA80027F820806088FFF723F86080FFF78CFE01
:102FB8000122014B1A7010BDF608002038B50446EE
:102FC8000D460088FFF714F820806088FFF710F896
:102FD80082B26280194B1B68032B14D0052B01D0D9
:102FE800012B29D1012A0AD10321144B1960144B52
:102FF8001A80201D291FFFF745F8FFF78FFE60880C
:10300800FFF7EAFE38BD0E4B1B8801339A4207D101
:103018000B4B1A80201D291FFFF734F8FFF77EFE9F
:103028006088FFF7D9FE043DB5F5007F04D2FFF7AD
:103038004BFE0222034B1A7038BD00BF0009002066
:10304800F4080020F6080020F8B505460E461F468D
:10305800124C2468A2421FD10088FEF7C9FF104B0A
:103068001B68022B01D0012B01D10E4B1F8080B2AF
:1030780005280DD0062806D003280DD1284631464C
:10308800FFF79CFFF8BD28463146FFF7C7FEF8BD9D
:1030980028463146FFF780FFF8BD00BFD80800205A
:1030A80000090020FC08002038B505460C46FFF74B
:1030B8000BFE2846FFF756FE024B1860024B1C60B9
:1030C80038BD00BF2C000020F008002010B584B0E7
:1030D8001E4B1B681BB31E4B1B68042B1FD91D4BB3
:1030E8001B68032B09D0052B07D0012B09D11A48DF
:1030F8001A491B4AFFF7B6FE03E01A4B1888FFF778
:103108006BFE0022124B1A60174A136801331360D2
:10311800042B04D9FFF7D8FD0122144B1A70144B65
:103128001868144C21680DF10E03009340F2EA521E
:1031380002ABFFF7F7FE81B22068029ABDF80E30A5
:10314800FFF782FF094B187804B010BD080900206A
:10315800F808002000090020DC080020AC61000805
:1031680030000020F408002004090020F6080020A0
:103178002C000020F008002008B5064B186000223B
:10318800054B1A7008460549054A0123FFF76AFEF0
:1031980008BD00BFD8080020F6080020AC61000870
:1031A80030000020034B1B681BB1034B1A68013227
:1031B8001A60704708090020F808002038B505464D
:1031C8000C4CA368984723699847E369C5F30740FF
:1031D8009847E369C5F307209847E369E8B2984739
:1031E800A3699847054663699847E368984728465E
:1031F80038BD00BF3C000020F8B505460E460D4C12
:10320800A36898472369984745F00407E369C5F31D
:1032180007409847E369C5F307209847E369F8B280
:103228009847E3693046984763699847E368984741
:10323800F8BD00BF3C000020F8B506460F4615460D
:103248000F4CA368984723699847E369C6F307407A
:103258009847E369C6F307209847E369F0B29847AF
:103268000024074E04E0B369984738550134A4B2E6
:10327800AC42F8D3024C63699847E3689847F8BDB5
:103288003C0000202DE9F04106460F461546124C39
:10329800A36898472369984746F00408E369C6F38A
:1032A80007409847E369C6F307209847E3695FFA40
:1032B80088F098470024084E04E0385DF369984781
:1032C8000134A4B2AC42F8D3034C63699847E3686D
:1032D8009847BDE8F08100BF3C000020F8B5002504
:1032E800400100F1080606F5005706F50456384671
:1032F800FFF764FF000284B23046FFF75FFF204407
:1033080084B24CB13846FFF759FF000285B2304607
:10331800FFF754FF284485B2A542E8D12846F8BDF6
:10332800F8B50025400100F1080606F5185706F51E
:103338001C563846FFF742FF000284B23046FFF7BA
:103348003DFF204484B24CB13846FFF737FF0002F6
:1033580085B23046FFF732FF284485B2A542E8D14E
:103368002846F8BD2DE9F8430D46144632B34FEA16
:10337800800909F10106F60006F510573846FFF7EF
:103388001DFF804606F514563046FFF717FF00EB81
:1033980008201FFA80F809F10200C00000EB08209D
:1033A80029462246FFF76EFF4444A4B23846210A54
:1033B800FFF722FF3046E1B2FFF71EFFBDE8F883B2
:1033C8002DE9F8430D46144632B34FEA800909F156
:1033D8000106F60006F520573846FFF7EFFE80464F
:1033E80006F524563046FFF7E9FE00EB08201FFAE1
:1033F80080F809F10300C00000EB082029462246A6
:10340800FFF71AFF4444A4B23846210AFFF7F4FE36
:103418003046E1B2FFF7F0FEBDE8F883F8B50F4695
:10342800400100F1080505F520563046FFF7C6FEB5
:10343800044605F524552846FFF7C0FE00EB042096
:10344800C419A4B23046210AFFF7D6FE2846E1B2D5
:10345800FFF7D2FEF8BD00BF70B50546082827D88B
:103468004601083606F5807420461021FFF7C4FE91
:103478002046FFF7A3FE0028FAD106F500701F21A9
:10348800FFF7BAFE0122AA400B4B198821EA020273
:103498001A800023094A22F81530094A535506F5BF
:1034A80040742046FFF78AFE0028FAD1012000E088
:1034B800FF2040B270BD00BF0E090020180900208F
:1034C800100900202DE9F04105460F4614461E4616
:1034D80008286BD800296BD0022901D9042967D1A3
:1034E80016F0060F66D1A6B1012F02D0022F04D024
:1034F8000FE016F0210F0CD15EE016F0200F02D07D
:1035080016F0800F5AD016F0100F02D016F0800F68
:1035180056D02846FFF7A0FF4FEA451808F10808DB
:1035280026F00F0140463943FFF766FE64B9264A84
:103538001488631C9BB213804FF6F072934203D138
:103548004FF44042204B1A8008F58060210AFFF7AB
:1035580053FE08F5A060E1B2FFF74EFE08F580744F
:1035680020460121FFF748FE2046FFF727FE0028E6
:10357800FAD106F00106AE40144B1A8816431E8095
:103588000122AA40124B198821EA02021A8000235C
:10359800104A22F81530104A535508F54074204651
:1035A800FFF70CFE0028FAD0E8B20AE0FF2008E096
:1035B800FB2006E0FA2004E0FA2002E0FA2000E00E
:1035C800FA2040B2BDE8F081380000200C09002044
:1035D8000E09002018090020100900202DE9F84FD5
:1035E80006468B4691461D46BDF82840082878D8DF
:1035F80080464FEA401A0AF1080A5046FFF7DEFDF6
:1036080000F00F00022801D004286ED1B9F1000F94
:103618006FD02B68002B70D0002C72D00AF5407741
:103628003846FFF7CBFD422801D022286DD10AF594
:10363800406029460422FFF725FE0AF58050210A3A
:10364800FFF7DAFD0AF58850E1B2FFF7D5FD0AF574
:10365800F850FFF7B3FD850205F47C454D4528BFBA
:103668004D46DFF8BC903046FFF738FE0446384632
:10367800FFF7A4FD00284CD0B9F8003043FA08F34E
:1036880013F0010F01D0AC4247D3AC42EBD3304624
:1036980059462A46FFF766FE0AF58074204620211F
:1036A800FFF7AAFD2046FFF789FD0028FAD10AF5A1
:1036B800007A5046FFF782FD10F0100F06D05046F2
:1036C8001021FFF799FD2846BDE8F88F10F0080F84
:1036D800EFD050460821FFF78FFD6FF00C00BDE8D2
:1036E800F88F4FF0FF30BDE8F88F6FF00400BDE8A9
:1036F800F88F6FF00D00BDE8F88F6FF00B00BDE894
:10370800F88F6FF00A00BDE8F88F6FF00600BDE88B
:10371800F88F6FF00300BDE8F88F0020BDE8F88F40
:103728000C0900202DE9F04F85B00546009193461D
:103738000193082800F2D88006464FEA401909F19B
:1037480008094846FFF73AFD824600F00F03022BAE
:1037580002D0042B40F0CB80BBF1000F00F0CA80F0
:10376800694B33F81530CBB909F54077DFF8A081FC
:103778002846FFF7D5FD04463846FFF71FFD002809
:1037880000F0BB80B8F80030334113F0010F02D0CD
:10379800002C00F0B580002CEAD000E000240022C4
:1037A8005A4B5A550AF0070ABAF1020F03D0BAF178
:1037B800040F41D077E0544B33F8153083BB2846CB
:1037C80002A90822FFF7FCFD09F580742046402174
:1037D800FFF712FD2046FFF7F1FC0028FAD19DF80B
:1037E8000830019A13709DF8093053709DF80A301B
:1037F80093709DF80B30D3709DF80C209DF80D3018
:1038080003EB02220E9B1A809DF80E209DF80F30C4
:1038180003EB02223C4B23F8152080223B4B5A55E0
:10382800394B33F815405C4528BF5C46284600995B
:103838002246FFF7C5FD3DE0334B33F8153033BB67
:10384800284602A90222FFF7BBFD09F5807420462D
:103858004021FFF7D1FC2046FFF7B0FC0028FAD141
:103868009DF808209DF8093003EB02239BB2264AF5
:1038780022F8153040F2EA52934205D92846FFF75C
:10388800EBFD6FF47A703CE08022204B5A551E4BBA
:1038980033F815405C4528BF5C4628460099224607
:1038A800FFF78EFD06E028462146FFF7B7FD164BC9
:1038B80023F8154009F5807948464021FFF79CFC1C
:1038C8004846FFF77BFC0028FAD10F4A32F815303A
:1038D8001B1B9BB222F8153023B10C4B5A5D42F0EA
:1038E80001025A5520460CE04FF0FF3009E06FF016
:1038F800040006E06FF00D0003E06FF0030000E045
:10390800002005B0BDE8F08F18090020100900203C
:103918000C09002070B504461546082800F2888076
:103928000C2900F28780DFE801F0071019222D36F4
:10393800854656595D65770040010830FFF73EFC23
:1039480020F00F002870012079E0400100F5B05008
:103958000830FFF733FC2870012070E0400100F5C3
:10396800A8500830FFF72AFC2870012067E04601BC
:10397800083606F59050FFF721FC06F59850FFF73A
:103988001DFC2870600100F6084029460422FFF754
:1039980053FC012053E04401083404F58050FFF73C
:1039A8000DFC064604F58850FFF708FC00EB0620DE
:1039B8002880012043E0440108342046FFF7FEFB3D
:1039C80000F00F00012837D104F53C50FFF7F6FB53
:1039D8002880012033E0FFF781FC28802046FFF78C
:1039E8009FFC2880600100F54270FFF7E7FB287014
:1039F800012024E040010830FFF7E0FB012805D151
:103A08002046FFF78DFC2880012018E00D4B33F885
:103A180014302B80012012E040010830FFF7CEFB64
:103A280000F00F00012809D1074B1B5D2B7006E041
:103A3800FF2004E0FE2002E0FB2000E0FB2040B273
:103A480070BD00BF1809002010090020704700BF92
:103A5800704700BF704700BF704700BF00787047CD
:103A68000170704700207047704700BF00B129B946
:103A7800044B054A1A61054A5A617047014B18619F
:103A8800596170473C0000205D3A0008613A00081F
:103A9800094A138803F400739BB2002BF9D000B1D4
:103AA80029B9054B054A9A61054ADA617047024B04
:103AB8009861D961704700BF3C0000206D3A00084A
:103AC800713A000800B587B04FF4106001A90622CA
:103AD800FFF7B2FB4FF4807005A90422FFF7ACFB97
:103AE8004FF4A06004A90422FFF7A6FB4FF470600E
:103AF80003A90422FFF7A0FB00208021FFF77CFB2D
:103B08000020FFF75BFB4FF4106001A90622FFF7C6
:103B1800B9FB4FF4807005A90422FFF7B3FB4FF4FB
:103B2800A06004A90422FFF7ADFB4FF4706003A95D
:103B38000422FFF7A7FB07B05DF804FB70B5064643
:103B48000D46FFF7BFFF3EB91DE059B2715C0A444C
:103B5800D2B20133DBB201E00022134659B2072981
:103B6800F3DD52B2102A31DC002409E063B25801B7
:103B780000F5F8500830F15CFFF73EFB0134E4B281
:103B880063B2072BF2DD00201DB306E059B2695C71
:103B98000A44D2B20133DBB201E00022134659B223
:103BA8000729F3DD52B2102A12DC002409E063B2BF
:103BB800580100F5F0500830E95CFFF71DFB0134AF
:103BC800E4B263B2072BF2DD002002E0FF2000E040
:103BD800FF2040B270BD00BF10B50146040A4FF483
:103BE800A85001F0F001FFF707FB4FF4B850214649
:103BF800FFF702FB10BD00BF10B54FF4A850FFF748
:103C0800DDFA00F0F0044FF4B850FFF7D7FA0002DD
:103C180080B20444A0B210BD10B50146040A4FF4A6
:103C2800B050C9B2FFF7E8FA4FF4C0502146FFF789
:103C3800E3FA10BD10B54FF4B050FFF7BFFA0446D1
:103C48004FF4C050FFF7BAFA04EB002080B210BD61
:103C580008B54FF43850FFF7B1FA00F0010008BD7D
:103C680008B54FF43850FFF7A9FA00F030000030DB
:103C780018BF012008BD00BF08B54FF43850FFF742
:103C88009DFA00F07F014FF43850FFF7B5FA4FF472
:103C98003850FFF793FA60F07F014FF43850C9B2FB
:103CA800FFF7AAFA08BD00BF08B50378012B14BFB7
:103CB800002140214378012B03D141F03801C9B2DA
:103CC8000FE0C378012B07D18378012B0CBF41F09B
:103CD800180141F0080104E08378012B08BF41F086
:103CE80010014FF43850FFF787FAFFF7C5FF08BDFA
:103CF80010B504464FF43850FFF760FAC0F380134C
:103D0800237000F03803202B01D0382B02D1012278
:103D1800627001E000226270182B03D0202B01D0C2
:103D2800102B02D10122A27001E00022A270182BF0
:103D380003D0202B01D0082B02D10123E37010BD42
:103D48000023E37010BD00BF10B504464FF438508F
:103D5800FFF734FA10F0400F1CD000F0C701012C17
:103D68000CBF41F0300141F038014FF43850FFF7F3
:103D780043FAFFF781FF4FF43850FFF71FFA012C81
:103D88000CBF00F0300000F03800002814BF0020FD
:103D9800FF2000E0FF2040B210BD00BF30B583B067
:103DA8000C460023009301930F2809D8DFE800F0A0
:103DB8000A0E1D1822272C394755595E7763676FFD
:103DC800FF2071E0FFF77EFE00206DE019B1009141
:103DD80001F10804019400980199FFF7AFFE63E030
:103DE8000888FFF7F9FE00205EE0FFF705FF208056
:103DF800002059E00888FFF70FFF002054E0FFF784
:103E080019FF208000204FE009884FF49850090AD4
:103E1800FFF7F2F94FF4A0502178FFF7EDF90020F1
:103E280042E04FF49850FFF7C9F905464FF4A05007
:103E3800FFF7C4F900EB05202080002034E01C4B7C
:103E48009A780A70DA784A701A798A705A79CA7038
:103E58009B790B710020487126E0FFF70DFF0020C9
:103E680022E00846FFF720FF00201DE00846FFF784
:103E78003FFF002018E00878FFF766FF14E0FFF71F
:103E8800EFFEC0B2FF280CD0207000200CE0FFF736
:103E9800DFFEC0B2FF2806D02070002004E000201A
:103EA80002E0FF2000E0FF2040B203B030BD00BFB9
:103EB8003C00002010B504464FF41060214606224D
:103EC800FFF7E0F94FF4807004F10E010422FFF7C8
:103ED800D9F94FF4A06004F10A010422FFF7D2F9DE
:103EE8004FF47060A11D0422FFF7CCF9A27C064BA9
:103EF8001A70E27C5A70227D9A70627DDA70A27D17
:103F0800024B1A7010BD00BF2C09002028090020A0
:103F180010B504464FF4106021460622FFF78CF9CD
:103F28004FF4807004F10E010422FFF785F94FF475
:103F3800A06004F10A010422FFF77EF94FF47060D3
:103F4800A11D0422FFF778F9064B1A78A2745A7853
:103F5800E2749A782275DB786375034B1B78A37536
:103F680010BD00BF2C0900202809002010B5044608
:103F780030F03A030AD10020FFF720F940EA0401A3
:103F88000020C9B2FFF738F9002000E0FF2040B256
:103F980010BD00BF08B50020FFF710F908BD00BF2D
:103FA80010B504464FF4D8502178FFF725F96188F9
:103FB8004FF4C850090AFFF71FF94FF4D050A17801
:103FC800FFF71AF910BD00BF38B504464FF4D850B2
:103FD800FFF7F4F820704FF4C850FFF7EFF80546E4
:103FE8004FF4D050FFF7EAF800EB0520608038BDA9
:103FF80010B50C46052821D8DFE800F003080D119C
:10400800161B0846FFF756FF002018E00846FFF782
:104018007FFF002013E00878FFF7A8FF0FE0FFF705
:10402800B9FF207000200AE00846FFF7B9FF00201A
:1040380005E00846FFF7C8FF002000E0FF2040B277
:1040480010BD00BF0048704730090020F8B53F4C4C
:10405800852323804FF0010E84F802E00223E370E9
:1040680000252571DFF8E8C066460FCEC4F80500C4
:10407800C4F80910C4F80D20C4F8113003CEC4F8F0
:104088001500C4F81910337863776523A377E577AB
:1040980084F82050C02184F82710A82284F828200A
:1040A8000B2384F82930642084F82A0084F82B1024
:1040B80084F82C2084F82D3084F82EE0FF2384F82F
:1040C8002F3084F8303084F8313084F8325084F856
:1040D8003350636B03F07F4343F4E1736363082356
:1040E80084F8373084F8385084F839E084F83A5046
:1040F80084F83B50E26B02F07F4242F4E172E263E3
:1041080084F83F3084F8405084F841E084F8425005
:104118000CF11C0203CAC4F84300C4F84710128803
:10412800A4F84B2084F84D5084F84E5084F84F3052
:1041380084F8503084F8513084F8523004F1530038
:104148002946322200F096FEF8BD00BF3009002053
:10415800C061000810B50E4C012021468522FEF7EB
:1041680073FB2288013A92B24FF6FD739A4206D940
:10417800FFF76CFF012021468522FEF789FB044BDF
:1041880065229A770022DA7783F8202010BD00BFD5
:104198003009002008B5012002498522FEF778FB86
:1041A80008BD00BF3009002008B500F05AFE08BD60
:1041B80008B500F056FE08BD30B58BB0012004A943
:1041C800FFF716FF9DF810109DF811209DF812308A
:1041D8009DF813509DF814409DF815000095019422
:1041E80002901A4800F04EFE9DF816109DF8172010
:1041F8009DF818309DF819000090154800F042FE0F
:104208009DF81E109DF81F209DF820309DF8210074
:104218000090104800F036FE9DF81A109DF81B20FB
:104228009DF81C309DF81D0000900B4800F02AFEF8
:104238009DF822109DF823209DF824309DF8250034
:104248000090064800F01EFE0BB030BDE861000883
:104258001062000824620008386200084C620008F6
:1042680010B586B0FFF7EEFE0446684604F121015A
:104278000622FFF799FF0DF1060004F12701042239
:10428800FFF792FF0DF10E0004F12B010422FFF756
:104298008BFF0DF10A0004F12F010422FFF784FFC0
:1042A8000DF1120004F14F010422FFF77DFF94F88D
:1042B8004D301BB102238DF8163002E001238DF832
:1042C800163000206946FFF793FEFFF775FF06B02A
:1042D80010BD00BF3038C3B258B20928C4BFD81FB8
:1042E80040B20F28C4BF203840B2704738B50D46D9
:1042F80040B2FFF7EFFF000100F0F00468B2FFF7EB
:10430800E9FF2044C0B238BDF0B585B0264B93F81C
:1043180021305BB9244B93F82230082B08D1224B6B
:1043280093F82330DC2B3CD0002402E0002400E08A
:1043380000241E4E1E4F3046FEF7B0FC6846012191
:10434800FEF7A0FC9DF80030532B0ED13846FEF73F
:10435800A5FC0024012505E000A820442946FEF715
:1043680091FC01340B2CF7D90124002CE3D0002553
:104378002C460D4E0CE004AA2A4412F8100C12F830
:104388000F1CFFF7B3FF331983F8210001340235FE
:10439800062CF0D9FFF75AFEFFF7FCFE0548FEF79A
:1043A8007DFC05B0F0BD00BF300900206062000848
:1043B8007062000874620008BFF34F8F044AD16826
:1043C80001F4E061034B0B43D360BFF34F8FFEE76B
:1043D80000ED00E00400FA0510B4002304E0CC5C12
:1043E8004440CC5401339BB29342F8D35DF8044B5C
:1043F800704700BF10B4002304E0CC5C4440CC54A8
:1044080001339BB29342F8D35DF8044B704700BF69
:104418002DE9F041CEB0054688461446FFF712FE56
:10442800074628460B210DF59B72FFF773FAB4F87F
:104438000560BDF83621964257D10DF10A03009365
:10444800284627A9062203ABFFF76CF9607810F01D
:10445800800F06D000F07F0027A9BDF83621FFF7AE
:10446800C9FF27A807F12101062200F0EBFC00286C
:104478003BD16FF0740363710023A371552323713B
:104488003B4653F8210F04909B88ADF814300DF18A
:1044980016003946852200F0E4FC607810F0800FA1
:1044A80005D000F07F0004A98B22FFF795FF206854
:1044B8002990A288A379ADF8A8208DF8AA300DF12B
:1044C800AB0004A98B2200F0CCFCA37823B94046AA
:1044D800FF21042200F0CEFCB8F8043000932846EF
:1044E80029A992224346FFF779F84EB0BDE8F0813A
:1044F8002DE9F043A5B0054688461446FFF7A2FD0E
:10450800074628460B210DF18E02FFF703FAB4F88F
:104518000560BDF88E20964240F0FC80E378A13B10
:10452800042B00F2F780DFE803F0AE03207B9A004B
:104538000DF13E030093284602A9072210ABFFF7AE
:10454800F1F8607810F0800F06D000F07F0002A923
:10455800BDF88E20FFF74EFF02A8B91C032200F019
:1045680071FC002800F08F80D4E00DF13E03009329
:10457800284602A90C2210ABFFF7D4F8607810F097
:10458800800F06D000F07F0002A9BDF88E20FFF74B
:1045980031FF9DF8082097F821309A4200F2BA803E
:1045A8009DF8091097F82220914200F2B3809DF8F7
:1045B8000A0097F82310884200F2AC809DF80B603F
:1045C80097F82400864200F2A5809DF80CC097F861
:1045D8002560B44500F29E809DF80D9097F826C09E
:1045E800E14500F297809DF80E904B4500F29280CD
:1045F8009DF80F309A4200F28D809DF81030994254
:1046080000F288809DF81130984200F283809DF86E
:1046180012309E427ED89DF813309C4533D979E0FC
:104628000DF13E030093284602A9212210ABFFF7A3
:1046380079F8607810F0800F06D000F07F0002A9AA
:10464800BDF88E20FFF7D6FE7E1D02A800F044FCC0
:10465800024602A8314600F0F5FBA0B15AE00DF180
:104668003E030093284602A9342210ABFFF75AF8FC
:10467800607810F0800F06D000F07F0002A9BDF826
:104688008E20FFF7B7FE0C2363710023A371552317
:1046980023713B4633F8022F9B78ADF844208DF800
:1046A80046303B4633F81E2F9B78ADF847208DF8EF
:1046B800493057F8213FCDF84A30BB88ADF84E3025
:1046C800607810F0800F05D000F07F0011A90C224F
:1046D800FFF782FE20681490A288A379ADF85420D1
:1046E8008DF8563011AB07CBCDF85700CDF85B10DD
:1046F800CDF85F20A37823B94046FF21042200F0BB
:10470800B9FBB8F804300093284614A9132243468D
:10471800FEF764FF25B0BDE8F08300BF2DE9F04146
:1047280090B0054688461446FFF78CFC0746284695
:104738000B210DF13E02FFF7EDF8B4F80560BDF866
:104748003E2096425BD10DF10A030093284606A944
:10475800172203ABFEF7E6FF607810F0800F06D053
:1047680000F07F0006A9BDF83E20FFF743FE06A82B
:1047780007F12101062200F065FB00283FD10DF169
:104788001F0007F1430100F095FB002837D10623ED
:1047980063710023A3715523237157F8210F0490E7
:1047A800BB88ADF81430607810F0800F05D000F0A9
:1047B8007F0004A90622FFF70FFE20680C90A2884C
:1047C800A379ADF834208DF8363010AB53F8300D9E
:1047D800CDF837009B88ADF83B30A37823B9404625
:1047E800FF21042200F046FBB8F804300093284665
:1047F8000CA90D224346FEF7F1FEFFF7DDFD10B0D0
:10480800BDE8F0812DE9F041F4B00546884614462C
:10481800FFF718FC074628460B210DF5E772FFF74E
:1048280079F8B4F80560BDF8CE2196426ED10DF145
:104838000E030093284628A99C2204ABFEF772FFBA
:10484800607810F0800F06D000F07F0028A9BDF82E
:10485800CE21FFF7CFFD28A807F12101062200F09D
:10486800F1FA002852D10DF1A70007F1430100F039
:1048780021FB00284AD138460DF1B7018522FFF700
:1048880097FC6523BB770026FE7787F82060FFF743
:1048980081FC6FF074036371A671552323713B4645
:1048A80053F8210F05909B88ADF818300DF11A00C8
:1048B8003946852200F0D5FA607810F0800F05D0CF
:1048C80000F07F0005A98B22FFF786FD20684F9036
:1048D800A288A379ADF840218DF842310DF243103A
:1048E80005A98B2200F0BDFAA37823B94046FF2121
:1048F800042200F0BFFAB8F80430009328464FA904
:1049080092224346FEF76AFEFFF756FD74B0BDE8F3
:10491800F08100BF2DE9F043B7B00546884614463C
:10492800FFF790FB8146FFF78DFB074628460B21D2
:104938000DF1C202FEF7EEFFB4F80560BDF8C22023
:10494800964240F0B4800DF10A03009328461CA952
:104958004F2203ABFEF7E6FEE378D12B40F0A780A9
:10496800607810F0800F06D000F07F001CA9BDF819
:10497800C220FFF73FFD1CA807F12101062200F025
:1049880061FA002840F093800DF1770007F14301A8
:1049980000F090FA002840F08A800DF1C40E4E46CF
:1049A80056F8210F7168B268F368AEE80F00338AD1
:1049B800AEF80030FFF7CEFB0DF1C40EBEE80F00D5
:1049C800C9F821007160B260F360BEF8003033822C
:1049D800FFF7E0FB20680490A288A379ADF81420C3
:1049E8008DF81630D8F80030CDF81730B8F8043004
:1049F800ADF81B30DDF88730CDF81D30BDF88B30B1
:104A0800ADF821300DF18D030DF123020DF1BD013B
:104A1800D3F800C0D3F804E09E68D868C2F800C094
:104A2800C2F804E09660D060103310328B42EFD1A8
:104A38001B881380002004A94522FDF729FF0623BF
:104A480063710023A3715523237157F8210F169022
:104A5800BB88ADF85C30607810F0800F05D000F0AE
:104A68007F0016A90622FFF7B7FC20681890A288D5
:104A7800A379ADF864208DF8663036AB53F8800D15
:104A8800CDF867009B88ADF86B30A37823B9404612
:104A9800FF21042200F0EEF9B8F80430009328460C
:104AA80018A90D224346FEF799FDFFF785FC37B09C
:104AB800BDE8F0832DE9F04190B0054688461446DC
:104AC800FFF7C0FA074628460B210DF13E02FEF714
:104AD80021FFB4F80560BDF83E2096425FD10DF184
:104AE8000A030093284606A9172203ABFEF71AFE0D
:104AF800607810F0800F06D000F07F0006A9BDF89E
:104B08003E20FFF777FC06A807F12101062200F0F6
:104B180099F9002843D10DF11F0007F1430100F076
:104B2800C9F900283BD1FFF791FAFFF733FB0623B9
:104B380063710023A3715523237157F8210F049043
:104B4800BB88ADF81430607810F0800F05D000F005
:104B58007F0004A90622FFF73FFC20680C90A2887A
:104B6800A379ADF834208DF8363010AB53F8300DFA
:104B7800CDF837009B88ADF83B30A37823B9404681
:104B8800FF21042200F076F9B8F804300093284693
:104B98000CA90D224346FEF721FDFFF70DFC10B0CE
:104BA800BDE8F08130B59DB00446FFF74BFA0546E5
:104BB8002046FEF751FC2046022141F696120023BA
:104BC800FEF780FC002004A94522FDF73DFE059A6A
:104BD800062363F317220592D2238DF81330552349
:104BE8008DF814302B4653F8210F16909B88ADF89A
:104BF8005C309DF8110010F0800F05D000F07F00A8
:104C080016A90622FFF7E8FB04AB93E80300189007
:104C1800ADF86410090C8DF866101CAB53F8180D2C
:104C2800CDF867009B88ADF86B309DF812302BB932
:104C38000DF11700FF21042200F01CF9DDF8170020
:104C48000390BDF81B30ADF80A30BDF80A30009368
:104C5800204618A90D2203ABFEF7C0FC1DB030BDDD
:104C680010B588B004460A210DF11F02FEF752FE66
:104C78009DF81F30002B51D0222B56D120460921F8
:104C880007AAFEF747FEBDF81C30062B4DD906AB28
:104C98000093204603A9072205ABFEF743FD9DF8C4
:104CA8000C30A52B41D19DF81030AA2B3DD19DF891
:104CB8000F3003F0F003C02B18D004D8A02B09D074
:104CC800B02B0DD031E0E02B1CD0F02B20D0D02B16
:104CD8002BD111E0204605A903AAFFF709FC24E01F
:104CE800204605A903AAFFF793FB1EE0204605A965
:104CF80003AAFFF787FD18E0204605A903AAFFF7D6
:104D080009FE12E0204605A903AAFFF707FD0CE0FB
:104D1800204605A903AAFFF7CDFE06E0204602219A
:104D280041F696120123FEF7CDFB08B010BD00BF77
:104D380072B603480068854602480068874670478F
:104D4800007000080470000830B593B00020694670
:104D58004522FDF779FD9DF80030A52B28D19DF857
:104D68000D309DF80E00000440EA03609DF80F30F6
:104D780040EA03209DF8103018430DF11301FEF7A7
:104D8800FBF9FEF7A3F904460028FAD002280DD152
:104D98000020FFF707FF4525684600212A4600F056
:104DA80069F8002069462A46FDF772FD204600E0B2
:104DB800002013B030BD00BF10B5FDF77BFB00200D
:104DC800FDF7E4F90120FDF7E1F90020FDF700FA0D
:104DD8000120FDF70DFAFDF729FAFDF7D5FEFDF7DD
:104DE80093F9FDF73FFAFFF7B5F9FFF78DFAFDF7ED
:104DF80091FCFDF7E7FCFDF7D7FDFFF731FA01203D
:104E08000B49FEF751F9FFF79FFF0446FDF722FA19
:104E180048B9012C07D0074B5B681B68B3F1FF3F0B
:104E280001D0FFF785FF00242046FFF719FFFBE7B5
:104E3800000A0020C4090020014B1868704700BF11
:104E4800BC00002030B50023934208D0C55C013374
:104E5800CC1814F8014CA542F6D0281B30BD002010
:104E680030BD10B50023934203D0CC5CC454013349
:104E7800F9E710BD02440346934202D003F8011B30
:104E8800FAE770470FB40A4B13B51C6824B1A3693D
:104E980013B9204600F00CFE05AB2046A168049A21
:104EA800019300F091F902B0BDE8104004B07047DA
:104EB800BC00002010F8012B11F8013B012A28BF83
:104EC8009A42F7D0D01A7047034611F8012B03F81D
:104ED800012B002AF9D17047034613F8012B002A49
:104EE800FBD1181A013870472DE9F0478D688146C3
:104EF800AB420C4692461F4643D38B8913F4906FFE
:104F08003DD0266809690222C1EB0608666906EBEE
:104F1800460696FBF2F608F101023A44964238BF7B
:104F280016465B050FD5314600F0E6FE054698B1FA
:104F380021694246FFF795FFA38923F4906343F064
:104F48008003A38113E0324600F02AFF054670B9BA
:104F58004846216900F08CFE0C23C9F80030A3896B
:104F68004FF0FF3043F04003A381BDE8F08725618F
:104F780066614544C8EB06062560A6603D46AF421B
:104F880000D23D462A462068514600F055FEA368E7
:104F980000205B1BA36023681D442560BDE8F087E3
:104FA8002DE9F0439DB003938B8907461C060D46F7
:104FB80016460CD50B6953B9402100F09DFE2860B8
:104FC800286110B90C233B60C7E040236B610023C4
:104FD800099320238DF8293030238DF82A30334661
:104FE8001C4613F8012B1AB9B4EB06090FD002E0DE
:104FF800252AF5D1F8E73846294632464B46FFF7C9
:1050080073FF013000F0A480099B4B440993237877
:10501800002B00F09D8000234FF0FF32049307938C
:10502800059206938DF853301A9304F101094D4EF9
:105038004C4630462178052200F0F0FD09F10109BF
:10504800049B28B1861B0120B04003430493EEE77C
:10505800D90644BF20228DF853201A0744BF2B22BB
:105068008DF8532022782A2A02D0079B21460EE089
:10507800039A111D12680391002A01DB079204E0CC
:10508800524243F002030792049301340AE00C46AB
:1050980022780131303A092A03D80A2000FB032379
:1050A800F5E7079323782E2B19D163782A2B09D19A
:1050B800039B02341A1D1B680392002BB8BF4FF0E4
:1050C800FF330BE0611C00230C4622780131303A93
:1050D800092A03D80A2000FB0323F5E70593224E8B
:1050E80021783046032200F099FD30B1861B40201C
:1050F800B040049B01340343049321781B480622E3
:10510800661C8DF8281000F089FD88B1184B33B95A
:10511800039B073323F007030833039314E003AB1F
:105128000093384604A92A46124BAFF3008007E0E3
:1051380003AB0093384604A92A460E4B00F0BAF98F
:10514800B0F1FF3F804603D0099B4344099346E7EB
:10515800AB895B0601D4099801E04FF0FF301DB020
:10516800BDE8F083846200088A6200088E62000845
:1051780000000000F14E0008936810B5013B002BB9
:10518800936005DA9469A34208DBCBB20A2B05D0F9
:105198001368581C10601970C8B210BDBDE81040E3
:1051A80000F0C2BAF8B505460E461446D718BC42F8
:1051B80008D0284614F8011B3246FFF7DDFF431CD0
:1051C800F5D100E00020F8BD2DE9F0439DB00D4673
:1051D80017460393064618B183690BB900F068FCBB
:1051E800734B9D4201D1756808E0724B9D4201D115
:1051F800B56803E0704B9D4208BFF568AB89180796
:105208000AD52B6943B10023099320238DF829304F
:1052180030238DF82A3038E03046294600F0D8FA95
:105228000028F0D04FF0FF30BEE0039A111D12683D
:105238000391002A70DB0792013423782E2B7DD04E
:105248005E4F21783846032200F0E8FC30B1C71BD6
:105258004020B840049B0134034304932178584804
:105268000622671C8DF8281000F0D8FC002800F0F2
:105278008980544B002B7CD1039B073323F0070311
:1052880008330393099B434409933B461C4613F890
:10529800012B1AB9B4EB07090ED002E0252AF5D183
:1052A800F8E7304629463A464B46FFF77BFF013080
:1052B80075D0099B4B4409932378002B6FD00023AA
:1052C8004FF0FF3204930793059206938DF85330FD
:1052D8001A9304F101093C4F4C46384621780522BF
:1052E80000F09CFC09F10109049B28B1C71B0120AF
:1052F800B84003430493EEE7D90644BF20228DF853
:1053080053201A0744BF2B228DF8532022782A2ACB
:105318008BD0079B214605E0524243F002030792D7
:10532800049389E70C4622780131303A092A03D8D8
:105338000A2000FB0323F5E707937EE763782A2B0F
:1053480009D1039B02341A1D1B680392002BB8BFB6
:105358004FF0FF330BE0611C00230C46227801312B
:10536800303A092A03D80A2000FB0323F5E70593FE
:1053780066E703AB0093304604A92A46134BAFF304
:10538800008007E003AB0093304604A92A460F4B80
:1053980000F090F8B0F1FF3F80467FF473AFAB891F
:1053A8005B063FF53FAF09981DB0BDE8F08300BF2D
:1053B800B8620008D8620008F86200088A6200082B
:1053C8008E6200080000000084620008AD510008E9
:1053D8002DE9F84315461F468A680B6906469A4226
:1053E800A8BF13462B6091F843200C46DDF82080B7
:1053F8000AB101332B602368990602D52B68023362
:105408002B60236813F006091DD094F843302268F6
:10541800003318BF012392061FD5E118302081F808
:1054280043005A1C94F845102244023382F8431072
:1054380013E03046394604F119020123C047013010
:1054480007D009F10109E2682B68D31A9945F0DB06
:10545800DBE74FF0FF30BDE8F8833046394604F10A
:105468004302C0470130F4D023682A6803F00603DA
:10547800E168042B08BFC2EB01052369A2680CBFD1
:1054880025EAE57500259A42C4BFC3EB0203ED186F
:105498004FF00009A9450ADA3046394604F11A02E4
:1054A8000123C0470130D4D009F10109F2E70020F7
:1054B800BDE8F8832DE9FF470E7E80466E2E0C4628
:1054C80091469A460C9D01F1430000F0A58011D841
:1054D800632E22D009D8002E00F0AF80582E40F05D
:1054E800BF8081F845607B4A4FE0642E1ED0692E4C
:1054F8001CD0B5E0732E00F0A48009D86F2E2BD0F5
:10550800702E40F0AD800B6843F020030B6038E04C
:10551800752E21D0782E34D0A2E02B6801F14207F5
:105528001A1D1B682A6081F842309DE022682B68AA
:1055380012F0800F03D01A1D2A601D6805E051067D
:10554800F9D51A1D2A60B3F90050002D39DA2D2338
:105558006D4284F8433034E022682B6812F0800FE3
:1055680003D01A1D2A601D6804E05206F9D51A1DD9
:105578002A601D88237E574A6F2B14BF0A230823ED
:105588001BE07823544A84F845302368296813F0CF
:10559800800F01F104062E6001D00D6802E05F065D
:1055A800FBD50D88DE0744BF43F0200323601DB9F7
:1055B800236823F0200323601023002184F843107C
:1055C80001E0444A0A236668002EA66003DB2168CE
:1055D80021F00401216005B96EB104F14201B5FB67
:1055E800F3F603FB1655555D0F4601F8015935468C
:1055F800002EF4D100E00746082B0AD12368DD0706
:1056080007D5626823699A4203DC302307F8013C16
:10561800013FC01B20612CE009682B6811F0800F46
:10562800626904D0191D29601B681A6005E04906E3
:10563800F8D5191D29601B681A80002323610746C5
:1056480017E02B681A1D2A601F683846FFF744FCCC
:1056580063682061984288BF23612369636005E01D
:1056680004F1420784F8426001232361002384F88F
:105678004330CDF800A04046214603AA4B46FFF729
:10568800A7FE013002D14FF0FF301FE040464946E7
:105698003A462369D0470130F5D023689B0705D4E3
:1056A800E068039B9842B8BF18460FE00025E268FF
:1056B800039BD31A9D42F3DA4046494604F1190286
:1056C8000123D0470130DED00135F0E704B0BDE852
:1056D800F08700BF95620008A662000810B59AB06E
:1056E800009104916FF00041029105914FF6FF710E
:1056F800ADF80E104FF402746946ADF80C40FFF790
:105708004FFC009B00221A701AB010BD30B513462A
:10571800044A05460C46106829462246BDE8304032
:10572800FFF7DCBFBC00002070B50E4614460546E6
:1057380018B183690BB900F0BBF9224B9C4201D127
:105748006C6808E0204B9C4201D1AC6803E01F4B19
:105758009C4208BFEC68A369A360A3891A0709D50E
:1057680023693BB123692068F6B2C01A636998427D
:105778000FDB08E02846214600F02AF80028F1D07F
:105788004FF0FF3070BD2846214600F013F900287D
:10579800F6D1A3680130013BA36023685A1C22603C
:1057A8001E706369984204D0A389DB0707D50A2EC7
:1057B80005D12846214600F0FDF80028E0D1304602
:1057C80070BD00BFB8620008D8620008F86200081F
:1057D800324B70B51D6806460C4625B1AB6913B946
:1057E800284600F065F92E4B9C4201D16C6808E010
:1057F8002C4B9C4201D1AC6803E02B4B9C4208BF68
:10580800EC68A28993B2190720D4DD0605D40923D0
:1058180042F040023360A2813BE0580712D5616B29
:1058280041B104F14403994202D0304600F020FA15
:1058380000236363A38923F02403A3810023636007
:1058480023692360A38943F00803A38123694BB923
:10585800A38903F42073B3F5007F03D030462146B3
:1058680000F090F9A38913F0010205D00022A2608C
:1058780062695242A26103E0990758BF6269A26057
:1058880022694AB903F0800080B230B143F0400386
:10589800A3814FF0FF3070BD002070BDBC00002018
:1058A800B8620008D8620008F86200088A892DE901
:1058B800F041054610070C4657D44B68002B02DC14
:1058C8000B6C002B18DDE66AB6B102F48052002397
:1058D80092B22F682B600AB1626D10E0216A2846E7
:1058E8000123B047411C024609D12B683BB11D2B4F
:1058F80001D0162B46D12F600020BDE8F081A38986
:105908005B0705D56368D21A636B0BB1236CD21A97
:10591800E66A2846216A0023B047461CA28905D1B9
:105928002B681BB11D2B01D0162B19D100236360E6
:105938002369D104236004D5421C01D12B6803B923
:105948006065616B2F600029D6D004F14403994249
:1059580002D0284600F08CF900206063BDE8F08191
:1059680042F04002A281BDE8F0810E69002EC3D04A
:105978000B680E60C6EB030893070CBF4B69002346
:105988008B6012E0A3894FF0FF3043F04003A381FE
:10599800BDE8F081A76A2846216A32464346B847DF
:1059A8000028EFDD0644C0EB0808B8F1000FF1DC71
:1059B800A2E7000038B50B6905460C46DBB118B103
:1059C80083690BB900F074F80C4B9C4201D16C68E8
:1059D80008E00B4B9C4201D1AC6803E0094B9C42A8
:1059E80008BFEC68B4F90C302BB128462146BDE855
:1059F8003840FFF75BBF002038BD00BFB862000821
:105A0800D8620008F8620008F8B5074600F14804B3
:105A180094B1A5686668013E0CD4AB89012B07D9FF
:105A2800B5F90E30013303D038462946FFF7C2FFD7
:105A38006835F0E72468EBE7F8BD0000002310B5EF
:105A4800044603604360836081814366C2810361C9
:105A58004361836119465C300822FFF70BFA054B56
:105A680024626362044BA362044BE362044B236326
:105A780010BD00BF155E0008375E00086F5E0008A5
:105A8800935E000870B54B1E68255D430E4605F110
:105A9800740100F031F9044640B1002180E8420069
:105AA8000C30A06005F16802FFF7E4F9204670BDEC
:105AB800836910B5044633BB8364C3640365124B22
:105AC800124A1B688262984204BF0123836100F076
