:020000040800F2
:1070000000C00020197200084163010845630108AF
:10701000496301084D630108516301080000000045
:10702000000000000000000000000000556301089F
:1070300059630108000000005D63010861630108F5
:107040004572000845720008457200084572000844
:107050004572000845720008457200084572000834
:107060004572000845720008457200084572000824
:107070004572000845720008457200084572000814
:107080004572000845720008457200084572000804
:1070900045720008457200084572000845720008F4
:1070A00045720008457200084572000845720008E4
:1070B0000DD40008457200084572000845720008AA
:1070C00045720008457200084572000845720008C4
:1070D0004572000851D5000899D80008457200088B
:1070E0004572000845720008457200080000000063
:1070F0000000000000000000000000000000000090
:1071000000000000000000005FF808F1314B324A37
:107110001360324A1360324B02E000221A600433DB
:10712000304A9342F9D32C4B1B6813B92B4B1B6885
:1071300003B1FEE7274B2C4A13602C4A13602C4BFB
:107140002C4A03E011681960043304322A498B4247
:10715000F8D3254B1A68294B9A4204D1234B1A685D
:107160001B689A4200D0FEE700B583B002F058FCDD
:1071700001A8694602F0CEFB214C224B1C1BA41037
:10718000002504E01E4B53F8253098470135AC42EA
:10719000F8DC1D4C1D4B1C1BA410002504E01A4BF1
:1071A00053F8253098470135AC42F8DC0198009936
:1071B0000EF0E4FF0546164C164B1C1BA41004E011
:1071C000013C134B53F824309847002CF8DC284638
:1071D00002F072FBBABADECA9C010020C43A002059
:1071E0009C010020C83A00200000002098010020E7
:1071F00000000020E8A001089C010020785634120D
:107200004872000848720008487200084872000876
:10721000487200084872000808B5FFF777FF00BF02
:10722000FEE700BFFEE700BFFEE700BFFEE700BFCE
:10723000FEE700BFFEE700BFFEE700BFFEE700BFBE
:08724000FEE700BFFEE700BFFE
:1072480010B50446B0F5E06F0FD0B0F5C06F0CD0A4
:10725800B0F5A06F09D0B0F5806F06D0B0F5407FCB
:1072680003D00548632102F079FB44F0BF6444F47D
:107278000034024BDC6010BD0479010800ED00E029
:1072880010B50446C378012B03D92048752102F0B4
:1072980065FB63780F2B03D91C48762102F05EFB4F
:1072A800A3780F2B03D91948772102F057FBE3780D
:1072B80003B3174BDA68D243C2F30222C2F10400C7
:1072C8000F2323FA02F1637803FA00F2A3780B4044
:1072D80013431B012278DBB20E490A4482F80033BB
:1072E8002378580903F01F03012202FA03F341F837
:1072F800203010BD23785A0903F01F03012199405B
:1073080002F12003034A42F8231010BD0479010852
:1073180000ED00E000E100E038B505460C46B0F1AC
:10732800005F06D0B0F1006F03D00948AA2102F02F
:1073380015FB084B9C4203D90548AB2102F00EFB14
:1073480024F0604121F07F012943034B996038BD47
:1073580004790108FEFF0F0000ED00E010B50446B7
:10736800042806D010F1050F03D00948D52102F0F2
:10737800F5FA042C05D1074A136843F00403136097
:1073880010BD044A136823F00403136010BD00BF46
:107398000479010810E000E038B505460C464D4B6D
:1073A80098420BD003F58063984207D003F5A053A9
:1073B800984203D04848E52102F0D0FA2368F3B197
:1073C800B3F5803F1BD0B3F5003F18D0B3F5403F6D
:1073D80015D0B3F5802F12D0B3F5A02F0FD0B3F589
:1073E800C02F0CD0B3F5E02F09D0B3F5002F06D08D
:1073F800B3F5102F03D03848E62102F0AFFA23790D
:10740800012B03D93448E72102F0A8FA6379012B4C
:1074180003D93148E82102F0A1FAA36843B3B3F5D0
:10742800003F25D0B3F5802F22D0B3F5C02F1FD051
:10743800B3F5002F1CD0B3F5202F19D0B3F5402F8A
:1074480016D0B3F5602F13D093B1B3F5003F0FD02A
:10745800B3F5C02F0CD0B3F5002F09D0B3F5202F0A
:1074680006D0B3F5402F03D01B48E92102F076FA85
:10747800E36833B1B3F5006F03D01748EA2102F08F
:107488006DFA237C013BDBB20F2B03D91248EB21A9
:1074980002F064FA6B6823F4702323F48073226883
:1074A800217942EA012213436B60AA680B4B13400F
:1074B800E168A2680A43617942EA41021343AB607A
:1074C800EB6A23F47002237C013BDBB242EA0353EC
:1074D800EB6238BD002401402C790108FDF7F1FF6B
:1074E80038B504460D46114B98420CD003F580631D
:1074F800984208D003F5A053984204D00C484FF4A2
:107508009A7102F02BFA012D04D9094840F235117D
:1075180002F024FA25B1A36843F00103A36038BD43
:10752800A36823F00103A36038BD00BF0024014015
:107538002C79010838B504460D460F4B984208D0FF
:1075480003F5C053984204D00C4840F24D1102F0A4
:1075580005FA012D04D909484FF4A77102F0FEF984
:1075680025B1A36843F48073A36038BDA36823F4EE
:107578008073A36038BD00BF002401402C79010846
:1075880010B504460A4B98420CD003F58063984224
:1075980008D003F5A053984204D006484FF4C271AE
:1075A80002F0DCF9A36843F00803A36010BD00BF34
:1075B800002401402C79010810B504460B4B984271
:1075C8000CD003F58063984208D003F5A053984285
:1075D80004D007484FF4C97102F0C0F9A36813F04A
:1075E800080F01D0012010BD002010BD002401406B
:1075F8002C79010810B504460A4B98420CD003F5C3
:107608008063984208D003F5A053984204D00648F6
:107618004FF4D57102F0A2F9A36843F00403A36004
:1076280010BD00BF002401402C79010810B50446A4
:107638000B4B98420CD003F58063984208D003F5B1
:10764800A053984204D007484FF4DC7102F086F941
:10765800A36813F0040F01D0012010BD002010BD55
:10766800002401402C79010838B504460D46114B19
:1076780098420CD003F58063984208D003F5A053D4
:10768800984204D00C484FF4E97102F067F9012DD3
:1076980004D9094840F2D31102F060F925B1A36872
:1076A80043F4A003A36038BDA36823F4A003A36038
:1076B80038BD00BF002401402C790108F8B5074601
:1076C8000E4614461D46354B98420CD003F5806390
:1076D800984208D003F5A053984204D030484FF49C
:1076E800167102F03BF9112E04D92D4840F25921A8
:1076F80002F034F9631EDBB20F2B04D9284840F29C
:107708005A2102F02BF9072D04D9254840F25B21B4
:1077180002F024F9092E0CD9F968A6F10A0303EB43
:10772800430307229A4021EA02029D401543FD6067
:1077380009E03A6906EB460107238B4022EA030376
:107748008D401D433D61062C0CD87A6B013C04EB3F
:1077580084041F21A14022EA010306FA04F1194317
:107768007963F8BD0C2C0CD83A6B073C04EB840405
:107778001F21A14022EA010306FA04F119433963E3
:10778800F8BDFA6A0D3C04EB84041F21A14022EAEB
:10779800010306FA04F11943F962F8BD0024014017
:1077A8002C79010810B504464F4B984225D0143364
:1077B800984222D0143398421FD0143398421CD0D8
:1077C8001433984219D01433984216D0143398427F
:1077D80013D003F5627398420FD0143398420CD03B
:1077E8001433984209D01433984206D0143398427F
:1077F80003D03E486F2102F0B1F8236823F001035B
:107808001B041B0C2360002323606360A360E360F8
:10781800354B9C4205D1364A536843F00F035360F9
:1078280010BD344B9C4205D1314A536843F0F003F4
:10783800536010BD304B9C4205D12D4A536843F428
:107848007063536010BD2D4B9C4205D1284A536884
:1078580043F47043536010BD294B9C4205D1244A20
:10786800536843F47023536010BD264B9C4205D1E6
:107878001F4A536843F47003536010BD224B9C4267
:1078880005D11B4A536843F07063536010BD1F4B0A
:107898009C4205D11E4A536843F00F03536010BD44
:1078A8001C4B9C4205D11A4A536843F0F0035360BD
:1078B80010BD194B9C4205D1154A536843F47063B7
:1078C800536010BD154B9C4205D1114A536843F4CF
:1078D8007043536010BD124B9C4204D10C4A53684C
:1078E80043F47023536010BD080002405C7901081E
:1078F800000002401C0002403000024044000240E8
:10790800580002406C000240800002400804024017
:10791800000402401C0402403004024044040240B7
:107928005804024038B505460C46504B984225D0BD
:107938001433984222D0143398421FD014339842FB
:107948001CD01433984219D01433984216D01433EB
:10795800984213D003F5627398420FD014339842BB
:107968000CD01433984209D01433984206D01433FB
:10797800984203D03E48CF2101F0F0FFA368102BB6
:1079880004D01BB13A48D02101F0E8FFE368013B7D
:107998004FF6FE72934203D93548D12101F0DEFF3C
:1079A8002369402B04D01BB13148D22101F0D6FF06
:1079B8006369802B04D01BB12D48D32101F0CEFF81
:1079C800A3694BB1B3F5807F06D0B3F5007F03D030
:1079D8002748D42101F0C2FFE3694BB1B3F5806FAA
:1079E80006D0B3F5006F03D02148D52101F0B6FFCA
:1079F800236A202B04D01BB11D48D62101F0AEFF0D
:107A0800636AB3F5405F0AD0B3F5005F07D0B3F5FA
:107A1800805F04D01BB11648D72101F09FFFA36AED
:107A2800B3F5804F04D01BB11148D82101F096FF5F
:107A38002B6823F4FF4323F07003A168226A1143E3
:107A48002269114362691143A2691143E269114332
:107A5800626A1143A26A0A4313432B60E3686B60AE
:107A68002368AB606368EB6038BD00BF0800024064
:107A78005C79010838B504460D461F4B984226D05C
:107A88001433984223D01433984220D014339842A8
:107A98001DD0143398421AD01433984217D0143397
:107AA800984214D003F56273984210D01433984268
:107AB8000DD0143398420AD01433984207D01433A7
:107AC800984204D00D4840F2291101F047FF012DDA
:107AD80004D90A484FF4957101F040FF25B1236895
:107AE80043F00103236038BD236823F001031B041E
:107AF8001B0C236038BD00BF080002405C790108F8
:107B080010B50446431E012B40F29B80042800F068
:107B18009880082800F09580102800F0928020288E
:107B280000F08F80402800F08C80802800F0898049
:107B3800B0F5807F00F08580B0F5007F00F081808F
:107B4800B0F5806F7DD0B0F5006F7AD0B0F5805F6A
:107B580077D0B0F5005F74D0B0F5804F71D0B0F534
:107B6800004F6ED0B0F5803F6BD0B0F5003F68D0C5
:107B7800B0F5802F65D0B0F5002F62D0B0F5801F2A
:107B88005FD0B0F5001F5CD0B0F5800F59D0B0F5CC
:107B9800000F56D0B0F1807F53D0B0F1007F50D0A5
:107BA800B0F1806F4DD0B0F1006F4AD02C4B9842A5
:107BB80047D00133984244D00233984241D004332D
:107BC80098423ED0083398423BD01033984238D080
:107BD8002033984235D04033984232D0803398428F
:107BE8002FD003F5807398422BD003F50073984289
:107BF80027D003F58063984223D0B0F1102F20D00E
:107C080003F5C05398421CD003F50053984218D08E
:107C180003F58043984214D003F50043984210D0EE
:107C280003F5803398420CD003F50033984208D00E
:107C380003F58023984204D00A4840F2B71101F0B6
:107C48008DFE14F0805F02D0074B1B6801E0074BE4
:107C58001B68234201D0012010BD002010BD00BFC9
:107C6800010000105C790108000402400000024095
:107C780010B50446022804D9054840F2031101F062
:107C88006DFE044A136803F038031C43146010BDEA
:107C98008C7901080020024010B50446102805D050
:107CA80020B1074840F22F1101F058FE054B1A6821
:107CB80022F010021A601A6814431C6010BD00BF3D
:107CC8008C79010800200240034B044A5A6002F1F3
:107CD80088325A60704700BF002002402301674580
:107CE800024A136943F08003136170470020024081
:107CF80010B5044630F0350300D120B9034840F2EE
:107D0800CC5101F02BFE024BDC6010BD8C790108D0
:107D1800002002400B4BDB6813F0010F0BD1094B1D
:107D2800DB6813F0040F08D1064BDB6813F0100F63
:107D380005D00320704701207047022070470420B7
:107D4800704700BF0020024010B50446FFF7E2FF6D
:107D580002E0FFF7DFFF013C012801D1002CF8D138
:107D680004B9052010BD00BF38B5044600F17842BB
:107D7800114B9A4204D9114840F2A71101F0EEFDC7
:107D88004FF43020FFF7E0FF042813D10C4D2B6986
:107D980043F002032B616C612B6943F040032B61B4
:107DA8004FF43020FFF7D0FF2B6923F00203DB04E8
:107DB800DB0C2B6138BD00BFFEFF0F008C7901087A
:107DC8000020024030B583B004460D4600230193DD
:107DD80000F178421A4B9A4204D91A4840F2B52168
:107DE80001F0BCFD4FF40050FFF7AEFF042824D18A
:107DF800154A136943F001031361ABB223804FF4B2
:107E08000050FFF7A1FF042810D102340194019B10
:107E18002D0C1D804FF40050FFF796FF0A4A136996
:107E280023F00103DB04DB0C136106E0064A136947
:107E380023F00103DB04DB0C136103B030BD00BF8A
:107E4800FEFF0F008C79010800200240F8B50546B6
:107E58000C46474B98421BD003F58063984217D0D5
:107E680003F58063984213D003F5806398420FD0DE
:107E780003F5806398420BD003F58063984207D0DE
:107E880003F58063984203D03A48B22101F066FDB9
:107E9800E3788BB1042B0FD0282B0DD0482B0BD0B7
:107EA800142B09D0102B07D01C2B05D0182B03D06E
:107EB8003048B32101F052FD23881BB92D48B42165
:107EC80001F04CFDE37803F00F06304613F0100F75
:107ED8000AD0A378013BDBB2022B03D92548BB218A
:107EE80001F03CFDA07830432378E3B12E680022EE
:107EF80016E0012393402188194099420FD1970039
:107F08000F21B94026EA010600FA07F10E43E1788D
:107F1800282901D16B6102E0482900D12B61013287
:107F2800072AE6D92E602388FF2B20D96F68002105
:107F38001AE001F108020123934022881A409A426C
:107F480011D14FEA810E0F2202FA0EF627EA060235
:107F580000FA0EF71743E278282A00D16B61E2781D
:107F6800482A00D12B6101310729E2D96F60F8BD99
:107F780000080140C079010838B504460D462A4B6F
:107F880098421CD003F58063984218D003F58063AB
:107F9800984214D003F58063984210D003F58063AB
:107FA80098420CD003F58063984208D003F58063AB
:107FB800984204D01D484FF48F7101F0CFFC6B1E1E
:107FC8009BB2012B28D9042D26D0082D24D0102DA2
:107FD80022D0202D20D0402D1ED0802D1CD0B5F5CC
:107FE800807F19D0B5F5007F16D0B5F5806F13D016
:107FF800B5F5006F10D0B5F5805F0DD0B5F5005F11
:108008000AD0B5F5804F07D0B5F5004F04D0074822
:1080180040F21F1101F0A2FCA3682B4201D00120FD
:1080280038BD002038BD00BF00080140C0790108F4
:1080380038B504460D462A4B98421CD003F5806398
:10804800984218D003F58063984214D003F58063F2
:10805800984210D003F5806398420CD003F58063F2
:10806800984208D003F58063984204D01D484FF425
:10807800A27101F073FC6B1E9BB2012B28D9042D51
:1080880026D0082D24D0102D22D0202D20D0402DF0
:108098001ED0802D1CD0B5F5807F19D0B5F5007F96
:1080A80016D0B5F5806F13D0B5F5006F10D0B5F5C3
:1080B800805F0DD0B5F5005F0AD0B5F5804F07D0C9
:1080C800B5F5004F04D0074840F2451101F046FCD1
:1080D800E3682B4201D0012038BD002038BD00BF25
:1080E80000080140C079010838B504460D46144B14
:1080F80098421CD003F58063984218D003F580633A
:10810800984214D003F58063984210D003F5806339
:1081180098420CD003F58063984208D003F5806339
:10812800984204D0074840F2691101F017FC25B9BC
:1081380004484FF4B57101F011FC256138BD00BF4A
:1081480000080140C079010838B504460D46144BB3
:1081580098421CD003F58063984218D003F58063D9
:10816800984214D003F58063984210D003F58063D9
:1081780098420CD003F58063984208D003F58063D9
:10818800984204D0074840F2791101F0E7FB25B97D
:1081980004484FF4BD7101F0E1FB656138BD00BFD3
:1081A80000080140C079010870B504460D4616461E
:1081B8002C4B98421CD003F58063984218D003F5E5
:1081C8008063984214D003F58063984210D003F579
:1081D800806398420CD003F58063984208D003F579
:1081E8008063984204D0204840F28D1101F0B6FB1C
:1081F8006B1E9BB2012B28D9042D26D0082D24D024
:10820800102D22D0202D20D0402D1ED0802D1CD006
:10821800B5F5807F19D0B5F5007F16D0B5F5806F1C
:1082280013D0B5F5006F10D0B5F5805F0DD0B5F55A
:10823800005F0AD0B5F5804F07D0B5F5004F04D0E0
:1082480009484FF4C77101F089FB012E04D906488B
:1082580040F28F1101F082FB0EB1256170BD65619E
:1082680070BD00BF00080140C079010838B5044658
:108278000D46431E012B40F29080042800F08D80AB
:10828800082800F08A80634B984200F086802033EB
:10829800984200F08280604B98427ED080339842AA
:1082A8007BD05E4B984278D003F58073984274D0A7
:1082B80003F58073984270D0594B98426DD003F5FE
:1082C8008063984269D0B0F5805F66D0B0F5EA1F48
:1082D80063D0B0F5EB1F60D0B0F5004F5DD0514BC7
:1082E80098425AD00133984257D00233984254D01A
:1082F8000433984251D0083398424ED0B0F1201F31
:108308004BD03033984248D0474B984245D003F57C
:108318008073984241D003F5007398423DD0434B97
:1083280098423AD003F57063984236D0B0F5011FF1
:1083380033D03F4B984230D0013398422DD002338E
:1083480098422AD00433984227D00833984224D040
:108358001033984221D0203398421ED0403398429F
:108368001BD08033984218D003F58073984214D0FC
:1083780003F50073984210D003F5806398420CD03F
:1083880003F50063984208D003F58053984204D05F
:10839800284840F22A2101F0E1FA012D04D92548A4
:1083A80040F22B2101F0DAFA002C02DA224BDB69C9
:1083B80001E0214B5B68C4F30340A2B204F440110E
:1083C800B1F5401F07D123F070631B48416821F0C5
:1083D8007061416011E014F4801F06D003218140D0
:1083E80023EA010343F0706307E0610D090102FA13
:1083F80001F123EA010343F070631DB1610D090126
:108408008A401343002C02DA0B4AD36138BD0A4A6A
:10841800536038BD10001400400016000001180019
:1084280000081A000100200000013000001120009F
:1084380001000080C07901080000014010B5044621
:1084480045F25553984204D018B103485F2101F012
:1084580085FA024B1C6010BDF47901080030004019
:1084680010B50446062803D90348732101F076FAAB
:10847800024B5C6010BD00BFF47901080030004079
:1084880010B50446B0F5805F03D30348802101F09E
:1084980065FA024B9C6010BDF47901080030004079
:1084A8004AF6AA22014B1A60704700BF003000400C
:1084B8004CF6CC42014B1A60704700BF00300040B8
:1084C8000D4B1A6842F001021A6059680B4A0A40BB
:1084D8005A601A6822F0847222F480321A601A688C
:1084E80022F480221A605A6822F4FE025A604FF47D
:1084F8001F029A60704700BF001002400000FFF89A
:1085080010B5044650B1B0F5803F07D0B0F5802FC4
:1085180004D0104840F2111101F020FA0E4B1A68ED
:1085280022F480321A601A6822F480221A60B4F5A4
:10853800803F03D0B4F5802F06D010BD064A1368DB
:1085480043F48033136010BD034A136843F4A02337
:10855800136010BD287A01080010024038B50C4697
:10856800054650B1B0F5803F07D0B0F5403F04D084
:108578001E4840F27F1101F0F1F974B3B4F5802F71
:108588002BD0B4F5002F28D0B4F5402F25D0B4F562
:10859800801F22D0B4F5A01F1FD0B4F5C01F1CD077
:1085A800B4F5E01F19D0B4F5001F16D0B4F5101FAC
:1085B80013D0B4F5201F10D0B4F5301F0DD0B4F58A
:1085C800401F0AD0B4F5501F07D0B4F5601F04D07F
:1085D80006484FF4C07101F0C1F9054A536823F405
:1085E8007C132C431C43546038BD00BF287A010813
:1085F8000010024010B50446012804D903484FF47E
:10860800CA7101F0ABF9024B1C6010BD287A010851
:108618006000424210B50446022804D905484FF4C8
:108628000E7101F09BF9044A536823F003031C43BD
:10863800546010BD287A010800100240024B5868A7
:1086480000F00C00704700BF0010024010B504464F
:10865800A0B1802812D0902810D0A0280ED0B02821
:108668000CD0C0280AD0D02808D0E02806D0F0289E
:1086780004D006484FF4197101F070F9044A5368A0
:1086880023F0F0031C43546010BD00BF287A010892
:108698000010024010B5044680B1B0F5806F0DD0CF
:1086A800B0F5A06F0AD0B0F5C06F07D0B0F5E06F95
:1086B80004D0064840F27E2101F050F9044A53687C
:1086C80023F4E0631C43546010BD00BF287A0108FE
:1086D8000010024010B5044680B1B0F5806F0DD08F
:1086E800B0F5A06F0AD0B0F5C06F07D0B0F5E06F55
:1086F80004D006484FF4267101F030F9044B58684D
:1087080020F4605040EAC400586010BD287A01087F
:108718000010024010B4294B5B6803F00C03042BD3
:1087280005D0082B06D013BB254B036021E0254B51
:1087380003601EE0214A53685268C3F3834302333F
:1087480012F4803F04D1204A02FB03F3036010E0D7
:108758001A4A526812F4003F04D01C4A02FB03F381
:10876800036006E0174A02FB03F3036001E0144BC1
:108778000360124A5368C3F30313154CE15CC9B292
:108788000368CB4043605168C1F30221615CC9B200
:1087980023FA01F181605168C1F3C221615CC9B259
:1087A800CB40C3605268C2F381320A498A5CD2B2B4
:1087B800B3FBF2F303615DF8044B7047001002400D
:1087C80000127A00001BB70000093D00808D5B0095
:1087D800080000200400002038B504460D4620F4A7
:1087E800AA6323F0070303B920B90C4840F22B41D0
:1087F80001F0B4F8012D04D9084840F22C4101F0E9
:10880800ADF825B1064B5A6914435C6138BD044A7A
:10881800536923EA0404546138BD00BF287A01086B
:108828000010024038B504460D460E4B034003B90C
:1088380020B90D4840F24A4101F090F8012D04D9C1
:10884800094840F24B4101F089F825B1074B9A6974
:1088580014439C6138BD054A936923EA0404946172
:1088680038BD00BF0200C0FF287A0108001002408E
:1088780038B504460D460E4B184200D120B90D48B4
:1088880040F2694101F06AF8012D04D9094840F223
:108898006A4101F063F825B1074BDA691443DC61DA
:1088A80038BD054AD36923EA0404D46138BD00BF42
:1088B80000360181287A01080010024010B50446EC
:1088C800212818D0312816D0392814D0412812D0A0
:1088D800612810D07A280ED07B280CD07C280AD0AA
:1088E8007D2808D07E2806D07F2804D00D4840F285
:1088F800345101F033F86309012B02D10A4B1B688C
:1089080006E0022B02D1084B1B6A01E0064B5B6AAA
:1089180004F01F04E34013F0010F01D0012010BD43
:10892800002010BD287A01080010024000B583B06D
:10893800002301933120FFF7C1FF019B013301930D
:10894800019BB3F5A06F01D00028F3D03120FFF7C9
:10895800B5FF08B1012000E0002003B05DF804FB7A
:10896800024A536A43F08073536270470010024012
:108978002DE9F04105460C46464B98420BD0A3F52D
:108988007843984207D003F58063984203D0424861
:10899800A32100F0E3FF238863B1B3F5806F09D00A
:1089A800B3F5004F06D0B3F5404F03D03A48A6219F
:1089B80000F0D4FF6388B3F5827F04D01BB136483A
:1089C800A72100F0CBFFA388B3F5006F04D01BB13B
:1089D8003148A82100F0C2FFE3882BB1022B03D055
:1089E8002D48A92100F0BAFF2389012B03D92A4871
:1089F800AA2100F0B3FF6389B3F5007F04D01BB14F
:108A08002548AB2100F0AAFFA3898BB1082B0FD012
:108A1800102B0DD0182B0BD0202B09D0282B07D0CA
:108A2800302B05D0382B03D01B48AC2100F096FF23
:108A3800E3892BB1802B03D01748AD2100F08EFFBE
:108A4800238A1BB91448AE2100F088FF2B8803F451
:108A5800415720886688A188B4F806802289B4F82E
:108A68000AC0A389B4F80EE03043084348EA00017D
:108A780011434CEA01021A434EEA02033B432B809E
:108A8800AB8B23F400631B041B0CAB83238A2B8260
:108A9800BDE8F08100300140587A010838B5044635
:108AA8000D46124B98420CD0A3F57843984208D053
:108AB80003F58063984204D00D4840F2B71100F0E6
:108AC8004DFF012D04D90A484FF4DC7100F046FF30
:108AD8002DB123889BB243F04003238038BD2388FF
:108AE80023F040031B041B0C238038BD00300140D9
:108AF800587A010870B505460C461646164B98423A
:108B08000CD0A3F57843984208D003F580639842C7
:108B180004D012484FF4087100F020FF012E04D948
:108B28000E4840F2212100F019FF24F003039BB204
:108B380003B924B9094840F2222100F00FFF26B1F9
:108B4800AB889BB21C43AC8070BDAB88E443A4B235
:108B58001C40AC8070BD00BF00300140587A01084D
:108B680038B504460D46094B98420CD0A3F5784316
:108B7800984208D003F58063984204D0044840F234
:108B88003A2100F0EBFEA58138BD00BF003001405E
:108B9800587A010810B50446094B98420CD0A3F541
:108BA8007843984208D003F58063984204D005487A
:108BB80040F24A2100F0D2FEA08980B210BD00BF69
:108BC80000300140587A010838B505460C46164B66
:108BD80098420CD0A3F57843984208D003F58063F7
:108BE800984204D0114840F2163100F0B7FE802CAC
:108BF80012D0402C10D0202C0ED0102C0CD0082CC9
:108C08000AD0042C08D0022C06D0012C04D0074826
:108C180040F2173100F0A2FE2B891C4201D001203E
:108C280038BD002038BD00BF00300140587A010827
:108C380038B504460D46524B984242D0B0F1804FA9
:108C48003FD0A3F5943398423BD003F58063984214
:108C580037D003F58063984233D003F58063984298
:108C68002FD003F5806398422BD003F590339842B8
:108C780027D003F5C053984223D003F58063984268
:108C88001FD003F5806398421BD0A3F59E3398420A
:108C980017D003F58063984213D003F58063984298
:108CA8000FD003F5903398420BD003F580639842B8
:108CB80007D003F58063984203D03248E72100F0DB
:108CC8004DFE6B885BB1102B09D0202B07D0402BB1
:108CD80005D0602B03D02B48E82100F03FFEEB883D
:108CE8004BB1B3F5807F06D0B3F5007F03D025489C
:108CF800E92100F033FE23889BB2214A944212D026
:108D080002F5006294420ED0B4F1804F0BD0A2F568
:108D18009832944207D002F58062944203D002F55B
:108D28008062944203D123F070036A881343164A81
:108D3800944208D002F58062944204D023F4407330
:108D48009BB2EA8813432380AB88A3852B882385AD
:108D58000B4B9C420FD003F500639C420BD003F5EC
:108D680040639C4207D003F580639C4203D003F51F
:108D780080639C4201D12B7A23860123A38238BDCC
:108D8800002C0140887A01080010004038B50446DC
:108D98000D462E4B984243D0B0F1804F40D0A3F5FA
:108DA800943398423CD003F58063984238D003F559
:108DB8008063984234D003F58063984230D003F53D
:108DC800806398422CD003F59033984228D003F55D
:108DD800C053984224D003F58063984220D003F50D
:108DE800806398421CD0A3F59E33984218D003F5AF
:108DF8008063984214D003F58063984210D003F53D
:108E0800903398420CD003F58063984208D003F55C
:108E18008063984204D00E4840F2293100F09EFD4C
:108E2800012D04D90A4840F22A3100F097FD2DB1EE
:108E380023889BB243F00103238038BD238823F0A5
:108E480001031B041B0C238038BD00BF002C01400C
:108E5800887A010870B504460D461646314B98428B
:108E680043D0B0F1804F40D0A3F5943398423CD022
:108E780003F58063984238D003F58063984234D074
:108E880003F58063984230D003F5806398422CD074
:108E980003F59033984228D003F5C053984224D064
:108EA80003F58063984220D003F5806398421CD074
:108EB800A3F59E33984218D003F58063984214D0E6
:108EC80003F58063984210D003F5903398420CD094
:108ED80003F58063984208D003F58063984204D074
:108EE800114840F26B3100F039FD15F47F4F00D185
:108EF80025B90D484FF45B7100F030FD012E04D9FF
:108F0800094840F26D3100F029FD26B1A3899BB2D2
:108F18001D43A58170BDA389ED43ADB21D40A58158
:108F280070BD00BF002C0140887A010870B5044666
:108F38000E461546284B984243D0B0F1804F40D09A
:108F4800A3F5943398423CD003F58063984238D017
:108F580003F58063984234D003F58063984230D09B
:108F680003F5806398422CD003F59033984228D0BB
:108F780003F5C053984224D003F58063984220D06B
:108F880003F5806398421CD0A3F59E33984218D00D
:108F980003F58063984214D003F58063984210D09B
:108FA80003F5903398420CD003F58063984208D0BB
:108FB80003F58063984204D0084840F29B4100F0D2
:108FC800CDFC012D04D9054840F29C4100F0C6FCB7
:108FD8002685A58270BD00BF002C0140887A010853
:108FE80038B504460D462A4B984243D0B0F1804F1D
:108FF80040D0A3F5943398423CD003F5806398425F
:1090080038D003F58063984234D003F580639842E2
:1090180030D003F5806398422CD003F59033984202
:1090280028D003F5C053984224D003F580639842B2
:1090380020D003F5806398421CD0A3F59E33984254
:1090480018D003F58063984214D003F580639842E2
:1090580010D003F5903398420CD003F58063984202
:1090680008D003F58063984204D00A4840F63621B8
:1090780000F074FC15F4614F00D125B9054840F69D
:10908800372100F06BFCED43ADB2258238BD00BF3F
:10909800002C0140887A010838B504460D46344B47
:1090A800984243D0B0F1804F40D0A3F59433984212
:1090B8003CD003F58063984238D003F5806398422A
:1090C80034D003F58063984230D003F5806398422A
:1090D8002CD003F59033984228D003F5C05398421A
:1090E80024D003F58063984220D003F5806398422A
:1090F8001CD0A3F59E33984218D003F5806398429C
:1091080014D003F58063984210D003F59033984249
:109118000CD003F58063984208D003F58063984229
:1091280004D0144840F6582100F018FC6B1E9BB27E
:10913800012B10D9042D0ED0082D0CD0102D0AD0DB
:10914800202D08D0402D06D0802D04D0094840F6A7
:10915800592100F003FC228AA3892B40154202D032
:109168001BB9002038BD002038BD012038BD00BF24
:10917800002C0140887A010838B504460D462A4B70
:10918800984243D0B0F1804F40D0A3F59433984231
:109198003CD003F58063984238D003F58063984249
:1091A80034D003F58063984230D003F58063984249
:1091B8002CD003F59033984228D003F5C053984239
:1091C80024D003F58063984220D003F58063984249
:1091D8001CD0A3F59E33984218D003F580639842BB
:1091E80014D003F58063984210D003F59033984269
:1091F8000CD003F58063984208D003F58063984249
:1092080004D00A4840F6822100F0A8FB15F47F4FED
:1092180000D125B9054840F6832100F09FFBED43B6
:10922800ADB2258238BD00BF002C0140887A010804
:1092380030B587B004460D46654B984213D0A3F568
:10924800744398420FD003F5806398420BD003F51E
:109258008063984207D003F58063984203D05D4845
:10926800B82100F07BFB2B68013B5B4A934203D992
:109278005848B92100F072FBAB8833B1B3F5805F71
:1092880003D05448BA2100F069FBEB8863B1B3F509
:10929800805F09D0B3F5005F06D0B3F5405F03D017
:1092A8004C48BB2100F05AFB2B894BB1B3F5806FBA
:1092B80006D0B3F5C06F03D04648BC2100F04EFB82
:1092C8006A8922F00C039BB203B91AB94148BD213F
:1092D80000F044FBAB8963B1B3F5807F09D0B3F5E7
:1092E800007F06D0B3F5407F03D03A48BE2100F096
:1092F80035FBAB8973B1364B9C420BD0A3F5744355
:109308009C4207D003F580639C4203D03148C221B8
:1093180000F024FB238A23F440531B041B0CEA8827
:1093280013432382A3899BB223F4B05323F00C0187
:10933800A8882A896B89024313430B43A381A38A14
:1093480023F440731B041B0CAA891343A38201A8AE
:10935800FFF7E0F91E4B9C4201D1049B00E0039B00
:10936800A28912B2002A08DA03EB830303EB830312
:1093780029684900B3FBF1F107E003EB830303EB32
:10938800830329688900B3FBF1F1144BA3FB012384
:1093980058090501642300FB1313A28912B2002A9D
:1093A80009DAD90032310D4AA2FB0131C1F3421268
:1093B80042EA050307E01B013233084AA2FB0323F4
:1093C800C3F343132B439BB2238107B030BD00BFC7
:1093D80000380140B87A01081FAA44001F85EB51E4
:1093E80070B505460C46234B98420CD0A3F5744340
:1093F800984208D003F58063984204D01E484FF481
:10940800997100F0ABFA23883BB1B3F5006F04D033
:10941800194840F2331100F0A1FA63883BB1B3F563
:10942800806F04D014484FF49A7100F097FAA3881B
:109438003BB1B3F5007F04D00F4840F2351100F07E
:109448008DFAE3883BB1B3F5807F04D00A484FF426
:109458009B7100F083FA2B8A23F470631B041B0CA6
:1094680026886188A288E08831430A43024313436F
:109478002B8270BD00380140B87A010838B504461F
:109488000D46164B984214D0A3F57443984210D059
:1094980003F5806398420CD003F58063984208D0A6
:1094A80003F58063984204D00D484FF4B17100F081
:1094B80055FA012D04D90A4840F2631100F04EFA1A
:1094C8002DB1A3899BB243F40053A38138BDA3896E
:1094D80023F400531B041B0CA38138BD0038014042
:1094E800B87A010870B504460D461646364B9842C0
:1094F80014D0A3F57443984210D003F580639842C2
:109508000CD003F58063984208D003F58063984235
:1095180004D02E4840F2891100F020FA282D1ED0E0
:1095280040F227739D421AD040F226639D4216D01E
:1095380040F225539D4212D040F224439D420ED062
:1095480040F646039D420AD040F66A139D4206D073
:10955800602D04D01D484FF4C57100F0FFF9012EAD
:1095680004D91A4840F28B1100F0F8F940F66A1352
:109578009D420FD1144B9C420CD0A3F574439C42DE
:1095880008D003F580639C4204D0104840F28F1144
:1095980000F0E4F9C5F3421205F01F050123AB40C2
:1095A800012A01D10C3404E0022A01D1103400E070
:1095B80014341EB122681343236070BD226822EA66
:1095C8000303236070BD00BF00380140B87A01086A
:1095D80038B504460D46124B984214D0A3F574438F
:1095E800984210D003F5806398420CD003F580634D
:1095F800984208D003F58063984204D0094840F2A5
:109608005F2100F0ABF9B5F5007F04D305484FF4AE
:10961800187100F0A3F9C5F30805A58038BD00BF8F
:1096280000380140B87A010810B504460D4B98423D
:1096380014D0A3F57443984210D003F58063984280
:109648000CD003F58063984208D003F580639842F4
:1096580004D005484FF41C7100F080F9A088C0F3CD
:10966800080010BD00380140B87A010838B5054631
:109678000C46264B984214D0A3F57443984210D058
:1096880003F5806398420CD003F58063984208D0B4
:1096980003F58063984204D01D4840F2863100F0FB
:1096A8005DF9012C18D0802C16D0402C14D0202C19
:1096B80012D0102C10D0B4F5807F0DD0B4F5007FF7
:1096C8000AD0082C08D0042C06D0022C04D010484C
:1096D80040F2873100F042F9B4F5007F0FD10B4B0F
:1096E8009D420CD0A3F574439D4208D003F58063D6
:1096F8009D4204D0064840F28B3100F02FF92B88A8
:109708001C4201D0012038BD002038BD003801407E
:10971800B87A010838B505460C463B4B984214D038
:10972800A3F57443984210D003F5806398420CD097
:1097380003F58063984208D003F58063984204D00B
:10974800324840F2D93100F009F9282C25D040F2EE
:1097580027739C4221D040F226639C421DD040F2E0
:1097680025539C4219D040F224439C4215D040F620
:1097780046039C4211D040F66A139C420DD0B4F5C2
:10978800587F0AD0B4F5187F07D0B4F5B07F04D05D
:109798001E4840F2DA3100F0E1F840F66A139C42C4
:1097A8000FD1194B9D420CD0A3F574439D4208D0AC
:1097B80003F580639D4204D0144840F2DE3100F086
:1097C800CDF8C4F3421204F01F0101238B40012A93
:1097D80003D1AA8992B2134008E0022A03D12A8A47
:1097E80092B2134002E0AA8A92B21340240A0122DC
:1097F800A240298889B20A4013B11AB9002038BD9D
:10980800002038BD012038BD00380140B87A010871
:1098180038B505460C46244B984214D0A3F574433A
:10982800984210D003F5806398420CD003F580630A
:10983800984208D003F58063984204D01B4840F250
:10984800224100F08BF840F226639C4210D040F28F
:1098580025539C420CD040F646039C4208D040F663
:109868006A139C4204D0114840F2234100F076F874
:1098780040F66A139C420FD10B4B9D420CD0A3F5C6
:1098880074439D4208D003F580639D4204D0074885
:1098980040F2274100F062F8240A0123A340DB4389
:1098A8009BB22B8038BD00BF00380140B87A010850
:1098B800FEE700BF08B5034800F076F80120FFF77F
:1098C800F7FF00BFEC7A010808B50D4B1B6813B908
:1098D8000C4A0B4B1A600A4B1A68C31C23F003038B
:1098E800134409498B4206D90CF03CFD0C23036054
:1098F8004FF0FF3008BD02490B60104608BD00BF9D
:10990800A0010020C83A002000B80020012303600D
:10991800014B0B60704700BF1800002008B50CF021
:1099280021FD582303604FF0FF3008BD08B50CF047
:1099380019FD582303604FF0FF3008BD08B50CF03F
:1099480011FD58230360002008BD00BF08B50CF0C6
:1099580009FD582303604FF0FF3008BD08B50346E2
:109968000A460348194600F005F8FFF7A3FF00BFB1
:10997800407B01080FB400B583B004AB53F8042B47
:109988000193084880210DF00FF8011E03DD0548FA
:1099980000F03EF80146084603B05DF804EB04B059
:1099A800704700BFA801002010B504460CF0ADFEBA
:1099B8000146204600F02CF80248012100F028F862
:1099C80010BD00BF0C9B010810B400221AE04FF034
:1099D8006043D3F8803E13F0010F06D04FF0604388
:1099E800D3F8003E13F0010F01D110460DE04FF0FF
:1099F80060431B68002BFAD004784FF060431C705A
:109A0800013201308A42E2D308465DF8044B7047C0
:109A180008B5FFF7D9FF08BD08B500F067F808BD1D
:109A280082B00023019300932C4A136843F48033D7
:109A380013602A4B1B6803F400330093019B013326
:109A48000193009B1BB9019BB3F5A06FF1D1234B88
:109A58001B6813F4003F02D00123009301E00023A8
:109A68000093009B012B36D11D4B1A6842F010025F
:109A78001A601A6822F003021A601A6842F0020299
:109A88001A60A3F580535A685A605A685A605A682F
:109A980042F480625A605A6822F47C125A605A680A
:109AA80042F4E8125A601A6842F080721A600B4B4E
:109AB8001B6813F0007FFAD0084B5A6822F00302A3
:109AC8005A605A6842F002025A60044B5B6803F01D
:109AD8000C03082BF9D102B0704700BF00100240F8
:109AE8000020024008B5FFF79BFF08BD08B5104BE2
:109AF8001A6842F001021A6059680E4A0A405A6010
:109B08001A6822F0847222F480321A601A6822F4E9
:109B180080221A605A6822F4FE025A604FF41F022B
:109B28009A60FFF7DFFF4FF00062034B9A6008BDB1
:109B3800001002400000FFF800ED00E008B54FF407
:109B4800C060FDF77DFB4FF000604FF4E041FDF78A
:109B5800E3FB62B608BD00BF08B57D20FEF7AEFE88
:109B680008B1FEF7FDFE45F25550FEF767FC0520EB
:109B7800FEF776FC40F6FF70FEF782FCFEF798FCD5
:109B880008BD00BF10B582B004460C4B53F8200046
:109B98000121FEF747FE0A4B33F81430ADF80430C4
:109BA80010238DF8073003238DF80630054B53F842
:109BB800240001A9FEF74AF902B010BD987B0108FC
:109BC800A07B01082000002008B50346044A52F88B
:109BD8002000044A32F81310FEF7B6FA08BD00BF99
:109BE80020000020A07B010808B50346044A52F86B
:109BF8002000044A32F81310FEF776FA08BD00BFB9
:109C080020000020A07B010808B50346044A52F84A
:109C18002000044A32F81310FEF70AFA08BD00BF04
:109C280020000020A07B010882B0019002E0019B87
:109C3800013B0193019B002BF9D102B0704700BF93
:109C480010B586B004460420FDF788FB01A8FEF78E
:109C580061FD1048029BA0FB0330800C04FB00F060
:109C68000138B0F1807F09D20B4B5860F0210B4AC4
:109C780082F8231000229A6007221A60064A1368A5
:109C880023F002031360044B1B6813F4803FFAD0DF
:109C980006B010BD83DE1B4310E000E000ED00E0DD
:109CA80008B54FF47A7303FB00F0FFF7C9FF08BD4E
:109CB80010B50A4C20464FF4DB7103F08BFE94F884
:109CC800B431AE2B05D194F8B531AE2B03D00120B9
:109CD80010BD012010BD002010BD00BFE013002002
:109CE80008B50548AE2380F8B43180F8B5314FF493
:109CF800DB7103F07BFE08BDE013002000207047F5
:109D080000207047B3B110B501280BD1012B03D146
:109D1800104600F017FB03E01046DAB200F090FBA3
:109D280050B910BD28B950025A0205F057F9002061
:109D380010BD10BD04207047012010BDDBB110B567
:109D48001C4601280BD1012B03D1104600F014FB4F
:109D580003E01046DAB200F0A7FB70B910BD48B9AD
:109D6800084B1B68012B0AD15002620205F0A4F9C6
:109D7800002010BD10BD04207047012010BD002038
:109D880010BD00BF2410002038B51546012820D189
:109D9800012919D011B1032911D033E01C484FF41F
:109DA8008061FEF7D1F900F0F3FB08B9002400E068
:109DB800012417484FF48061FEF796F925E04FF427
:109DC80000731380002420E000F072FA2860002459
:109DD8001BE0D0B9032917D8DFE801F0020F060B02
:109DE80005F03EF8002410E04FF4007313800024BF
:109DF8000BE001231380002407E04FF40063136095
:109E0800002402E0042400E00424204638BD00BFFA
:109E1800000C01400C4B1B68A3F2BC700B4B1B6879
:109E28005B0543EA40630A4A106843EA0043094A6B
:109E3800108843EAC023084A108843EA4013074AB7
:109E4800108843EA400070472800002034000020B2
:109E58002C0000203C0000203800002030000020AA
:109E680000B583B04FF48063ADF8043003238DF858
:109E7800063010238DF80730034801A9FDF7E6FFE7
:109E880003B05DF804FB00BF000C014038B505467F
:109E980040F6FF7401E0013CA4B2FF2000F0B8FBDB
:109EA800A84201D0002CF6D10CB9FF2038BD002003
:109EB80038BD00BF10B50024FF2000F0A9FB00F05A
:109EC8001F004FF6FE739C4219D001340B2804D0B2
:109ED8000D2816D0052802D102E00B2010BDFF2066
:109EE800FF28E9D0002403E0013414F1030F0AD855
:109EF800FF2000F08DFB0028F6D0002010BD0120C7
:109F080010BD0D2010BDFF2010BD00BFF8B50746DD
:109F18000C4616461F4D28464FF48061FEF7E4F8BC
:109F2800FF2000F075FBFF2000F072FBFF2000F01F
:109F38006FFB28464FF48061FEF706F947F04000B2
:109F480000F066FB200E00F063FBC4F3074000F04E
:109F58005FFBC4F3072000F05BFBE0B200F058FBA6
:109F6800304600F055FB002403E00134A4B2FF2C76
:109F780005D8FF2000F04CFB0546FF28F5D0054822
:109F88004FF48061FEF7B0F8FF2000F041FB28464F
:109F9800F8BD00BF000C014070B506460C461546DA
:109FA800FF2000F035FBFF2000F032FB12484FF491
:109FB8008061FEF7C9F846F0400000F029FB200E4A
:109FC80000F026FBC4F3074000F022FBC4F307208F
:109FD80000F01EFBE0B200F01BFB284600F018FB67
:109FE800002403E00134A4B2FF2C04D8FF2000F0C1
:109FF8000FFBFF28F6D070BD000C0140002301E0E4
:10A0080001339BB2B3F5706FFAD310B5002404E0A6
:10A01800FF2000F0FDFA0134A4B2092CF8D900247D
:10A02800002001469522FFF771FF0134A4B20128F0
:10A0380001D0FE2CF4D9FF2C01D1012010BD002045
:10A0480010BD00BF30B587B073484FF48061FEF78C
:10A058004BF80023ADF804304FF48272ADF80620B7
:10A06800ADF808300222ADF80A200124ADF80C4002
:10A078004FF40072ADF80E203822ADF81020ADF87C
:10A0880012300723ADF81430644D284601A9FEF7B5
:10A098006FFC28462146FEF701FD042000F080FAF7
:10A0A800FF2000F0B5FAFFF7A9FF002840F0AC80C8
:10A0B80059484FF48061FEF747F808204FF4D571EE
:10A0C8008722FFF769FF0446052846D10222544B30
:10A0D8001A7051484FF48061FEF736F8FF2000F0FF
:10A0E80097FA0024372000210A46FFF70FFFFF28C0
:10A0F80000F08F80292000210A46FFF707FF01346E
:10A10800A4B208B1FE2CEDD9FF2C0FD100240120F8
:10A1180000210A46FFF7FAFE0134A4B208B1FE2C6A
:10A12800F5D9FF2C72D001223D4B1A70012000F0A6
:10A1380037FAFF2000F06CFA3B2000219522FFF748
:10A14800E5FE002864D110204FF400719522FFF736
:10A15800DDFE0446002855D05BE0012852D1FF20DF
:10A1680000F056FAFF2000F053FAFF2000F050FAF2
:10A17800FF2000F04DFA28484FF48061FDF7B4FF46
:10A18800FF2000F045FA372000210A46FFF7BEFEFF
:10A1980001283ED129204FF080410022FFF7B6FE6A
:10A1A8000028F0D13A2000210A46FFF7F5FE0446C0
:10A1B80030B119484FF48061FDF796FF204628E03A
:10A1C800FF2000F025FA0546FF2000F021FAFF20C5
:10A1D80000F01EFAFF2000F01BFA0F484FF48061D0
:10A1E800FDF782FFFF2000F013FA15F0400F03D0AF
:10A1F80004220B4B1A7002E00322094B1A7001204B
:10A2080000F0CEF9204604E0012002E0012000E041
:10A21800FFE707B030BD00BF000C01400038004028
:10A228002C0200202DE9F04106460D4690461748BD
:10A238004FF48061FDF788FFFE20FFF727FE0746F1
:10A2480060B112484FF48061FDF74EFF01271AE014
:10A25800FF2000F0DDF906F8010B25466B1E9CB2C5
:10A26800002DF5D1FF2000F0D3F9FF2000F0D0F940
:10A27800B8F1010F07D105484FF48061FDF734FFAD
:10A28800FF2000F0C5F93846BDE8F081000C014018
:10A2980010B5044609200021FF22FFF737FE30B928
:10A2A800204610210122FFF7BDFF002010BD10BD80
:10A2B80000B585B06846FFF7EBFF00283ED19DF852
:10A2C800003003F0C003402B08D19DF808009DF82A
:10A2D800093003EB00200130C00430E09DF806008F
:10A2E80000F003009DF807209DF808309B0902EB59
:10A2F800002003EB80009DF8093003F003029DF86D
:10A308000A30DB0903EB42030233012203E0520067
:10A3180092B2013BDBB2002BF9D100FB02229DF87F
:10A32800053003F00F03012003E0400080B2013B39
:10A338009BB2002BF9D102FB00F000E0002005B031
:10A348005DF804FB10B503460C460A4A1278042A45
:10A3580000D04302112019460022FFF7D7FD38B973
:10A3680020464FF400710122FFF75CFF08B910BDC9
:10A3780010BD10BD2C02002070B503460D462E4AB4
:10A388001278042A00D04302182019460022FFF749
:10A39800BDFD00284ED129484FF48061FDF7D4FE59
:10A3A800FF2000F035F9FF2000F032F9FF2000F01F
:10A3B8002FF9FE2000F02CF9002406E06E1C287806
:10A3C80000F026F90134A4B23546B4F5007FF5D380
:10A3D800FF2000F01DF9FF2000F01AF9FF2000F01F
:10A3E80017F9044600F01F03052B13D013484FF448
:10A3F8008061FDF779FE204670BD0134A4B24FF6A6
:10A40800FF739C4207D10D484FF48061FDF76CFE45
:10A41800012070BD0024FF2000F0FAF80028ECD0DD
:10A4280006484FF48061FDF75FFEFF2000F0F0F86A
:10A43800002070BD70BD00BF2C020020000C014040
:10A4480038B503460D461446154A1278042A00D03A
:10A458004302122019460022FFF758FDE0B92846AA
:10A468004FF400710022FFF7DDFE28B905F50075ED
:10A47800601E10F0FF04F2D10C2000210A46FFF7FD
:10A4880045FD08484FF48061FDF72EFEFF2000F0DF
:10A49800BFF814B9002038BD38BD204638BD00BF0C
:10A4A8002C020020000C0140F8B504460D46174662
:10A4B800354B1B78042B00D04402012B04D0172005
:10A4C80039460022FFF722FD192021460022FFF716
:10A4D8001DFD0446002854D12C484FF48061FDF737
:10A4E80033FEFF2000F094F8FF2000F091F8FC20E4
:10A4F80000F08EF8002406E06E1C287800F088F83A
:10A508000134A4B23546B4F5007FF5D3FF2000F03E
:10A518007FF8FF2000F07CF8FF2000F079F804466F
:10A5280000F01F03052B05D018484FF48061FDF794
:10A53800DBFD26E0FFF7BEFC0446012805D11348E1
:10A548004FF48061FDF7D0FD1BE07B1E13F0FF0781
:10A55800CDD1FD2000F05CF800B9FE27FFF7AAFC7A
:10A5680030B10A484FF48061FDF7BEFD012408E0D0
:10A5780006484FF48061FDF7B7FDFF2000F048F86A
:10A588003C462046F8BD00BF2C020020000C0140CC
:10A5980008B5FF2000F03CF8FF28FAD1002008BDDC
:10A5A8001A4A138823F038031B041B0C1380042851
:10A5B80024D8DFE800F003080F161D00134A13889B
:10A5C8009BB213801AE0114A13889BB243F0080328
:10A5D800138013E00D4A13889BB243F010031380D5
:10A5E8000CE00A4A13889BB243F01803138005E075
:10A5F800064A13889BB243F038031380034A138832
:10A608009BB243F040031380704700BF00380040FE
:10A6180038B50546002404E00134A4B2B4F5C87F77
:10A628001BD810480221FEF7CFFA0028F4D00D48B5
:10A638002946FEF795FA002404E00134A4B2B4F5E3
:10A64800C87F0CD807480121FEF7BEFA0028F4D0CD
:10A658000448FEF79FFAC0B238BD002038BD00207C
:10A6680038BD00BF0038004010B586B007F0C2FA08
:10A6780004460DF1060006F0A9F90DF10E0006F0EA
:10A68800B1F90DF10A0006F0B9F90DF1120006F062
:10A69800C1F9684604F12101062207F05DFB04F1C7
:10A6A80027000DF10601042207F05AFB04F12B00E4
:10A6B8000DF10E01042207F053FB04F12F000DF1F8
:10A6C8000A01042207F04CFB04F14F000DF11201BE
:10A6D800042207F045FB94F84D301BB102238DF896
:10A6E800163002E001238DF816300020694607F085
:10A6F80057FA06B010BD00BF704700BF04E00A78E3
:10A7080002701A4601310130531E002AF7D17047F2
:10A7180002E001701A460130531E002AF9D1704731
:10A7280070B4002301E029463046541E32B1461C5D
:10A7380003784D1C087822461B1AF4D0184670BCC2
:10A74800704700BF00E00130037813B15AB28A4263
:10A75800F9D158B2704700BFCA7E8B7E43EA022304
:10A768000278032A05D1487D0A7D42EA002243EA9D
:10A7780002431846704700BF8176C1F30723C376AA
:10A78800090C0175090A4175704700BFF0B44B7395
:10A798000F23CB7200250D738D76CD76531E03EBF8
:10A7A800430603EB86062B464FF6FF74A34202D0FE
:10A7B80030F8163001360C4C645D0B5501341F0A15
:10A7C8000F550BB94FF6FF7301350C2DECD94FF629
:10A7D800FF74A34202D030F816300BB942F04002A1
:10A7E8000A70F0BC704700BF947C010870B582B055
:10A7F800054616461C460B22FFF780FF052C12D88B
:10A8080014E0023600220CE003F0010101EB4404DD
:10A818005B0814F4803F03D084F4883484F0210466
:10A8280001320F2AF0D93388002BEAD1072000E043
:10A83800084604F00F0202F13003392B01D902F166
:10A848003703411E02AA024402F8083C2409EFD14A
:10A858007E2202AB0B4403F8082C002308E07F3269
:10A86800D2B27D2A03D8821E9A4206D00133013320
:10A878008B4202D2EA5C202AF1D15A1C2B440729C8
:10A8880005D802A8084410F8080C013100E020207F
:10A8980018701346072AF0D902B070BD0B210023A7
:10A8A800DA0142EA53030278134403F0FF0301304C
:10A8B8000139F5D11846704710B4046824B94FF02F
:10A8C800FF3323E0013200E022461378D9B21F2972
:10A8D80002D959B23A29F5D15BB23A2B15D1611C8C
:10A8E80094F90030303B092B06D8914207D1012B4F
:10A8F80008D80132026009E04FF0FF3306E04FF05C
:10A90800FF3303E04FF0FF3300E0002318465DF803
:10A91800044B7047F8B5037903B30446C66A00F1DF
:10A9280030074078394632460123FFF707FAB8B9AD
:10A9380000232371236AF31AA269934212D2E5789D
:10A9480008E0A3691E446078394632460123FFF7C0
:10A95800F5F9013D012DF4D80020F8BD0020F8BD1F
:10A968000120F8BD0020F8BD70B504460D46C36A45
:10A978008B4210D0FFF7CEFF064668B9607804F125
:10A9880030012A460123FFF7BDF910B101264FF027
:10A99800FF35E56200E00026304670BD10B504467C
:10A9A800002303714FF0FF33C362FFF7DDFF80BB65
:10A9B80094F82F2294F82E3243EA02231BB2194A44
:10A9C800934228D194F8692094F868301B0443EA2C
:10A9D800026394F8672043EA022394F8662013433D
:10A9E80023F07F43104A934217D094F8852094F8B7
:10A9F80084301B0443EA026394F8832043EA022369
:10AA080094F88220134323F07F43074A934206D1E8
:10AA180010BD032010BD022010BD002010BD012074
:10AA280010BD00BF55AAFFFF4641540080B108B5CC
:10AA380003687BB1197879B1D988828891420DD1A0
:10AA48005878FFF75DF910F0010F09D0032008BD11
:10AA580009207047092008BD092008BD092008BD44
:10AA6800002008BDF0B585B00546174600230360F1
:10AA78000846FFF721FF061EC0F29381CA4B53F820
:10AA88002640002C00F09C812C60237873B16078FC
:10AA9800FFF736F910F0010F08D1002F00F092816E
:10AAA80010F0040F40F090810020ACE100232370E7
:10AAB800BE4B13F816006070FFF720F910F0010F75
:10AAC80040F084811FB110F0040F40F081812046CE
:10AAD8000021FFF763FF012822D0002841D1B34BA2
:10AAE80003EB46035B78EBB900273BE004EB02136A
:10AAF80093F8F21103F5F77351B1D87A997A0904EA
:10AB080041EA0061587A41EA00211B7A194300E0C2
:10AB1800002104AB03EB820343F8101C013202E06E
:10AB2800002200E00022032AE0D9A04B03EB4603F1
:10AB38005D7805B1013D04AB03EB850353F8107C48
:10AB480027B120463946FFF729FF00E00220974B3E
:10AB580003EB46035B782BB920B10135032DEAD905
:10AB680000E00027032800F03581002840F03481F8
:10AB780094F83C2094F83B3043EA02231BB2B3F527
:10AB8800007F40F02B8194F8471094F8463053EA40
:10AB980001210DD194F8572094F856301B0443EA4C
:10ABA800026394F8551043EA012394F854101943AA
:10ABB800A16194F84020E270531EDBB2012B00F231
:10ABC8000F8101FB02F694F83D30A370002B00F0D2
:10ABD80009815A1E134240F0078194F842E094F824
:10ABE800412042EA0E2EA4F808E01EF00F0F40F0B4
:10ABF800FD8094F8440094F8432052EA00220DD1D5
:10AC080094F8530094F85220120442EA006294F82F
:10AC1800510042EA002094F85020024394F83F5033
:10AC280094F83E0050EA052000F0E28000EB060CA4
:10AC38000CEB1E1C6245C0F0DD80CCEB0202B2FBBF
:10AC4800F3F3002B00F0D88040F6F572934201D858
:10AC5800012500E002254FF6F572934200D903253D
:10AC680002336361E7613A18226207EB0C00A062C5
:10AC7800032D14D1BEF1000F40F0C08094F85F009E
:10AC880094F85E20120442EA006294F85D0042EAF9
:10AC9800002294F85C00024362629B000FE0BEF160
:10ACA800000F00F0AD8032446262022D01D15B00DA
:10ACB80005E003EB430203F0010303EB520303F245
:10ACC800FF13B1EB532FC0F09D804FF0FF3323618A
:10ACD800E36080236371032D5AD194F8612094F8BE
:10ACE800603043EA02231BB2012B51D12046791C64
:10ACF800FFF73AFE00284BD10023637194F82F2206
:10AD080094F82E3243EA02231BB2294A93423FD1D8
:10AD180094F8332094F832301B0443EA026394F821
:10AD2800312043EA022394F830201343214A934206
:10AD38002ED194F8172294F816321B0443EA0263C2
:10AD480094F8152243EA022394F8142213431A4A6A
:10AD580093421DD194F81B2294F81A321B0443EA3B
:10AD6800026394F8192243EA022394F81822134341
:10AD7800236194F81F2294F81E321B0443EA0263ED
:10AD880094F81D2243EA022394F81C221343E3603B
:10AD980025700A4A138801339BB21380E380002090
:10ADA80031E00B202FE000BF3002002040000020DF
:10ADB80055AAFFFF52526141727241612E02002072
:10ADC8000C2020E000201EE00A201CE003201AE0EE
:10ADD8000A2018E0012016E00D2014E00D2012E0F2
:10ADE8000D2010E00D200EE00D200CE00D200AE0F3
:10ADF8000D2008E00D2006E00D2004E00D2002E003
:10AE08000D2000E00D2005B0F0BD00BF2DE9F04F8A
:10AE180083B0064688460F6800E001373B785AB28F
:10AE28002F2AFAD05C2AF8D0F5690024A14609F146
:10AE3800010217F9090080B21F2838D92F2836D007
:10AE48005C2834D0FE2C00F20F81C0B200F17F03E1
:10AE5800DBB27D2B16D802F10109BB5CA3F14102DC
:10AE6800D2B2192A0AD9A3F16102D2B2192A05D994
:10AE780003F17F02D2B27D2A00F2F88003EB0020B2
:10AE880080B200E09146012101F012FC82460028C0
:10AE980000F0EE807F2806D879485146FFF752FC2B
:10AEA800002840F0E78025F814A00134BFE71744D4
:10AEB800C8F800701F2802D84FF004080CE04FF0C3
:10AEC800000809E004F10043013B35F81330202B5A
:10AED80001D02E2B02D1013C002CF3D1002C00F024
:10AEE800CB80002725F81470B06920210B22FFF7CA
:10AEF8000FFC3B4600E0013335F81320202AFAD036
:10AF08002E2AF8D01BB148F0030800E0013C34B900
:10AF18004FF0080A4FF0000BCDF804B007E004F139
:10AF28000042013A35F812202E2AEFD1F0E703F15A
:10AF3800010935F81370002F6BD0202F03D02E2F66
:10AF480005D1A14503D048F003084B46EFE7D345A8
:10AF580001D2A14515D1BAF10B0F02D148F003086F
:10AF680057E0A14501D048F00308A14551D8019BFD
:10AF78009B00DBB2019323464FF00B0A4FF0080BFE
:10AF8800D5E77F2F08D9384601F0B0FB002101F042
:10AF98008FFB074648F00208FF2F10D90AF1FF334C
:10AFA8005B4504D848F003084B46D346BFE7B2696F
:10AFB8000BF10103C7F3072102F80B1023E027B1B7
:10AFC80030483946FFF7BEFB20B148F003085B461E
:10AFD8005F2718E0A7F141039BB2192B05D8019B05
:10AFE80043F0020301935B460DE0A7F161039BB2B6
:10AFF800192B07D8019B43F001030193203FBFB2EF
:10B008005B4600E05B46B26903F1010BD7544B463F
:10B018008DE7B3691A78E52A01D105221A70BAF1C9
:10B02800080F03D1019B9B00DBB20193019901F04A
:10B038000C020C2A03D001F00303032B01D148F0C2
:10B04800020818F0020F0AD1019B03F00303012B39
:10B0580001D148F01008042A01D148F00808B36962
:10B0680083F80B80002008E0062006E0062004E0B4
:10B07800062002E0062000E0062003B0BDE8F08FBD
:10B08800BC7B0108C87B01082DE9F84380460D46C2
:10B098000E7826F04006731E03EB430603EB860684
:10B0A800012700241D4B1B5D5A1CA85CEB5C43EA7E
:10B0B800002077B101F01AFB0746FE2E1BD806F1D7
:10B0C800010938F8160001F011FBB84216D14E46B6
:10B0D80003E04FF6FF73984213D101340C2CE1D9E9
:10B0E8002B7813F0400F0FD08FB138F816308BB98A
:10B0F8000120BDE8F8830020BDE8F8830020BDE802
:10B10800F8830020BDE8F8830120BDE8F88301201A
:10B11800BDE8F8830020BDE8F88300BF947C0108EF
:10B1280070B50446FFF7F6FB0546002854D123788E
:10B13800032B4AD16379012B47D104F130063046FD
:10B1480000214FF40072FFF7E3FA552384F82E32FA
:10B15800AA2384F82F32522384F8303084F831300F
:10B16800612384F83230412284F83320722184F834
:10B17800141284F8151284F8162284F817322369F9
:10B1880084F81832C3F3072284F81922C3F307425C
:10B1980084F81A221B0E84F81B32E36884F81C32E8
:10B1A800C3F3072284F81D22C3F3074284F81E2242
:10B1B8001B0E84F81F32E2690132E2626078314680
:10B1C8000123FEF7BBFD00236371607800210A4666
:10B1D800FEF7DAFD00B10125284670BD0239436942
:10B1E800023B8B4204D98378806A01FB03007047D5
:10B1F8000020704701295ED9F8B543698B425CD9B4
:10B208000C4605460378022B29D0032B38D0012B96
:10B2180055D101EB5106016A01EB5621FFF7A4FB5A
:10B2280000284ED1771CC6F308062E4496F83060E5
:10B23800296A284601EB5721FFF796FB002843D1DE
:10B24800C7F30800284490F8300046EA002014F0BC
:10B25800010F01D00009F8BDC0F30B00F8BD016A69
:10B2680001EB1421FFF780FB88BB610001F4FF713B
:10B278006B1893F8310093F8303043EA0020F8BD9A
:10B28800016A01EBD411FFF76FFB18BBA10001F4B1
:10B29800FE7101F130022A44D07893781B0443EA06
:10B2A8000063507843EA00200D4495F83030184385
:10B2B80020F07040F8BD012070470120F8BD012042
:10B2C800F8BD4FF0FF30F8BD4FF0FF30F8BD4FF03C
:10B2D800FF30F8BD4FF0FF30F8BD00BFF8B50546A8
:10B2E8000E46E9808468012C34D003685A69A2426A
:10B2F80032D91CB91A78032A00D15C6A24B91A8990
:10B30800B2422BD9586A17E09F783F010EE02868AF
:10B318002146FFF76FFF0446B0F1FF3F20D0012818
:10B3280020D92B685B6983421ED9F61BBE42EED238
:10B3380028682146FFF752FFEC60B8B100EB161001
:10B3480028612B6806F00F0603EB461630366E614F
:10B358000020F8BD0220F8BD0220F8BD0220F8BD8B
:10B368000120F8BD0220F8BD0220F8BD0220F8BD7A
:10B378002DE9F0410C4601297ED905461646436958
:10B388008B427BD90378022B42D0032B54D0012B5C
:10B3980076D101EB5107016A01EB5721FFF7E4FA77
:10B3A800034600286DD107F10108C7F3080714F018
:10B3B800010409D0EB1993F83020F3B202F00F0220
:10B3C80042EA0313DBB200E0F3B22F4487F83030CF
:10B3D80001232B71296A284601EB5821FFF7C4FA8B
:10B3E800034600284DD1C8F3080814B1C6F3071660
:10B3F80008E005EB080292F8302022F00F02C6F3AD
:10B4080003261643A84488F8306001222A7138E0E0
:10B41800016A01EB1421FFF7A7FA034688BB640011
:10B4280004F4FF742A1982F83060C6F3072682F8FC
:10B43800316001222A7124E0016A01EBD411FFF77F
:10B4480093FA0346E8B9A40004F4FE7404F1300248
:10B458002A44D17809062C4401F070410E4384F83F
:10B468003060C6F307215170C6F307419170360E5C
:10B47800D67001222A7104E0022302E0022300E0D0
:10B4880002231846BDE8F081F8B505460F4629B9EC
:10B49800C6687EB14369B3420ED90EE0FFF7AAFE33
:10B4A800012846D9B0F1FF3F48D06B69834245D89F
:10B4B8003E4602E0012600E00126344601346B696D
:10B4C800A34202D8012E36D9022428462146FFF786
:10B4D80091FE034648B1B0F1FF3F01D0012801D1E8
:10B4E8001846F8BDB442E9D127E0284621466FF056
:10B4F8007042FFF73DFF034630B92FB12846394661
:10B508002246FFF735FF03465BB9EC602B69B3F1C0
:10B51800FF3F0CD0013B2B616B7943F001036B714A
:10B5280005E0012B02D14FF0FF3400E00124204652
:10B53800F8BD0120F8BD0020F8BD0020F8BD00BF0F
:10B548002DE9F041C4880134A3B2002B66D0036909
:10B55800002B66D00E46054614F00F0755D101336F
:10B568000361C16821B903681B89A3425CD94CE017
:10B5780000688378013B13EA141346D1FFF73AFEBB
:10B588008046012853D9B0F1FF3F53D0286843695A
:10B59800434533D8002E50D0E968FFF775FF804641
:10B5A80000284DD001284ED0B0F1FF3F4ED028687A
:10B5B800FFF7B0F900284CD12868303000214FF44B
:10B5C8000072FFF7A5F82E6830464146FFF706FEE1
:10B5D800F06200260BE001221A712868FFF79AF939
:10B5E800002839D12A68D36A0133D36201362B681F
:10B5F8009A78B242EFD8DA6A921BDA62C5F80C8000
:10B6080028684146FFF7EAFD2861EC802B6803EBC8
:10B61800471330336B610020BDE8F0810420BDE89A
:10B62800F0810420BDE8F0810420BDE8F08102200B
:10B63800BDE8F0810120BDE8F0810420BDE8F0817B
:10B648000720BDE8F0810220BDE8F0810120BDE8B7
:10B65800F0810120BDE8F0810120BDE8F08100BF44
:10B668002DE9F04104460021FFF738FE00285FD19C
:10B678004FF6FF7323844FF0FF084746206821697F
:10B68800FFF772F9064600284FD165692B78002B21
:10B698004AD0EA7A02F03F01E52B04D012F0080FF5
:10B6A80006D00F2904D04FF6FF732384FF2733E019
:10B6B8000F291DD1E06978B313F0400F06D095F833
:10B6C8000D8003F0BF03E28822841F46BB4209D1E4
:10B6D8006B7B434508D12946FFF7D6FC30B1013FC3
:10B6E800FFB219E0FF2717E0FF2715E0FF2713E057
:10B6F80027B92846FFF7D2F8404516D0A169CB7A7A
:10B7080013F0010F04D128460B22FFF709F860B1A6
:10B718004FF6FF732384FF2720460021FFF710FF11
:10B7280006460028AAD000E004263046BDE8F0818D
:10B73800BDE8F08110B582B0044601910B785AB289
:10B748002F2A01D05C2A01D1013101910023A36085
:10B75800019B1B781F2B07D820460021FFF7BEFD51
:10B7680003460022626122E0204601A9FFF74EFB52
:10B778000346E0B92046FFF773FFA369DA7A034668
:10B7880028B1042813D112F0040F0DD00FE012F0E5
:10B79800040F0CD16169CB7A13F0100F06D0206822
:10B7A800FEF7DAFFA060DFE7052300E0052318466F
:10B7B80002B010BD70B504460E460021FFF78EFD9D
:10B7C8000246B8B9002520682169FFF7CDF802467E
:10B7D80080B963691B78E52B00D01BB90135B542E8
:10B7E80001D107E0002520460121FFF7A9FE024606
:10B7F8000028E8D0042A00D10722104670BD00BFF7
:10B808002DE9F04184B00546D0F81880C76901A831
:10B8180041460C22FEF772FF9DF80F3013F0010F1E
:10B828001CD0002388F80B30EB6101240BE0404664
:10B8380001A93A462346FEF7D9FF2846FFF710FF2D
:10B84800064610B90134632CF1D9642C5FD0042E5C
:10B858005FD19DF80F3088F80B30EF619DF80F30FD
:10B8680013F0020F03D101240BE0013300E00023A1
:10B8780037F81320002AF8D11933284CA4FB0334D5
:10B88800A40828462146FFF795FF064618BB013C49
:10B8980021D0E9882846091BFFF720FD0646D0B9C4
:10B8A800A869FEF7FBFF074628682969FFF75CF8D7
:10B8B800064680B9E8696969E2B23B46FEF766FF69
:10B8C8002B6801221A7128460021FFF739FE064627
:10B8D80008B9013CE8D1C6B928682969FFF744F8D6
:10B8E800064690B9686900212022FEF711FF6869B1
:10B8F800A9690B22FEF702FF6A69AB69DB7A03F0DC
:10B90800180313732B6801221A71304602E00720CE
:10B9180000E0304604B0BDE8F08100BF4FECC44EF3
:10B92800F8B50D46012926D9044643698B4224D926
:10B9380000271CE020462946FFF75CFC064608B3B2
:10B9480001281CD0B0F1FF3F1BD020462946002219
:10B95800FFF70EFD0746A8B92369B3F1FF3F05D0ED
:10B9680001332361637943F00103637135466369E9
:10B97800AB42DFD806E0022704E0022702E00227F4
:10B9880000E001273846F8BD10B584B00190009159
:10B99800144604A840F8041DFEF78EFF002816DBA5
:10B9A8000E4B53F820300BB100221A70019B0BB1DB
:10B9B80000221A70019B094A42F820304BB1012C31
:10B9C80009D101A869460022FFF74CF804E00B20D2
:10B9D80002E0002000E0002004B010BD300200208A
:10B9E8002DE9F043ADF50F7D0191002800F0A4800A
:10B9F800054616460023036002F01F0885A801A922
:10BA080002F01E02FFF72EF80446002840F092804C
:10BA180082AB8B9302AB8C9385A80199FFF78AFEC2
:10BA28008A9F044608B907B9062416F01C0F49D0A6
:10BA38004CB1042C03D185A8FFF7E2FE044648F078
:10BA480008088A9F0AE0FB7A13F0110F03D116F059
:10BA5800040F02D102E0072400E00824002C40D1A2
:10BA680018F0080F3DD0FEF7D5F9B873C0F30723D7
:10BA7800FB73C0F307433B74000E78740026FE7214
:10BA88003E777E77BE77FE7785983946FEF764FE67
:10BA9800814638463146FEF76FFE859801230371CB
:10BAA800B9F1000F1DD0C66A4946FFF739FF0446B1
:10BAB800B8B9859809F1FF33C3603146FEF754FFE2
:10BAC80004460EE06CB9FB7A13F0100F06D116F09D
:10BAD800020F06D013F0010F02D102E0042400E0A7
:10BAE800072444B918F0080F01D048F02008859BB6
:10BAF800DB6AEB612F62ECB985F806804FF000082D
:10BB080085F80780859E30463946FEF725FE286170
:10BB1800FA7FBB7F1B0443EA02637A7F43EA02236E
:10BB28003A7F1343EB60C5F80880C5F818802E608B
:10BB3800F388AB80204600E009200DF50F7DBDE8B5
:10BB4800F08300BF2DE9F84F0446884615461F4686
:10BB580000233B60FEF76AFF002840F0A980E079E7
:10BB6800002840F0A880A37913F0010F00F0A2800C
:10BB7800E668A368F61AB54200F294802E4691E072
:10BB8800A268C2F30803002B76D120688378013BB2
:10BB9800DBB213EA522913D10AB9206902E06169BC
:10BBA800FFF728FB012803D80220E071BDE8F88FD1
:10BBB800B0F1FF3F03D10120E071BDE8F88F60616B
:10BBC800D4F800A050466169FFF708FB054618B98C
:10BBD8000220E071BDE8F88F4D445FEA562B26D06D
:10BBE80009EB0B039AF80220934201D9C9EB020B27
:10BBF8009AF8010041462A465B46FEF783F818B1D9
:10BC08000120E071BDE8F88FA37913F0400F0BD045
:10BC1800A069401B584507D208EB402004F12401D5
:10BC28004FF40072FEF76AFD4FEA4B2532E0A26935
:10BC3800AA4220D0A37913F0400F0FD09AF8010040
:10BC480004F124010123FEF779F818B10120E0710D
:10BC5800BDE8F88FA37923F04003A371214651F87A
:10BC6800243B58782A460123FEF74CF818B10120E6
:10BC7800E071BDE8F88FA561A168C1F30801C1F5BD
:10BC88000075B54200D935462144404624312A463C
:10BC9800FEF734FDA844A3682B44A3603B682B44FB
:10BCA8003B60761B002E7FF46BAF0020BDE8F88F59
:10BCB800BDE8F88F0720BDE8F88F00BF38B5044607
:10BCC800FEF7B4FE0346002845D1A27912F0200FF2
:10BCD80041D012F0400F0DD0214651F8243B58783E
:10BCE800A2690123FEF72AF8002836D1A37923F0A8
:10BCF8004003A3712068E169FEF736FE034650BB96
:10BD0800256AEB7A43F02003EB72237B2B77A38918
:10BD18001B0A6B77A37BAB77E37BEB77284621691C
:10BD2800FEF72AFDFEF776F8A875C0F30723EB7532
:10BD3800C0F307432B76000E68760023AB74EB74D0
:10BD4800A37923F02003A371236801221A712068C4
:10BD5800FFF7E6F90346184638BD012038BD00BF95
:10BD680010B50446FFF7AAFF034630B92046FEF790
:10BD78005DFE034608B900222260184610BD00BFC8
:10BD8800F8B504460D46FEF751FE0646002840F079
:10BD9800A380E079002840F09F80E368AB4204D29A
:10BDA800A27912F0020F00D11D46A3680022A260FA
:10BDB800002D5CD0206887787F026BB16A1EB2FBC9
:10BDC800F7F2013BB3FBF7F18A4205D37A421340FD
:10BDD800A360ED1A616911E0216971B9FFF754FB9D
:10BDE8000146012802D10220E071F8BDB0F1FF3F01
:10BDF80002D10120E071F8BD2061616119BB002505
:10BE080038E0A37913F0020F05D02068FFF73CFB58
:10BE1800014620B91AE02068FFF7ECF90146B1F1B4
:10BE2800FF3F02D10120E071F8BD012903D9236841
:10BE38005B698B4202D80220E071F8BD6161A3689A
:10BE48003B44A360ED1BBD42DBD800E03D46A36840
:10BE58002B44A360C5F308035BB12068FFF7BEF964
:10BE680010B90220E071F8BD00EB552502E000256D
:10BE780000E00025A368C3F3080313B3A269AA422C
:10BE88001FD0A37913F0400F0ED0214651F8243B60
:10BE980058780123FDF752FF10B10120E071F8BD79
:10BEA800A37923F04003A371214651F8243B587825
:10BEB8002A460123FDF726FF10B10120E071F8BDE5
:10BEC800A561A368E268934204D9E360A37943F0CB
:10BED8002003A3713046F8BDF8BD00BF2DE9F04737
:10BEE80082B002AB43F8040D894614461046194641
:10BEF8000022FEF7B7FD2568804600285ED12B6931
:10BF08006C69A21E934202D8C9F8003056E02F7817
:10BF1800012F11D10224002628462146FFF76AF98D
:10BF2800B0F1FF3F3ED001283FD000B901360134BF
:10BF38006B699C42F0D33AE0296A00221046164603
:10BF480058B901F1010A2846FEF70EFD804670BB7C
:10BF580005F1300251464FF40070022F09D192F8D2
:10BF680001E0137853EA0E2300D101360232023879
:10BF780015E092F803E093781B0443EA0E6392F805
:10BF880001E043EA0E2392F800E023F0704323F027
:10BF9800FF0353EA0E0300D1013604320438013C92
:10BFA800CED104E04FF0010801E04FF002082E6105
:10BFB8006B7943F001036B71C9F80060404602B029
:10BFC800BDE8F0872DE9F04F8BB007900C460129AA
:10BFD80000F23E83154607A8FEF76EFC0028C0F263
:10BFE8003983BF4B53F82060002E00F035830023BF
:10BFF8003370BC4B13F8107003EB400090F80180CD
:10C008003846FDF77BFE10F0010F40F0278310F053
:10C01800040F40F02583B8F1000F36D0384606F1FA
:10C02800300100220123FDF76DFE002840F01A833D
:10C0380096F82F2296F82E3243EA02231BB2AA4A18
:10C04800934240F0118306EB081393F8E22103F5BD
:10C05800EF73002A00F00A83D97A9A7A120442EA26
:10C06800016293F8099042EA092293F8089042EA9B
:10C078000909D97B9A7B120442EA0162597B42EA98
:10C0880001221B7B1A43089214E03846012108AAB2
:10C09800FDF77AFE002840F0EB82089B7F2B40F2E8
:10C0A800E98214B14FF0000901E04FF03F09C9EBF4
:10C0B800030308936B1E2B4200D000257DB94FF473
:10C0C800FA62089BB3FBF2F2002300E001338749D0
:10C0D80031F813109142F9D8854A32F81350B5F562
:10C0E800007F00D36D0A05B90125802D00D9802570
:10C0F800089AB2FBF5F340F6F5718B4202D84FF07F
:10C10800010A01E04FF0020A4FF6F5718B4201D99E
:10C118004FF0030ABAF1030F09D19B0003F207237A
:10C128005B0A0293002305932023049312E0BAF1DB
:10C13800010F05D103EB430301335B08033301E02F
:10C1480002335B0003F2FF135B0A0293202305937B
:10C1580001230493049B4B440193029903EB010BC5
:10C16800059B9B440BEB0503C9EB03039A42C0F004
:10C178008B823846032109AAFDF706FE20B9099BE0
:10C1880013B1B3F5004F01D901230993099B0BEBB8
:10C198000302013A5B421340CBEB03030993BAF164
:10C1A800030F06D1049A1A440492019A1A44019280
:10C1B80002E0029A1A440292089A049BD31A02993E
:10C1C8005B1A05995B1AB3FBF5F30693BAF1020FF4
:10C1D80005D140F6F5730699994240F25782BAF1B3
:10C1E800030F05D14FF6F5730699994240F2508234
:10C1F800BAF1030F0ED0BAF1010F02D1B2F5803FA8
:10C208000BD3B2F5803F02D24FF0040B07E04FF09A
:10C21800060B04E04FF00C0B01E04FF0010BB8F1F6
:10C22800000F10D006EB081888F8E2B1384606F17E
:10C23800300100220123FDF781FD002840F02A8209
:10C248004FF0F80B58E0002C54D106F1300420468A
:10C2580000214FF40072FEF75BFA012386F8EF31F4
:10C2680086F8F031002286F8F12186F8F2B1FE2135
:10C2780086F8F311089909EB010043F6C16EB0FB8B
:10C28800FEF009904FEA900E4EF03F0E86F8F4E16A
:10C2980086F8F5013F2086F8F60186F8F72186F83A
:10C2A800F82186F8F92186F8FA11C1F3072086F8F3
:10C2B800FB01C1F3074086F8FC01090E86F8FD1161
:10C2C800552186F82E12AA2186F82F1238462146C3
:10C2D800FDF734FD002840F0DF814FF0F80B0BE04C
:10C2E800300200204000002055AAFFFFA47C01086E
:10C2F800A47B01084FF0F00B06F130031C460393B2
:10C30800184600214FF40072FEF702FA2046DA4977
:10C318000B22FEF7F3F9002386F83B30022386F858
:10C328003C3086F83D50049B86F83E30C3F3072323
:10C3380086F83F30012386F84030BAF1030F01D167
:10C34800002301E04FF40073002286F841209BB2DD
:10C358001B0A86F84230089BB3F5803F06D286F860
:10C368004330C3F3072386F844300CE086F8503096
:10C37800C3F3072286F85120C3F3074286F85220F8
:10C388001B0E86F8533086F845B03F2386F84830B0
:10C39800002386F84930FF2286F84A2086F84B3079
:10C3A80086F84C90C9F3072386F84D30C9F3074344
:10C3B80086F84E304FEA196386F84F30FDF72AFDAC
:10C3C8000990BAF1030F3CD186F87300C0F3072334
:10C3D80086F87430C0F3074386F87530000E86F887
:10C3E8007600029B86F854301A46C3F3072386F872
:10C3F8005530C2F3074386F85630130E86F8573087
:10C40800022386F85C30002386F85D3086F85E30BB
:10C4180086F85F30012286F8602086F861300622AF
:10C4280086F8622086F86330802386F870302923E6
:10C4380086F8723006F1770090491322FEF75EF90C
:10C448001FE086F85700C0F3072386F85830C0F37A
:10C45800074386F85930000E86F85A00029B86F882
:10C468004630C3F3072386F84730802386F85430D4
:10C47800292386F8563006F15B0081491322FEF71E
:10C488003DF9552386F82E32AA2386F82F323846EE
:10C4980003994A460123FDF751FC002840F0FE802D
:10C4A800BAF1030F06D13846039909F106020123B0
:10C4B800FDF744FC4FF0000864E0039800214FF4B6
:10C4C8000072FEF725F95B46BAF1030F13D0BAF1F3
:10C4D800010F01D16B4A01E06FF0FF02134309938A
:10C4E80086F83030FF2286F8312086F832201B0E7D
:10C4F80086F833301CE06BF0FF03099386F8303080
:10C50800FF2386F8313086F8323086F8333086F8E3
:10C51800343086F8353086F8363086F8373086F885
:10C52800383086F8393086F83A300F2386F83B30B1
:10C53800019B5C1C384603991A460123FDF7FEFB54
:10C54800002840F0AD80039800214FF40072FEF7F8
:10C55800DFF80123099301940EE0019B5C1C384627
:10C5680003991A460123FDF7E9FB002840F09A8059
:10C57800099B013309930194099B029A9342ECD3D6
:10C5880008F10108B8F1000F97D0BAF1030F01D1F3
:10C598002C4600E0059C019B5D1C384603991A4611
:10C5A8000123FDF7CBFB00287ED10195013CF2D198
:10C5B800BAF1030F43D1522386F8303086F8313070
:10C5C800612386F83230412286F83320722186F8BA
:10C5D800141286F8151286F8162286F81732069A6B
:10C5E800531E86F81832531EC3F3072386F81932F0
:10C5F800531EC3F3074286F81A221B0E86F81B3215
:10C60800022386F81C32002386F81D3286F81E3273
:10C6180086F81F32552386F82E32AA2386F82F3241
:10C628003846039C214609F101020123FDF786FBE8
:10C638003846214609F107020123FDF77FFB3846FA
:10C6480000210A46FDF7A0FB003018BF01202CE0AE
:10C6580013202AE00B2028E00C2026E0032024E009
:10C668000A2022E0012020E00E201EE00E201CE01F
:10C6780001201AE0012018E0607C01086C7C0108A8
:10C68800807C010800FFFF000E200EE00E200CE069
:10C698000E200AE0012008E0012006E0012004E065
:10C6A800012002E0012000E001200BB0BDE8F08F7E
:10C6B8007F2817D989B1FF2805D8A0F180030A4A35
:10C6C80032F81300704700207047074A32F81320E9
:10C6D800824205D001339BB200E000237F2BF4D9BE
:10C6E8008033D8B2704700BFBC7C0108A0F1610359
:10C6F8009BB2192B01D8203880B2704770B592B020
:10C7080001200146FCF768F84FF4C0600121FCF7EE
:10C7180089F8F023ADF8443000248DF847403748B5
:10C7280011A9FBF793FB364D2846FBF73BF8354B31
:10C738000693354B07930894042609960A94802398
:10C748000B934FF480730C934FF480630D93202365
:10C758000E934FF400530F931094284606A9FBF745
:10C76800E1F828460121FBF785F9019401258DF8A8
:10C7780008508DF809504FF46023039304948DF802
:10C788001460224C20460DEB0601FAF705FE204600
:10C7980007212A460323FAF791FF204606210222A1
:10C7A8000323FAF78BFF2046052103221346FAF7E5
:10C7B80085FF2046314632460323FAF77FFF20469D
:10C7C8002946FAF7B7FE20462946FAF789FE204699
:10C7D800FAF7D6FE0D48FAF7EFFE0028FAD10B4813
:10C7E800FAF708FF0948FAF721FF0028FAD10748A5
:10C7F8000121FAF739FF12B070BD00BF00080140EF
:10C80800080002404C240140381000200024014058
:10C8180030B583B04023ADF8043003258DF80650B9
:10C8280010238DF80730094C204601A9FBF70EFBB1
:10C838008023ADF804308DF8065014238DF80730A6
:10C84800204601A9FBF702FB03B030BD00100140F0
:10C8580008B5FFF7DDFF08BD10B5044600F082F902
:10C86800A02000F031FA00F0BDF9200A00F02CFAFF
:10C8780000F0B8F9E0B200F027FA00F0B3F900F0E0
:10C8880071F9A12000F020FA00F0ACF9002000F0C6
:10C898004FFA044600F086F9204610BDF8B50E465A
:10C8A800144609E0771C451CADB2FFF7D5FF307080
:10C8B800013CA4B23E462846002CF3D1F8BD00BF87
:10C8C80070B504460E461546202A00D9202500F0EA
:10C8D80049F9A02000F0F8F900F084F9200A00F0E6
:10C8E800F3F900F07FF9E0B200F0EEF900F07AF920
:10C8F800002405E0305D00F0E7F900F073F9013439
:10C90800A542F7DC00F04EF970BD00BF10B5044633
:10C9180072B6FBF7D9F93520FBF7EAF92046FBF7A1
:10C9280023FA042804D1FBF7DBF962B6002010BD16
:10C938004FF0FF3010BD00BF2DE9F04105460F460E
:10C94800904672B6960812F0030F00D00136FBF736
:10C95800BBF93520FBF7CCF9002408E0284657F846
:10C968002410FBF72FFA042809D104350134B44206
:10C97800F4DBFBF7B5F962B64046BDE8F0814FF04D
:10C98800FF30BDE8F08100BF10B4002302E0C45CB2
:10C99800CC5401339342FAD318465DF8044B7047E0
:10C9A800284B1B88FF2B25D9274B00221A705A7059
:10C9B8009A700821D9701A71702058719A71D971BA
:10C9C8001A72597240209872DA720C201873032078
:10C9D800587331209873DA731A746FF00F00587413
:10C9E80001209874D9741A756FF017025A759875E2
:10C9F800D9757047144B00221A705A709A70082122
:10CA0800D9701A71702058719A71D9711A720420EC
:10CA180058726FF07F009872DA721820187303202A
:10CA2800587365209873DA731A746FF00700587496
:10CA380001209874D9741A756FF00B025A7598759D
:10CA4800D9757047E0F7FF1F4010002010B582B07D
:10CA58000446114B53F820000121FBF7E3FE0F4B6E
:10CA680033F81430ADF804300D4B23449B78012B78
:10CA780003D128238DF8073002E010238DF8073002
:10CA880003238DF80630074B53F8240001A9FBF760
:10CA9800DDF902B010BD00BFBC7D0108FC7D0108B6
:10CAA800E01300204400002008B5074B03449B789E
:10CAB800022B08D10346054A52F82000044A32F8EE
:10CAC8001310FBF711FB08BDE01300204400002001
