:020000040800F2
:100000000050002019020008210200082502000803
:10001000290200082D02000831020008000000003B
:100020000000000000000000000000003502000891
:1000300039020008000000003D02000841020008EB
:100040004502000845020008450200084502000874
:100050004502000845020008450200084502000864
:100060004502000845020008450200084502000854
:100070004502000845020008450200084502000844
:100080004502000845020008450200084502000834
:100090004502000845020008450200084502000824
:1000A0004502000845020008450200084502000814
:1000B00069210008450200084502000845020008C1
:1000C00045020008450200084502000845020008F4
:1000D000450200080D2300084502000845020008FB
:1000E0004502000845020008450200080000000023
:1000F0000000000000000000000000000000000000
:1001000000000000000000005FF808F1314B324AA7
:100110001360324A1360324B02E000221A6004334B
:10012000304A9342F9D32C4B1B6813B92B4B1B68F5
:1001300003B1FEE7274B2C4A13602C4A13602C4B6B
:100140002C4A03E011681960043304322A498B42B7
:10015000F8D3254B1A68294B9A4204D1234B1A68CD
:100160001B689A4200D0FEE700B583B001F0F0FBB7
:1001700001A8694601F0B0FB214C224B1C1BA410C6
:10018000002504E01E4B53F8253098470135AC425A
:10019000F8DC1D4C1D4B1C1BA410002504E01A4B61
:1001A00053F8253098470135AC42F8DC01980099A6
:1001B00004F0EEF90546164C164B1C1BA41004E087
:1001C000013C134B53F824309847002CF8DC2846A8
:1001D00001F05AFBBABADECACC0000200812002097
:1001E000CC0000200C12002000000020C8000020DD
:1001F00000000020345B0008CC0000207856341248
:1002000048020008480200084802000848020008A6
:10021000480200084802000808B5FFF777FF00BF52
:10022000FEE700BFFEE700BFFEE700BFFEE700BF3E
:10023000FEE700BFFEE700BFFEE700BFFEE700BF2E
:08024000FEE700BFFEE700BF6E
:1002480010B50446C378012B03D92048752101F065
:1002580077FB63780F2B03D91C48762101F070FBDC
:10026800A3780F2B03D91948772101F069FBE378AC
:1002780003B3174BDA68D243C2F30222C2F1040077
:100288000F2323FA02F1637803FA00F2A3780B40F4
:1002980013431B012278DBB20E490A4482F800336B
:1002A8002378580903F01F03012202FA03F341F8E7
:1002B800203010BD23785A0903F01F03012199400B
:1002C80002F12003034A42F8231010BD9857000892
:1002D80000ED00E000E100E010B50446022804D972
:1002E800054840F2031101F02BFB044A136803F0A0
:1002F80038031C43146010BDC0570008002002409A
:1003080010B50446102805D020B1074840F22F1137
:1003180001F016FB054B1A6822F010021A601A68E1
:1003280014431C6010BD00BFC057000800200240E5
:10033800034B044A5A6002F188325A60704700BF82
:100348000020024023016745024A136943F08003F5
:10035800136170470020024010B5044630F03503A1
:1003680000D120B9034840F2CC5101F0E9FA024B20
:10037800DC6010BDC0570008002002400B4BDB6852
:1003880013F0010F0BD1094BDB6813F0040F08D1F0
:10039800064BDB6813F0100F05D0032070470120CF
:1003A8007047022070470420704700BF00200240B9
:1003B80010B50446FFF7E2FF02E0FFF7DFFF013C5C
:1003C800012801D1002CF8D104B9052010BD00BFC7
:1003D80038B5044600F17842114B9A4204D91148C5
:1003E80040F2A71101F0ACFA4FF43020FFF7E0FF1C
:1003F800042813D10C4D2B6943F002032B616C6167
:100408002B6943F040032B614FF43020FFF7D0FFF6
:100418002B6923F00203DB04DB0C2B6138BD00BF22
:10042800FEFF0F00C05700080020024030B583B01F
:1004380004460D460023019300F178421A4B9A4274
:1004480004D91A4840F2B52101F07AFA4FF4005065
:10045800FFF7AEFF042824D1154A136943F00103BE
:100468001361ABB223804FF40050FFF7A1FF0428BB
:1004780010D102340194019B2D0C1D804FF40050C3
:10048800FFF796FF0A4A136923F00103DB04DB0C2C
:10049800136106E0064A136923F00103DB04DB0C51
:1004A800136103B030BD00BFFEFF0F00C057000846
:1004B80000200240F8B505460C46474B98421BD031
:1004C80003F58063984217D003F58063984213D0F0
:1004D80003F5806398420FD003F5806398420BD0F0
:1004E80003F58063984207D003F58063984203D0F0
:1004F8003A48B22101F024FAE3788BB1042B0FD0EB
:10050800282B0DD0482B0BD0142B09D0102B07D03B
:100518001C2B05D0182B03D03048B32101F010FA5A
:1005280023881BB92D48B42101F00AFAE37803F0B7
:100538000F06304613F0100F0AD0A378013BDBB248
:10054800022B03D92548BB2101F0FAF9A0783043E2
:100558002378E3B12E68002216E001239340218816
:10056800194099420FD197000F21B94026EA010698
:1005780000FA07F10E43E178282901D16B6102E006
:10058800482900D12B610132072AE6D92E60238839
:10059800FF2B20D96F6800211AE001F1080201231E
:1005A800934022881A409A4211D14FEA810E0F22B5
:1005B80002FA0EF627EA060200FA0EF71743E27867
:1005C800282A00D16B61E278482A00D12B610131D9
:1005D8000729E2D96F60F8BD00080140F457000808
:1005E80038B504460D462A4B98421CD003F5806363
:1005F800984218D003F58063984214D003F58063BD
:10060800984210D003F5806398420CD003F58063BC
:10061800984208D003F58063984204D01D484FF4EF
:100628008F7101F08DF96B1E9BB2012B28D9042D17
:1006380026D0082D24D0102D22D0202D20D0402DBA
:100648001ED0802D1CD0B5F5807F19D0B5F5007F60
:1006580016D0B5F5806F13D0B5F5006F10D0B5F58D
:10066800805F0DD0B5F5005F0AD0B5F5804F07D093
:10067800B5F5004F04D0074840F21F1101F060F9AA
:10068800A3682B4201D0012038BD002038BD00BF2F
:1006980000080140F457000838B504460D46144BCD
:1006A80098421CD003F58063984218D003F5806304
:1006B800984214D003F58063984210D003F5806304
:1006C80098420CD003F58063984208D003F5806304
:1006D800984204D0074840F2691101F031F925B970
:1006E80004484FF4B57101F02BF9256138BD00BFFE
:1006F80000080140F457000838B504460D46144B6D
:1007080098421CD003F58063984218D003F58063A3
:10071800984214D003F58063984210D003F58063A3
:1007280098420CD003F58063984208D003F58063A3
:10073800984204D0074840F2791101F001F925B92F
:1007480004484FF4BD7101F0FBF8656138BD00BF86
:1007580000080140F45700080D4B1A6842F00102E6
:100768001A6059680B4A0A405A601A6822F0847263
:1007780022F480321A601A6822F480221A605A68B9
:1007880022F4FE025A604FF41F029A60704700BFBD
:10079800001002400000FFF810B5044650B1B0F553
:1007A800803F07D0B0F5802F04D0104840F21111D7
:1007B80001F0C6F80E4B1A6822F480321A601A68E3
:1007C80022F480221A60B4F5803F03D0B4F5802F5C
:1007D80006D010BD064A136843F48033136010BD79
:1007E800034A136843F4A023136010BD2858000877
:1007F8000010024038B50C46054650B1B0F5803FB0
:1008080007D0B0F5403F04D01E4840F27F1101F0F8
:1008180097F874B3B4F5802F2BD0B4F5002F28D0F7
:10082800B4F5402F25D0B4F5801F22D0B4F5A01F11
:100838001FD0B4F5C01F1CD0B4F5E01F19D0B4F513
:10084800001F16D0B4F5101F13D0B4F5201F10D018
:10085800B4F5301F0DD0B4F5401F0AD0B4F5501FC1
:1008680007D0B4F5601F04D006484FF4C07101F0FA
:1008780067F8054A536823F47C132C431C435460DF
:1008880038BD00BF285800080010024010B50446C3
:10089800012804D903484FF4CA7101F051F8024BFA
:1008A8001C6010BD285800086000424210B504467C
:1008B800022804D905484FF40E7101F041F8044AA2
:1008C800536823F003031C43546010BD28580008E4
:1008D80000100240024B586800F00C00704700BF3F
:1008E8000010024010B50446A0B1802812D090280C
:1008F80010D0A0280ED0B0280CD0C0280AD0D028FC
:1009080008D0E02806D0F02804D006484FF4197122
:1009180001F016F8044A536823F0F0031C435460AE
:1009280010BD00BF285800080010024010B504464A
:1009380080B1B0F5806F0DD0B0F5A06F0AD0B0F5DA
:10094800C06F07D0B0F5E06F04D0064840F27E21B2
:1009580000F0F6FF044A536823F4E0631C43546034
:1009680010BD00BF285800080010024010B504460A
:1009780080B1B0F5806F0DD0B0F5A06F0AD0B0F59A
:10098800C06F07D0B0F5E06F04D006484FF4267169
:1009980000F0D6FF044B586820F4605040EAC400C9
:1009A800586010BD285800080010024010B4294BA8
:1009B8005B6803F00C03042B05D0082B06D013BB8F
:1009C800254B036021E0254B03601EE0214A536854
:1009D8005268C3F38343023312F4803F04D1204AA0
:1009E80002FB03F3036010E01A4A526812F4003F56
:1009F80004D01C4A02FB03F3036006E0174A02FB1B
:100A080003F3036001E0144B0360124A5368C3F315
:100A18000313154CE15CC9B20368CB4043605168CD
:100A2800C1F30221615CC9B223FA01F18160516806
:100A3800C1F3C221615CC9B2CB40C3605268C2F342
:100A480081320A498A5CD2B2B3FBF2F303615DF8E2
:100A5800044B70470010024000127A00001BB700D8
:100A680000093D00808D5B00080000200400002084
:100A780038B504460D460E4B034003B920B90D485E
:100A880040F24A4100F05CFF012D04D9094840F2C8
:100A98004B4100F055FF25B1074B9A6914439C61FF
:100AA80038BD054A936923EA0404946138BD00BF40
:100AB8000200C0FF285800080010024038B504465C
:100AC8000D460E4B184200D120B90D4840F269413D
:100AD80000F036FF012D04D9094840F26A4100F0C0
:100AE8002FFF25B1074BDA691443DC6138BD054A8D
:100AF800D36923EA0404D46138BD00BF00360181FC
:100B0800285800080010024010B50446212818D0C3
:100B1800312816D0392814D0412812D0612810D095
:100B28007A280ED07B280CD07C280AD07D2808D0C3
:100B38007E2806D07F2804D00D4840F2345100F0BA
:100B4800FFFE6309012B02D10A4B1B6806E0022B4A
:100B580002D1084B1B6A01E0064B5B6A04F01F04D4
:100B6800E34013F0010F01D0012010BD002010BD9B
:100B7800285800080010024000B583B000230193F4
:100B88003120FFF7C1FF019B01330193019BB3F5AE
:100B9800A06F01D00028F3D03120FFF7B5FF08B1CE
:100BA800012000E0002003B05DF804FB2DE9F041CE
:100BB80005460C46464B98420BD0A3F5784398421D
:100BC80007D003F58063984203D04248A32100F080
:100BD800B7FE238863B1B3F5806F09D0B3F5004F32
:100BE80006D0B3F5404F03D03A48A62100F0A8FE3E
:100BF8006388B3F5827F04D01BB13648A72100F083
:100C08009FFEA388B3F5006F04D01BB13148A8211B
:100C180000F096FEE3882BB1022B03D02D48A921C2
:100C280000F08EFE2389012B03D92A48AA2100F05F
:100C380087FE6389B3F5007F04D01BB12548AB213B
:100C480000F07EFEA3898BB1082B0FD0102B0DD09E
:100C5800182B0BD0202B09D0282B07D0302B05D0F0
:100C6800382B03D01B48AC2100F06AFEE3892BB176
:100C7800802B03D01748AD2100F062FE238A1BB9F0
:100C88001448AE2100F05CFE2B8803F441572088FD
:100C98006688A188B4F806802289B4F80AC0A389B6
:100CA800B4F80EE03043084348EA000111434CEA27
:100CB80001021A434EEA02033B432B80AB8B23F419
:100CC80000631B041B0CAB83238A2B82BDE8F081D5
:100CD800003001405858000838B504460D46124BFC
:100CE80098420CD0A3F57843984208D003F5806366
:100CF800984204D00D4840F2B71100F021FE012DB2
:100D080004D90A484FF4DC7100F01AFE2DB123888B
:100D18009BB243F04003238038BD238823F040036F
:100D28001B041B0C238038BD0030014058580008B4
:100D380038B504460D46094B98420CD0A3F57843C4
:100D4800984208D003F58063984204D0044840F2E2
:100D58003A2100F0F5FDA58138BD00BF0030014003
:100D68005858000810B50446094B98420CD0A3F512
:100D78007843984208D003F58063984204D0054828
:100D880040F24A2100F0DCFDA08980B210BD00BF0E
:100D9800003001405858000838B505460C46164B37
:100DA80098420CD0A3F57843984208D003F58063A5
:100DB800984204D0114840F2163100F0C1FD802C51
:100DC80012D0402C10D0202C0ED0102C0CD0082C77
:100DD8000AD0042C08D0022C06D0012C04D00748D5
:100DE80040F2173100F0ACFD2B891C4201D00120E4
:100DF80038BD002038BD00BF0030014058580008F9
:100E080038B504460D46524B984242D0B0F1804F57
:100E18003FD0A3F5943398423BD003F580639842C2
:100E280037D003F58063984233D003F58063984246
:100E38002FD003F5806398422BD003F59033984266
:100E480027D003F5C053984223D003F58063984216
:100E58001FD003F5806398421BD0A3F59E339842B8
:100E680017D003F58063984213D003F58063984246
:100E78000FD003F5903398420BD003F58063984266
:100E880007D003F58063984203D03248E72100F089
:100E980057FD6B885BB1102B09D0202B07D0402B56
:100EA80005D0602B03D02B48E82100F049FDEB88E2
:100EB8004BB1B3F5807F06D0B3F5007F03D025484A
:100EC800E92100F03DFD23889BB2214A944212D0CB
:100ED80002F5006294420ED0B4F1804F0BD0A2F517
:100EE8009832944207D002F58062944203D002F50A
:100EF8008062944203D123F070036A881343164A30
:100F0800944208D002F58062944204D023F44073DE
:100F18009BB2EA8813432380AB88A3852B8823855B
:100F28000B4B9C420FD003F500639C420BD003F59A
:100F380040639C4207D003F580639C4203D003F5CD
:100F480080639C4201D12B7A23860123A38238BD7A
:100F5800002C0140885800080010004038B50446AD
:100F68000D462E4B984243D0B0F1804F40D0A3F5A8
:100F7800943398423CD003F58063984238D003F507
:100F88008063984234D003F58063984230D003F5EB
:100F9800806398422CD003F59033984228D003F50B
:100FA800C053984224D003F58063984220D003F5BB
:100FB800806398421CD0A3F59E33984218D003F55D
:100FC8008063984214D003F58063984210D003F5EB
:100FD800903398420CD003F58063984208D003F50B
:100FE8008063984204D00E4840F2293100F0A8FCF2
:100FF800012D04D90A4840F22A3100F0A1FC2DB194
:1010080023889BB243F00103238038BD238823F053
:1010180001031B041B0C238038BD00BF002C0140BA
:101028008858000870B504460D461646314B98425C
:1010380043D0B0F1804F40D0A3F5943398423CD0D0
:1010480003F58063984238D003F58063984234D022
:1010580003F58063984230D003F5806398422CD022
:1010680003F59033984228D003F5C053984224D012
:1010780003F58063984220D003F5806398421CD022
:10108800A3F59E33984218D003F58063984214D094
:1010980003F58063984210D003F5903398420CD042
:1010A80003F58063984208D003F58063984204D022
:1010B800114840F26B3100F043FC15F47F4F00D12A
:1010C80025B90D484FF45B7100F03AFC012E04D9A4
:1010D800094840F26D3100F033FC26B1A3899BB278
:1010E8001D43A58170BDA389ED43ADB21D40A58107
:1010F80070BD00BF002C01408858000870B5044638
:101108000E461546284B984243D0B0F1804F40D048
:10111800A3F5943398423CD003F58063984238D0C5
:1011280003F58063984234D003F58063984230D049
:1011380003F5806398422CD003F59033984228D069
:1011480003F5C053984224D003F58063984220D019
:1011580003F5806398421CD0A3F59E33984218D0BB
:1011680003F58063984214D003F58063984210D049
:1011780003F5903398420CD003F58063984208D069
:1011880003F58063984204D0084840F29B4100F080
:10119800D7FB012D04D9054840F29C4100F0D0FB53
:1011A8002685A58270BD00BF002C01408858000824
:1011B80038B504460D46344B984243D0B0F1804FC1
:1011C80040D0A3F5943398423CD003F5806398420D
:1011D80038D003F58063984234D003F58063984291
:1011E80030D003F5806398422CD003F590339842B1
:1011F80028D003F5C053984224D003F58063984261
:1012080020D003F5806398421CD0A3F59E33984202
:1012180018D003F58063984214D003F58063984290
:1012280010D003F5903398420CD003F580639842B0
:1012380008D003F58063984204D0144840F658213A
:1012480000F07EFB6B1E9BB2012B10D9042D0ED033
:10125800082D0CD0102D0AD0202D08D0402D06D0F6
:10126800802D04D0094840F6592100F069FB228AF4
:10127800A3892B40154202D01BB9002038BD00209D
:1012880038BD012038BD00BF002C01408858000837
:1012980038B504460D462A4B984243D0B0F1804FEA
:1012A80040D0A3F5943398423CD003F5806398422C
:1012B80038D003F58063984234D003F580639842B0
:1012C80030D003F5806398422CD003F590339842D0
:1012D80028D003F5C053984224D003F58063984280
:1012E80020D003F5806398421CD0A3F59E33984222
:1012F80018D003F58063984214D003F580639842B0
:1013080010D003F5903398420CD003F580639842CF
:1013180008D003F58063984204D00A4840F6822139
:1013280000F00EFB15F47F4F00D125B9054840F6B3
:10133800832100F005FBED43ADB2258238BD00BF27
:10134800002C01408858000830B587B004460D4687
:10135800654B984213D0A3F5744398420FD003F518
:10136800806398420BD003F58063984207D003F559
:101378008063984203D05D48B82100F0E1FA2B68F9
:10138800013B5B4A934203D95848B92100F0D8FA87
:10139800AB8833B1B3F5805F03D05448BA2100F06D
:1013A800CFFAEB8863B1B3F5805F09D0B3F5005F7E
:1013B80006D0B3F5405F03D04C48BB2100F0C0FA1B
:1013C8002B894BB1B3F5806F06D0B3F5C06F03D04E
:1013D8004648BC2100F0B4FA6A8922F00C039BB29B
:1013E80003B91AB94148BD2100F0AAFAAB8963B123
:1013F800B3F5807F09D0B3F5007F06D0B3F5407F01
:1014080003D03A48BE2100F09BFAAB8973B1364B42
:101418009C420BD0A3F574439C4207D003F580632C
:101428009C4203D03148C22100F08AFA238A23F46F
:1014380040531B041B0CEA8813432382A3899BB2E5
:1014480023F4B05323F00C01A8882A896B8902433E
:1014580013430B43A381A38A23F440731B041B0C7F
:10146800AA891343A38201A8FFF7A0FA1E4B9C4246
:1014780001D1049B00E0039BA28912B2002A08DA7A
:1014880003EB830303EB830329684900B3FBF1F102
:1014980007E003EB830303EB830329688900B3FBAD
:1014A800F1F1144BA3FB012358090501642300FB48
:1014B8001313A28912B2002A09DAD90032310D4A6F
:1014C800A2FB0131C1F3421242EA050307E01B0106
:1014D8003233084AA2FB0323C3F343132B439BB2C3
:1014E800238107B030BD00BF00380140B85800085C
:1014F8001FAA44001F85EB5170B505460C46234BC7
:1015080098420CD0A3F57443984208D003F5806341
:10151800984204D01E484FF4997100F011FA2388BC
:101528003BB1B3F5006F04D0194840F2331100F015
:1015380007FA63883BB1B3F5806F04D014484FF4C1
:101548009A7100F0FDF9A3883BB1B3F5007F04D090
:101558000F4840F2351100F0F3F9E3883BB1B3F5D9
:10156800807F04D00A484FF49B7100F0E9F92B8A78
:1015780023F470631B041B0C26886188A288E0880A
:1015880031430A43024313432B8270BD00380140A4
:10159800B858000838B504460D46164B984214D082
:1015A800A3F57443984210D003F5806398420CD099
:1015B80003F58063984208D003F58063984204D00D
:1015C8000D484FF4B17100F0BBF9012D04D90A4858
:1015D80040F2631100F0B4F92DB1A3899BB243F432
:1015E8000053A38138BDA38923F400531B041B0CAB
:1015F800A38138BD00380140B858000870B50446CA
:101608000D461646364B984214D0A3F574439842BB
:1016180010D003F5806398420CD003F5806398429C
:1016280008D003F58063984204D02E4840F289110F
:1016380000F086F9282D1ED040F227739D421AD05B
:1016480040F226639D4216D040F225539D4212D0A7
:1016580040F224439D420ED040F646039D420AD0F4
:1016680040F66A139D4206D0602D04D01D484FF401
:10167800C57100F065F9012E04D91A4840F28B11A2
:1016880000F05EF940F66A139D420FD1144B9C425C
:101698000CD0A3F574439C4208D003F580639C42A8
:1016A80004D0104840F28F1100F04AF9C5F34212F5
:1016B80005F01F050123AB40012A01D10C3404E0D9
:1016C800022A01D1103400E014341EB122681343F9
:1016D800236070BD226822EA0303236070BD00BF47
:1016E80000380140B858000838B504460D46124B7A
:1016F800984214D0A3F57443984210D003F5806340
:1017080098420CD003F58063984208D003F58063B3
:10171800984204D0094840F25F2100F011F9B5F56C
:10172800007F04D305484FF4187100F009F9C5F398
:101738000805A58038BD00BF00380140B85800082A
:1017480010B504460D4B984214D0A3F57443984243
:1017580010D003F5806398420CD003F5806398425B
:1017680008D003F58063984204D005484FF41C71F3
:1017780000F0E6F8A088C0F3080010BD003801406A
:10178800B858000838B505460C463B4B984214D06B
:10179800A3F57443984210D003F5806398420CD0A7
:1017A80003F58063984208D003F58063984204D01B
:1017B800324840F2D93100F0C3F8282C25D040F245
:1017C80027739C4221D040F226639C421DD040F2F0
:1017D80025539C4219D040F224439C4215D040F630
:1017E80046039C4211D040F66A139C420DD0B4F5D2
:1017F800587F0AD0B4F5187F07D0B4F5B07F04D06D
:101808001E4840F2DA3100F09BF840F66A139C4219
:101818000FD1194B9D420CD0A3F574439D4208D0BB
:1018280003F580639D4204D0144840F2DE3100F095
:1018380087F8C4F3421204F01F0101238B40012AE8
:1018480003D1AA8992B2134008E0022A03D12A8A56
:1018580092B2134002E0AA8A92B21340240A0122EB
:10186800A240298889B20A4013B11AB9002038BDAC
:10187800002038BD012038BD00380140B8580008A4
:10188800FEE700BF08B50120FFF7FAFF08B50D4BCA
:101898001B6813B90C4A0B4B1A600A4B1A68C31C15
:1018A80023F00303134409498B4206D902F0AAFE28
:1018B8000C2303604FF0FF3008BD02490B6010464F
:1018C80008BD00BFD00000200C120020004C0020F2
:1018D80001230360014B0B60704700BF1800002014
:1018E80008B502F08FFE582303604FF0FF3008BDA3
:1018F80008B502F087FE582303604FF0FF3008BD9B
:1019080008B502F07FFE58230360002008BD00BF21
:1019180008B502F077FE582303604FF0FF3008BD8A
:1019280008B502F06FFE582303604FF0FF3008BD82
:1019380008B502F067FE582303604FF0FF3008BD7A
:1019480008B5FFF79FFF00BF08B500F067F808BDAE
:1019580082B00023019300932C4A136843F4803328
:1019680013602A4B1B6803F400330093019B013377
:101978000193009B1BB9019BB3F5A06FF1D1234BD9
:101988001B6813F4003F02D00123009301E00023F9
:101998000093009B012B36D11D4B1A6842F01002B0
:1019A8001A601A6822F003021A601A6842F00202EA
:1019B8001A60A3F580535A685A605A685A605A6880
:1019C80042F480625A605A6822F47C125A605A685B
:1019D80042F4E8125A601A6842F080721A600B4B9F
:1019E8001B6813F0007FFAD0084B5A6822F00302F4
:1019F8005A605A6842F002025A60044B5B6803F06E
:101A08000C03082BF9D102B0704700BF0010024048
:101A18000020024008B5FFF79BFF08BD08B5104B32
:101A28001A6842F001021A6059680E4A0A405A6060
:101A38001A6822F0847222F480321A601A6822F43A
:101A480080221A605A6822F4FE025A604FF41F027C
:101A58009A60FFF7DFFF4FF00062034B9A6008BD02
:101A6800001002400000FFF800ED00E0030A43EA1E
:101A7800002080B2704700BFC0F307231B0443EA6D
:101A88000062030A03F47F43134343EA106070477C
:101A980008B5FFF7EBFF08BD08B5FFF7EDFF08BD78
:101AA80008B5FFF7F5FF08BD08B5FFF7E5FF08BD66
:101AB80010B5044672B6FEF73BFC3520FEF74CFC29
:101AC8002046FEF785FC042802D0034800F0B2FC4B
:101AD800FEF73AFC62B610BDEC5800082DE9F0415B
:101AE80005460F46904672B6960812F0030F00D0CE
:101AF8000136FEF71DFC3520FEF72EFC00240FE012
:101B0800284657F82410FEF791FC042806D0084808
:101B180000F090FC4FF0FF30BDE8F081043501344F
:101B2800B442EDDBFEF710FC62B64046BDE8F0813A
:101B38000459000810B4002302E0C45CCC540133FB
:101B48009342FAD318465DF8044B704770B50646C1
:101B58000D46012A0ED108E0194B5A68188904FB72
:101B68000020FFF7A5FF013400E00024144BDB89B7
:101B7800A342F1DC134A13682B441360B5F5007FC8
:101B880013D27019FF21C5F5007202F05CFD0E4CEE
:101B9800206831464FF40072FFF7A0FF084B5B68DE
:101BA80023600022074B1A6070BD074C206831463D
:101BB8002A46FFF793FF23681D44256070BD00BFC8
:101BC800CC090020D80000202000002008B5264BB2
:101BD8001B88FF2B22D9254800F02CFC244B00221F
:101BE8001A705A709A700821D9701A716020587149
:101BF8009A71D9711A72597240209872DA720C204F
:101C080018730320587331209873DA731A746FF0BD
:101C18000F025A7401229A74D97408BD154800F04D
:101C280009FC134B00221A705A709A700821D97057
:101C38001A71602058719A71D9711A7204205872F9
:101C48006FF07F009872DA721820187303205873A7
:101C580065209873DA731A746FF007025A740122B8
:101C68009A74D97408BD00BFE0F7FF1F2059000817
:101C7800CC0900203C59000810B582B004460C4B32
:101C880053F820000121FEF7F3FE0A4B33F8143015
:101C9800ADF8043010238DF8073003238DF8063093
:101CA800054B53F8240001A9FEF704FC02B010BD4F
:101CB8005C5900086C5900082400002008B5034648
:101CC800044A52F82000044A32F81310FEF714FDB3
:101CD80008BD00BF240000206C59000808B5034661
:101CE800044A52F82000044A32F81310FEF7D4FCD4
:101CF80008BD00BF240000206C590008044B53F8AD
:101D08002020D168034B33F810304B40D360704724
:101D1800240000206C59000800B583B02023ADF8DA
:101D2800043028238DF8073003238DF80630034844
:101D380001A9FEF7BFFB03B05DF804FB00100140EA
:101D480008B502482021FEF74BFC08BD00100140F1
:101D580008B5FEF701FD4FF48030FEF71DFDFEF7D4
:101D68000BFF012832D11020FEF7CAFA0220FEF735
:101D7800B3FA0020FEF7B6FD0020FEF7F7FD4FF49A
:101D88008060FEF7D3FD4FF480304FF48011FEF7EA
:101D980031FD0120FEF77AFD3920FEF7B5FE002857
:101DA800FAD00220FEF782FDFEF794FD0828FBD149
:101DB80001200146FEF782FE4FF480400121FEF724
:101DC8007DFE44F21D000121FEF752FE08BD00BF52
:101DD80001604360826000230361C3600120704793
:101DE80038B50568C36802699B1A426893420DDAE0
:101DF8000446C068013A1040A26802FB005002F095
:101E080017FCE3680133E360012038BD002038BDCA
:101E18002DE9F041D0F800E0C36804691C1B436851
:101E28009C423ADAC6680569761B9E1BC46803F1B2
:101E3800FF3C04EA0C0C0CEB06049C4202D3CCEBEE
:101E4800030300E033460F460446F61A9342A8BF40
:101E580013469846D51AB542A8BF3546826802FB94
:101E68000CE002FB03F202F0E3FBE36808EB030279
:101E7800E26020686368013B1340A26802FB03002C
:101E880002FB087102FB05F202F0D2FBE3682B4467
:101E9800E36008EB0500BDE8F0810020BDE8F081B3
:101EA80038B50568C26803699A420FD004460269CA
:101EB8004368013B13408268084602FB035102F065
:101EC800B7FB236901332361012038BD002038BDE9
:101ED800F8B5D0F800E0C46803699C4237D0C368FD
:101EE80004691B1B0469466806F1FF3C04EA0C0CF4
:101EF8000CEB0304B44202D3CCEB060600E01E460A
:101F08000F4605469B1B9642A8BF1646941B9C424B
:101F1800A8BF1C468268084602FB0CE102FB06F2D9
:101F280002F086FB2B69F2182A6129686B68013B6D
:101F38001340AA6802FB067002FB031102FB04F2BD
:101F480002F076FB2B6923442B613019F8BD002081
:101F5800F8BD00BF08B503484FF48051FEF7CCFB2D
:101F680008BD00BF000C014008B503484FF480517C
:101F7800FEF792FB08BD00BF000C014010B50446F7
:101F88000A480221FEF708FF0028F9D00748214631
:101F9800FEF7CEFE05480121FEF7FEFE0028F9D027
:101FA8000248FEF7DFFEC0B210BD00BF0038004097
:101FB80008B5FFF7E3FF08BD08B5FF20FFF7DEFF10
:101FC80008BD00BF82B0019002E0019B013B019374
:101FD800019B002BF9D102B0704700BF30B587B024
:101FE8004FF40053ADF8143003238DF8163018233E
:101FF8008DF81730234C204605A9FEF75BFA4FF4FD
:102008000043ADF81430204605A9FEF753FA4FF403
:102018008043ADF8143004238DF81730204605A905
:10202800FEF748FA4FF48053ADF8143010238DF8BA
:102038001730204605A9FEF73DFA0023ADF8003019
:102048004FF48272ADF80220ADF804300222ADF8E8
:1020580006200124ADF808404FF40072ADF80A20BC
:10206800ADF80C30ADF80E300723ADF81030064D42
:1020780028466946FEF79AFD28462146FEF72CFEBB
:1020880007B030BD000C01400038004010B584B0E6
:10209800184B6C46186859689A68DB680FC4FFF7D4
:1020A80063FF154C20464FF40071FEF725FB4FF4F3
:1020B8007A70FFF787FF20464FF40071FEF7ECFABD
:1020C8000E480F4901F0A8F80E480F4901F0B6F87C
:1020D8000120694601F046FAB0F1FF3F03D10B48F1
:1020E80000F0A8F903E042F21070FFF76BFF04B0AC
:1020F80010BD00BF74590008000C01405D1F0008A6
:10210800711F0008C11F0008B91F00088459000882
:1021180008B5012804D1054B18891B69184401E04A
:10212800024B1869FFF706FD08BD00BFCC09002067
:1021380070B50E461546012804D1084B1C891B6949
:102148001C4401E0054B1C692046FFF7B1FC204602
:1021580031462A46FFF7C2FC70BD00BFCC090020FB
:1021680008B54FF080400121FFF722F830B34FF057
:1021780080400121FFF78CF8114B1A6801321A6070
:10218800104BA3FB02135B09642101FB13232BB93A
:102198000020FFF7B3FD0120FFF7B0FD084B1A68D8
:1021A800094BA3FB02139B094FF47A7101FB13231C
:1021B80023B90022024B1A6000F0BAFB08BD00BF29
:1021C800DC0000201F85EB51D34D621030B585B07F
:1021D8001C238DF8003000258DF8015001248DF85E
:1021E80002408DF803406846FEF72AF84FF47A73E8
:1021F800ADF80830ADF80450ADF80A50ADF8065007
:102208004FF0804001A9FEF7FBFD4FF080404721C9
:102218002246FEF773FF4FF080402146FEF79EFEF0
:102228004FF0804021462246FEF7FCFE05B030BD47
:10223800F8B505460F4616461C4640F2277100229F
:10224800FFF7DCF9384631462246FFF7E1FD044640
:10225800284640F227710122FFF7D0F92046F8BD41
:10226800F8B505460C4617461E46E26823699A42A9
:10227800FBD0284640F225510022FFF7BFF920463F
:1022880039463246FFF724FE0446284640F22551D7
:102298000122FFF7B3F92046F8BD00BF70B582B040
:1022A80005460C46164640F22771FFF76BFA88B1CF
:1022B80030460DF10701FFF7F3FD28B128469DF8D8
:1022C8000710FFF711FA05E0284640F227710022AF
:1022D800FFF794F9284640F22551FFF753FA70B1F9
:1022E800E36822699B1A6268934208DA2846FFF776
:1022F80027FA02A901F8010D2046FFF771FD02B087
:1023080070BD00BF08B503480349044AFFF7C6FF7C
:1023180008BD00BF00380140F4090020E009002092
:1023280070B588B03148324901224FF48063FFF715
:102338004FFD3048304901224FF48063FFF748FDD4
:1023480025238DF8003000248DF801408DF80240D7
:1023580001258DF803506846FDF772FF4FF490533E
:10236800ADF8043018238DF8073003238DF80630B4
:10237800224E304601A9FEF79DF804238DF8073058
:102388004FF44063ADF80430304601A9FEF792F8E7
:102398004FF4E1330493ADF81440ADF81640ADF8AE
:1023A8001840ADF81C400C23ADF81A30ADF80840C1
:1023B800ADF80A404FF40073ADF80C30ADF80E409C
:1023C8000F4C204604A9FEF7BFFF204602A9FFF7DD
:1023D80093F8204640F225512A46FFF70FF9204688
:1023E8002946FFF7D7F808B070BD00BFF4090020F0
:1023F800E0040020E0090020E0000020000801407F
:102408000038014008B502460B4602480249FFF76A
:102418000FFF08BD00380140E009002008B502465A
:102428000B4602480249FFF71BFF08BD0038014070
:10243800F40900200FB400B5A3B024AA52F8041B75
:10244800219201A802F052F901A802F02FF90146E1
:1024580001A8FFF7D7FF23B05DF804EB04B070477D
:1024680000230A4A13700A4A13600A4A13800A4A68
:1024780013800A4A13600A4A13800A4A13600A4AF8
:1024880013600A4A13600A4A13707047E408002070
:10249800E00800200409002006090020080900209F
:1024A800FC08002010090020000900200C09002069
:1024B800FE080020054B1B6833B10023034A136054
:1024C800034A1360034A1360704700BF10090020D5
:1024D800000900200C090020054B1B683BB90122AC
:1024E800034B1A600023034A1360034A13607047C2
:1024F80010090020000900200C09002030B583B025
:10250800054602214CF23872012300F0ADFBC4B23B
:10251800AC420BD120460A210DF1070200F0CEFD96
:102528009DF80730222BF5D1204601E04FF0FF300F
:1025380003B030BD70B584B006460D46144603930B
:102548001846FFF7A9FA04AB43F8040DBDF820209C
:102558000092F0B22946A2B200F016FCA04201D0C7
:102568004FF0FF3004B070BD10B584B004460420AD
:10257800FFF78EFAADF80C002046FFF789FAADF8A0
:102588000E00074B1B68074A128807490868009223
:1025980003A90422FFF7CEFFFFF79EFF04B010BD8A
:1025A800E0080020040900203400002008B50B4B87
:1025B8001B68012B02D0022B09D008BD0522074B4E
:1025C8001A60FFF777FF0020FFF7CEFF08BD04224F
:1025D800024B1A60FFF76EFF08BD00BF0809002014
:1025E80008B503460A460248194602F021F808BD14
:1025F800E40800202DE9F043ADF2FC5D81460D466C
:10260800164698460120FFF743FAADF80C000DF185
:102618000E00494602F042F8484602F047F80130F9
:102628000DF10E031C182046294602F037F82846FB
:1026380002F03CF801302518002416E006EBC40728
:10264800284656F8341002F029F856F8340002F0FB
:102658002DF8013005442846796802F01FF878689B
:1026680002F024F8013005440134A045E6D803AA55
:102678000C4B1B680C490868452100911146AA1AA1
:10268800FFF758FF0122094B1A60484602F00EF87E
:10269800411C4846FFF7A4FFFFF71EFF0DF2FC5D43
:1026A800BDE8F083E008002034000020080900207D
:1026B800F0B585B00F4616461D46C4B220460A211D
:1026C8000DF10F0200F0FAFC01281ED19DF80F3021
:1026D800222B1DD12046092103AA00F0EFFC012876
:1026E80019D1BDF80C30CBB10A9B0093204639466E
:1026F800B2B22B4600F0ECFBADF80C002868FFF7EF
:10270800D3F92860BDF80C000AE04FF0FF3007E06D
:102718004FF0FF3004E04FF0FF3001E04FF0FF30A2
:1027280005B0F0BD10B504460088FFF7B9F9208060
:102738006088FFF7B5F96080FFF792FE0122014B30
:102748001A7010BDFE08002038B504460D460088F2
:10275800FFF7A6F920806088FFF7A2F982B26280AD
:10276800194B1B68032B14D0052B01D0012B29D141
:10277800012A0AD10321144B1960144B1A80201D19
:10278800291FFFF7E3F9FFF795FE6088FFF7ECFED6
:1027980038BD0E4B1B8801339A4207D10B4B1A8068
:1027A800201D291FFFF7D2F9FFF784FE6088FFF785
:1027B800DBFE043DB5F5007F04D2FFF751FE02228F
:1027C800034B1A7038BD00BF08090020FC08002020
:1027D800FE08002070B51E46134B1B689A4221D193
:1027E80004460D460088FFF75BF9104B1B68022B67
:1027F80001D0012B01D10E4B1E8080B205280DD0CF
:10280800062806D003280DD120462946FFF79CFF4D
:1028180070BD20462946FFF7C9FE70BD20462946EF
:10282800FFF780FF70BD00BFE00800200809002006
:102838000409002038B505460C46FFF711FE284666
:10284800FFF75CFE024B1860024B1C6038BD00BFEE
:1028580034000020F808002010B584B01E4B1B6817
:102868001BB31E4B1B68042B1FD91D4B1B68032B66
:1028780009D0052B07D0012B09D11A481A491B4A40
:10288800FFF7B8FE03E01A4B1888FFF76DFE002229
:10289800124B1A60174A136801331360042B04D9CA
:1028A800FFF7DEFD0122144B1A70144B1868144C04
:1028B8000DF10E030093216840F2EA5202ABFFF7D4
:1028C800F7FE81B22068029ABDF80E30FFF782FF4A
:1028D800094B187804B010BD100900200009002029
:1028E80008090020E4080020A0590008380000204A
:1028F800FC0800200C090020FE08002034000020FD
:10290800F808002008B5064B18600022054B1A701D
:1029180008460549054A0123FFF76CFE08BD00BFBC
:10292800E0080020FE080020A05900083800002018
:10293800034B1B681BB1034A1368013313607047CC
:10294800100900200009002038B505460C4CA36882
:10295800984723699847E369C5F307409847E369AF
:10296800C5F307209847E369E8B29847A3699847F1
:10297800054663699847E3689847284638BD00BF0D
:1029880044000020F8B505460E460D4CA36898474C
:102998002369984745F00407E369C5F3074098475A
:1029A800E369C5F307209847E369F8B29847E369F4
:1029B8003046984763699847E3689847F8BD00BF71
:1029C80044000020F8B507460E4615460F4CA3688C
:1029D800984723699847E369C7F307409847E3692D
:1029E800C7F307209847E369F8B29847002405E041
:1029F800064B9B69984730550134A4B2AC42F7D3D3
:102A0800024C63699847E3689847F8BD4400002082
:102A18002DE9F04107460E461546124CA368984723
:102A28002369984747F00408E369C7F307409847C4
:102A3800E369C7F307209847E3695FFA88F0984786
:102A4800002405E0074BDB69305D98470134A4B2E8
:102A5800AC42F7D3034C63699847E3689847BDE8ED
:102A6800F08100BF440000202DE9F0418046002697
:102A78004FEA4815083505F500573846FFF764FF53
:102A8800000200F47F4405F504552846FFF75CFF73
:102A9800204484B254B13846FFF756FF000200F4D0
:102AA8007F462846FFF750FF304486B2A642DFD162
:102AB8003046BDE8F08100BF2DE9F0418046002690
:102AC8004FEA4815083505F518573846FFF73CFF13
:102AD800000200F47F4405F51C552846FFF734FF33
:102AE800204484B254B13846FFF72EFF000200F4A8
:102AF8007F462846FFF728FF304486B2A642DFD13A
:102B08003046BDE8F08100BF5AB32DE9F8431446BA
:102B180088464FEA800909F10106F60006F51057C4
:102B28003846FFF711FF054606F514563046FFF7FD
:102B38000BFF00EB052085B209F10200C00000EB95
:102B4800052041462246FFF763FF2C44A4B23846CD
:102B5800210AFFF717FF3046E1B2FFF713FFBDE880
:102B6800F88370475AB32DE9F843144688464FEA6C
:102B7800800909F10106F60006F520573846FFF7E7
:102B8800E3FE054606F524563046FFF7DDFE00EB6A
:102B9800052085B209F10300C00000EB052041467D
:102BA8002246FFF70FFF2C44A4B23846210AFFF74C
:102BB800E9FE3046E1B2FFF7E5FEBDE8F88370476D
:102BC800F8B50E46400100F1080404F520573846D0
:102BD800FFF7BAFE054604F524542046FFF7B4FE75
:102BE80000EB05208519ADB23846290AFFF7CAFE61
:102BF8002046E9B2FFF7C6FEF8BD00BF082828D86E
:102C080070B506464401083404F58075284610213D
:102C1800FFF7B8FE2846FFF797FE0028FAD104F51B
:102C280000701F21FFF7AEFE0123B3400B490A884D
:102C380022EA03030B800023094A22F81630094AC6
:102C4800935504F54070FFF77FFE0028F9D1012065
:102C580002E0FF2040B2704740B270BD1609002064
:102C680020090020180900202DE9F041064608280F
:102C780071D80D4690461F4600296ED0022901D909
:102C880004296AD117F0060F69D1A7B1012D02D026
:102C9800022D04D00FE017F0210F0CD161E017F0DE
:102CA800200F02D017F0800F5DD017F0100F02D060
:102CB80017F0800F59D03046FFF7A0FF7401083491
:102CC80027F00F0120462943FFF75CFEB8F1000FFB
:102CD8000ED1284AB2F8008008F101039BB2138094
:102CE8004FF6F072934203D14FF44042214B1A80C1
:102CF80004F580604FEA1821FFF744FE04F5A06050
:102D08005FFA88F1FFF73EFE04F580752846012139
:102D1800FFF738FE2846FFF717FE0028FAD107F01C
:102D28000107B740144A13881F4317800123B34093
:102D380012490A8822EA03030B800023104A22F86A
:102D48001630104A935504F54070FFF7FDFD002832
:102D5800F9D0F0B20AE0FF2008E0FB2006E0FA20F4
:102D680004E0FA2002E0FA2000E0FA2040B2BDE8D0
:102D7800F08100BF4000002014090020160900203F
:102D880020090020180900202DE9F84FBDF828B0C7
:102D980008287BD81D4614468A46064681464FEACF
:102DA800401808F108084046FFF7CEFD00F00F0074
:102DB800022801D004286DD1002C6FD02B68002B7D
:102DC80070D0BBF1000F71D008F540773846FFF797
:102DD800BBFD422801D022286CD108F54060294665
:102DE8000422FFF715FE08F580504FEA1B21FFF774
:102DF800C9FD08F588505FFA8BF1FFF7C3FD08F5A8
:102E0800F850FFF7A1FD800285B2AC4200D82546F4
:102E18003046FFF729FE04463846FFF795FD00289F
:102E28004CD02A4B1B8843FA09F313F0010F01D049
:102E3800AC4247D3AC42EBD3304651462A46FFF763
:102E480063FE08F5807420462021FFF79BFD20468D
:102E5800FFF77AFD0028FAD108F500742046FFF73D
:102E680073FD10F0100F06D020461021FFF78AFDE1
:102E78002846BDE8F88F10F0080FEDD0204608214D
:102E8800FFF780FD6FF00C00BDE8F88F4FF0FF30C2
:102E9800BDE8F88F6FF00400BDE8F88F6FF00D0003
:102EA800BDE8F88F6FF00B00BDE8F88F6FF00A00EF
:102EB800BDE8F88F6FF00600BDE8F88F6FF00300EB
:102EC800BDE8F88F0020BDE8F88F00BF1409002086
:102ED800082800F2DD802DE9F04F83B09B4690462C
:102EE8008A4606460746450108352846FFF72CFD61
:102EF800814600F00F03022B02D0042B40F0CB8058
:102F0800B8F1000F00F0CA80694B33F81630B3B936
:102F18003046FFF7D1FD044605F54070FFF714FD74
:102F2800002800F0BE80634B1B883B4113F0010F63
:102F380002D0002C00F0B880002CE9D000E000247A
:102F480000225D4B9A5509F00709B9F1020F03D029
:102F5800B9F1040F44D07AE0554B33F816309BBBD7
:102F6800304669460822FFF7FDFD05F580742046C6
:102F78004021FFF707FD2046FFF7E6FC0028FAD1BD
:102F88009DF800308BF800309DF801308BF8013047
:102F98009DF802308BF802309DF803308BF803302F
:102FA8009DF804209DF8053003EB02230C9A13804A
:102FB8009DF806209DF8073003EB02233C4A22F8CF
:102FC800163080223C4B9A55394B33F8164044450D
:102FD80000D94446304651462246FFF7C3FD3DE03E
:102FE800334B33F8163033BB304669460222FFF7BD
:102FF800B9FD05F5807420464021FFF7C3FC204643
:10300800FFF7A2FC0028FAD19DF800209DF80130B6
:1030180003EB02239BB2264A22F8163040F2EA520A
:10302800934205D93046FFF7E9FD6FF47A703CE02A
:103038008022214B9A551E4B33F81640444500D93F
:103048004446304651462246FFF78CFD06E030469E
:103058002146FFF7B5FD164B23F8164005F5807598
:1030680028464021FFF78EFC2846FFF76DFC002814
:10307800FAD10F4A32F816301B1B9BB222F81630D1
:1030880023B10D4A935D43F00103935520460CE0AC
:103098004FF0FF3070476FF0040006E06FF00D004E
:1030A80003E06FF0030000E0002003B0BDE8F08FFC
:1030B800200900201409002018090020082800F21F
:1030C8008D8070B5154604460C2900F28A80DFE829
:1030D80001F0071019222D368847585B5F67790081
:1030E80040010830FFF730FC20F00F002870012065
:1030F8007CE0400100F5B0500830FFF725FC28704F
:10310800012073E0400100F5A8500830FFF71CFCCF
:10311800287001206AE04601083606F59050FFF74E
:1031280013FC06F59850FFF70FFC2870600100F6B5
:10313800084029460422FFF745FC012056E04001DB
:1031480000F1080404F58050FFF7FEFB064604F57D
:103158008850FFF7F9FB00EB06202880012045E0A6
:10316800400100F108042046FFF7EEFB00F00F00D5
:10317800012838D104F53C50FFF7E6FB28800120F0
:1031880034E0FFF771FC28802046FFF795FC288083
:10319800600100F54270FFF7D7FB2870012025E099
:1031A80040010830FFF7D0FB012805D12046FFF782
:1031B80083FC2880012019E00D4B33F814302B8054
:1031C800012013E040010830FFF7BEFB00F00F00BC
:1031D80001280AD1074B1B5D2B7007E0FF2040B286
:1031E8007047FE2002E0FB2000E0FB2040B270BDEB
:1031F8002009002018090020704700BF704700BF51
:10320800704700BF704700BF007870470170704773
:1032180000207047704700BF00B129B9044B054A28
:103228001A61054A5A617047014B18615961704724
:1032380044000020093200080D320008094B1B88A1
:1032480003F400739BB2002BF8D000B129B9054BE9
:10325800054A9A61054ADA617047024B9861D9615B
:10326800704700BF44000020193200081D320008D2
:1032780000B587B04FF4106001A90622FFF7A2FB42
:103288004FF4807005A90422FFF79CFB4FF4A0605F
:1032980004A90422FFF796FB4FF4706003A90422E7
:1032A800FFF790FB00208021FFF76CFB0020FFF761
:1032B8004BFB4FF4106001A90622FFF7A9FB4FF45E
:1032C800807005A90422FFF7A3FB4FF4A06004A9AE
:1032D8000422FFF79DFB4FF4706003A90422FFF757
:1032E80097FB07B05DF804FB70B506460D46FFF77F
:1032F800BFFF3EB91DE059B2715C0A44D2B2013336
:10330800DBB201E00022134659B20729F3DD52B2BD
:10331800102A31DC002409E063B2580100F5F850A6
:103328000830F15CFFF72EFB0134E4B263B2072BDF
:10333800F2DD45B9002022E059B2695C0A44D2B2F4
:103348000133DBB201E00022134659B20729F3DD4D
:1033580052B2102A12DC002409E063B2580100F5C9
:10336800F0500830E95CFFF70DFB0134E4B263B2BA
:10337800072BF2DD002002E0FF2000E0FF2040B232
:1033880070BD00BF10B50146040A4FF4A85001F003
:10339800F001FFF7F7FA4FF4B8502146FFF7F2FAB9
:1033A80010BD00BF10B54FF4A850FFF7CDFA00F0DC
:1033B800F0044FF4B850FFF7C7FA000200F47F405A
:1033C800204480B210BD00BF10B50146040A4FF476
:1033D800B050C9B2FFF7D6FA4FF4C0502146FFF7F4
:1033E800D1FA10BD10B54FF4B050FFF7ADFA04464E
:1033F8004FF4C050FFF7A8FA04EB002080B210BDCC
:1034080008B54FF43850FFF79FFA10F0010F01D0BC
:10341800012008BD002008BD08B54FF43850FFF75B
:1034280093FA10F0300F01D0012008BD002008BD2C
:1034380008B54FF43850FFF787FA00F07F014FF4D2
:103448003850FFF79FFA4FF43850FFF77DFA60F0D5
:103458007F014FF43850C9B2FFF794FA08BD00BF96
:1034680008B50378012B01D1402100E00021437801
:10347800012B02D141F0380110E0C378012B08D1AB
:103488008378012B02D141F0180107E041F00801CF
:1034980004E08378012B01D141F010014FF438503A
:1034A800FFF770FAFFF7C4FF08BD00BF10B5044668
:1034B8004FF43850FFF748FAC0F38013237000F038
:1034C8003800202801D0382802D10123637001E098
:1034D80000236370182803D0202801D0102802D1B7
:1034E8000123A37001E00023A370182803D020282B
:1034F80001D0082802D10123E37010BD0023E37036
:1035080010BD00BF10B504464FF43850FFF71CFA41
:1035180010F0400F1ED000F0C700012C02D140F07F
:10352800300101E040F038014FF43850FFF72AFA33
:10353800FFF77EFF4FF43850FFF706FA012C04D14D
:1035480010F0300F08D1FF2009E010F0380F05D136
:10355800FF2004E0FF2002E0002000E0002040B24D
:1035680010BD00BF30B583B00C4600230093019313
:103578000F2809D8DFE800F00A0E1C1721262B387F
:103588004654585D7662666EFF2070E0FFF770FE65
:1035980000206CE011B10091083401940098019961
:1035A800FFF7A2FE63E00888FFF7ECFE00205EE06C
:1035B800FFF7F8FE2080002059E00888FFF704FF95
:1035C800002054E0FFF70EFF208000204FE009881C
:1035D8004FF49850090AFFF7D5F94FF4A050217815
:1035E800FFF7D0F9002042E04FF49850FFF7ACF90C
:1035F80005464FF4A050FFF7A7F900EB05202080FF
:10360800002034E01B4B9A780A70DA784A701A79ED
:103618008A705A79CA709B790B710020487126E02C
:10362800FFF706FF002022E00846FFF719FF0020F9
:103638001DE00846FFF73AFF002018E00878FFF77A
:1036480061FF14E0FFF7E8FEC0B2FF280CD020703D
:1036580000200CE0FFF7D4FEC0B2FF2806D020708F
:10366800002004E0002002E0FF2000E0FF2040B23C
:1036780003B030BD4400002010B504464FF410607C
:1036880021460622FFF7C4F94FF4807004F10E01B9
:103698000422FFF7BDF94FF4A06004F10A010422E7
:1036A800FFF7B6F94FF47060A11D0422FFF7B0F9D7
:1036B800A27C064B1A70E27C5A70227D9A70627D59
:1036C800DA70A27D024B1A7010BD00BF34090020C9
:1036D8003009002010B504464FF410602146062238
:1036E800FFF770F94FF4807004F10E010422FFF720
:1036F80069F94FF4A06004F10A010422FFF762F9A6
:103708004FF47060A11D0422FFF75CF9064B1A788C
:10371800A2745A78E2749A782275DB786375034B41
:103728001B78A37510BD00BF3409002030090020A4
:1037380030F03A030CD110B504460020FFF704F925
:1037480040EA04010020C9B2FFF71CF9002002E09A
:10375800FF2040B2704740B210BD00BF08B500203E
:10376800FFF7F2F808BD00BF10B504464FF4D85073
:103778002178FFF707F961884FF4C850090AFFF765
:1037880001F94FF4D050A178FFF7FCF810BD00BF45
:1037980038B505464FF4D850FFF7D6F828704FF4DF
:1037A800C850FFF7D1F804464FF4D050FFF7CCF8D3
:1037B80000EB0420688038BD10B50C46052821D8D8
:1037C800DFE800F003080D11161B0846FFF754FF49
:1037D800002018E00846FFF77DFF002013E0087876
:1037E800FFF7A6FF0FE0FFF7B9FF207000200AE0FF
:1037F8000846FFF7B9FF002005E00846FFF7C8FFB5
:10380800002000E0FF2040B210BD00BF0048704714
:1038180038090020F8B53F4C852323804FF0010C70
:1038280084F802C00223E370002525713A4F3E4612
:103838000FCEC4F80500C4F80910C4F80D20C4F868
:10384800113003CEC4F81500C4F819103378637723
:103858006523A377E57784F82050C02184F82710E2
:10386800A82284F828200B2384F82930642084F8BF
:103878002A0084F82B1084F82C2084F82D3084F842
:103888002EC0FF2384F82F3084F8303084F831308C
:1038980084F8325084F833506FF03D0184F83410C6
:1038A80084F835C084F83650082284F8372084F824
:1038B800385084F839C084F83A5084F83B5084F87A
:1038C8003C1084F83DC084F83E5084F83F2084F8CA
:1038D800405084F841C084F8425007F11C0303CBE0
:1038E800C4F84300C4F847101B88A4F84B3084F888
:1038F8004D5084F84E5084F84F2084F8502084F8B6
:10390800512084F8522004F153002946322200F055
:103918009AFEF8BD38090020B459000810B50E4CBD
:10392800012021468522FEF7F3FB2388013B9BB249
:103938004FF6FD72934206D9FFF76CFF012021462E
:103948008522FEF7F5FB044B65229A770022DA7789
:1039580083F8202010BD00BF3809002008B50120D9
:1039680002498522FEF7E4FB08BD00BF38090020A4
:1039780008B500F05DFE08BD08B500F059FE08BDA9
:1039880030B58BB0012004A9FFF716FF9DF8101081
:103998009DF811209DF812309DF813509DF81440A1
:1039A8009DF815000095019402901A4800F054FE05
:1039B8009DF816109DF817209DF818309DF81900ED
:1039C8000090154800F048FE9DF81E109DF81F2035
:1039D8009DF820309DF821000090104800F03CFE32
:1039E8009DF81A109DF81B209DF81C309DF81D00AD
:1039F80000900B4800F030FE9DF822109DF823201F
:103A08009DF824309DF825000090064800F024FE1B
:103A18000BB030BDDC590008045A0008185A0008D9
:103A28002C5A0008405A000810B586B0FFF7EEFE81
:103A38000446684604F121010622FFF799FF0DF1BB
:103A4800060004F127010422FFF792FF0DF10E0092
:103A580004F12B010422FFF78BFF0DF10A0004F19A
:103A68002F010422FFF784FF0DF1120004F14F012A
:103A78000422FFF77DFF94F84D301BB102238DF827
:103A8800163002E001238DF8163000206946FFF752
:103A980093FEFFF775FF06B010BD00BF3038C3B204
:103AA80058B2092801DDD81F40B20F2801DD20389F
:103AB80040B2704738B50D4640B2FFF7EFFF00013E
:103AC80000F0F00468B2FFF7E9FF2044C0B238BD47
:103AD80030B585B0244B93F821305BB9224B93F86D
:103AE8002230082B08D1204B93F82330DC2B39D017
:103AF800002402E0002400E000241C48FEF79AFCA1
:103B080068460121FEF78AFC9DF80030532B0DD141
:103B18001748FEF78FFC002405E00DEB0400012197
:103B2800FEF77CFC01340B2CF7D90124002CE4D0DF
:103B380000252C460DE004AB5A1912F8100C12F8A7
:103B48000F1CFFF7B7FF084B234483F8210001340B
:103B58000235062CEFD9FFF75DFEFFF7FFFE05489B
:103B6800FEF768FC05B030BD38090020545A00083B
:103B7800645A0008685A0008BFF34F8F0449CA689E
:103B880002F4E062034B1343CB60BFF34F8FFEE7B1
:103B980000ED00E00400FA0510B4002304E0CC5C5A
:103BA8004440CC5401339BB29342F8D35DF8044BA4
:103BB800704700BF10B4002304E0CC5C4440CC54F0
:103BC80001339BB29342F8D35DF8044B704700BFB2
:103BD800F0B5CFB005460F461446FFF717FE064668
:103BE80028460B210DF59B72FFF768FAB4F80520FB
:103BF800BDF836319A4256D10DF10A030093284692
:103C080027A9062203ABFFF763F9607810F0800F4D
:103C180006D000F07F0027A9BDF83621FFF7CAFFBC
:103C280027A806F12101062200F0F2FC00283AD16B
:103C38006FF0740363710023A37155232371334616
:103C480053F8210F04909B88ADF814300DF116003D
:103C58003146852200F0ECFC607810F0800F05D02A
:103C680000F07F0004A98B22FFF796FF20682990B7
:103C7800A288A379ADF8A8208DF8AA300DF1AB0081
:103C880004A98B2200F0D4FCA37823B93846FF217D
:103C9800042200F0D8FCBB880093284629A9922268
:103CA8003B46FFF771F84FB0F0BD00BF2DE9F0417A
:103CB800A4B005460F461446FFF7A8FD0646284659
:103CC8000B210DF18E02FFF7F9F9B4F80520BDF8C4
:103CD8008E309A4240F0FC80E378A13B042B00F23E
:103CE800F780DFE803F0AF03207B9B000DF13E0374
:103CF8000093284602A9072210ABFFF7E9F860787D
:103D080010F0800F06D000F07F0002A9BDF88E20C9
:103D1800FFF750FF02A8B11C032200F079FC00282D
:103D280000F09080D4E00DF13E030093284602A9EC
:103D38000C2210ABFFF7CCF8607810F0800F06D09B
:103D480000F07F0002A9BDF88E20FFF733FF9DF831
:103D5800082096F821309A4200F2BA809DF809109E
:103D680096F82220914200F2B3809DF80A0096F856
:103D78002310884200F2AC809DF80BE096F82400EE
:103D8800864500F2A5809DF80CC096F825E0F4451C
:103D980000F29E809DF80D8096F826C0E04500F25E
:103DA80097809DF80E80434500F292809DF80F3071
:103DB8009A4200F28D809DF81030994200F2888076
:103DC8009DF81130984200F283809DF812309E458C
:103DD8007ED89DF813309C4534D979E00DF13E0327
:103DE8000093284602A9212210ABFFF771F86078EA
:103DF80010F0800F06D000F07F0002A9BDF88E20D9
:103E0800FFF7D8FE06F1050802A800F04FFC0246AD
:103E180002A8414600F0FCFBA0B159E00DF13E03B9
:103E28000093284602A9342210ABFFF751F86078B6
:103E380010F0800F06D000F07F0002A9BDF88E2098
:103E4800FFF7B8FE0C2363710023A3715523237178
:103E5800334633F8022F9B78ADF844208DF846306E
:103E6800334633F81E2F9B78ADF847208DF849303C
:103E780056F8213FCDF84A30B388ADF84E30607817
:103E880010F0800F05D000F07F0011A90C22FFF779
:103E980083FE20681490A288A379ADF854208DF889
:103EA800563011AB07CBCDF85700CDF85B10CDF8E5
:103EB8005F20A37823B93846FF21042200F0C3FB12
:103EC800BB880093284614A913223B46FEF75CFFE3
:103ED80024B0BDE8F08100BFF0B591B005460F46AB
:103EE8001446FFF793FC064628460B210DF13E02C7
:103EF800FFF7E4F8B4F80520BDF83E309A4259D1EE
:103F08000DF10A030093284606A9172203ABFEF712
:103F1800DFFF607810F0800F06D000F07F0006A960
:103F2800BDF83E20FFF746FE06A806F1210106224D
:103F380000F06EFB00283DD10DF11F0006F1430192
:103F480000F0A2FBB0BB062363710023A3715523C5
:103F5800237156F8210F0490B388ADF814306078B7
:103F680010F0800F05D000F07F0004A90622FFF7AB
:103F780013FE20680C90A288A379ADF834208DF840
:103F8800363010AB53F8300DCDF837009B88ADF8BC
:103F98003B30A37823B93846FF21042200F053FBB5
:103FA800BB88009328460CA90D223B46FEF7ECFE81
:103FB800FFF7E2FD11B0F0BD2DE9F041F4B0054680
:103FC8000F461446FFF722FC064628460B210DF53E
:103FD800E772FFF773F8B4F80520BDF8CE319A42BE
:103FE80070D10DF10E030093284628A99C2204AB3A
:103FF800FEF76EFF607810F0800F06D000F07F00AB
:1040080028A9BDF8CE21FFF7D5FD28A806F1210182
:10401800062200F0FDFA002854D10DF1A70006F1A0
:10402800430100F031FB00284CD130460DF1B701B7
:104038008522FFF7A1FC6523B3774FF0000886F8C7
:104048001F8086F82080FFF789FC6FF07403637186
:1040580084F8068055232371334653F8210F0590C1
:104068009B88ADF818300DF11A003146852200F012
:10407800DFFA607810F0800F05D000F07F0005A906
:104088008B22FFF789FD20684F90A288A379ADF8AD
:1040980040218DF842310DF2431005A98B2200F022
:1040A800C7FAA37823B93846FF21042200F0CBFAD7
:1040B800BB88009328464FA992223B46FEF764FE30
:1040C800FFF75AFD74B0BDE8F08100BF2DE9F04359
:1040D800B7B005460F461446FFF798FB8046FFF732
:1040E80095FB064628460B210DF1C202FEF7E6FFB6
:1040F800B4F80520BDF8C2309A4240F0BB800DF1FB
:104108000A03009328461CA94F2203ABFEF7E0FEE2
:10411800E378D12B40F0AE80607810F0800F06D0A5
:1041280000F07F001CA9BDF8C220FFF743FD1CA8C2
:1041380006F12101062200F06BFA002840F09A806F
:104148000DF1770006F1430100F09EFA002840F0D7
:1041580091800DF1C40EC14659F8210FD9F8041009
:10416800D9F80820D9F80C30AEE80F00B9F81030AB
:10417800AEF80030FFF7D2FB0DF1C40EBEE80F0019
:10418800C8F82100C9F80410C9F80820C9F80C308B
:10419800BEF80030A9F81030FFF7E0FB2068049063
:1041A800A288A379ADF814208DF816303B68CDF8B5
:1041B8001730BB88ADF81B30DDF88730CDF81D30DF
:1041C800BDF88B30ADF821300DF18D030DF12302D0
:1041D8000DF1BD01D3F80080D3F804C0D3F808E08E
:1041E800D868C2F80080C2F804C0C2F808E0D060FD
:1041F800103310328B42EDD11B881380002004A9A4
:104208004522FDF795FF062363710023A37155230B
:10421800237156F8210F1690B388ADF85C3060789A
:1042280010F0800F05D000F07F0016A90622FFF7D6
:10423800B3FC20681890A288A379ADF864208DF8A3
:10424800663036AB53F8800DCDF867009B88ADF823
:104258006B30A37823B93846FF21042200F0F3F924
:10426800BB880093284618A90D223B46FEF78CFD13
:10427800FFF782FC37B0BDE8F08300BFF0B591B01E
:1042880005460F461446FFF7C1FA064628460B2195
:104298000DF13E02FEF712FFB4F80520BDF83E30DE
:1042A8009A425ED10DF10A030093284606A9172207
:1042B80003ABFEF70DFE607810F0800F06D000F01B
:1042C8007F0006A9BDF83E20FFF774FC06A806F19A
:1042D8002101062200F09CF9002842D10DF11F00AF
:1042E80006F1430100F0D0F900283AD1FFF792FA1D
:1042F800FFF734FB062363710023A3715523237151
:1043080056F8210F0490B388ADF81430607810F097
:10431800800F05D000F07F0004A90622FFF73CFCBF
:1043280020680C90A288A379ADF834208DF8363037
:1043380010AB53F8300DCDF837009B88ADF83B3003
:10434800A37823B93846FF21042200F07CF9BB8802
:10435800009328460CA90D223B46FEF715FDFFF7F2
:104368000BFC11B0F0BD00BF30B59DB00546FFF79E
:104378004DFA04462846FEF741FC2846022141F63C
:1043880096120023FEF770FC002004A94522FDF7D1
:10439800BFFE06238DF8153000238DF81630D22382
:1043A8008DF8133055238DF81430234653F8210F18
:1043B80016909B88ADF85C309DF8110010F0800FC6
:1043C80005D000F07F0016A90622FFF7E5FB04AB35
:1043D80093E803001890ADF86410090C8DF8661086
:1043E8001CAB53F8180DCDF867009B88ADF86B30FF
:1043F8009DF812302BB90DF11700FF21042200F0AF
:1044080022F9DDF817000390BDF81B30ADF80A302B
:10441800BDF80A300093284618A90D2203ABFEF711
:10442800B3FC1DB030BD00BF10B588B004460A21EA
:104438000DF11F02FEF742FE9DF81F30002B51D0F0
:10444800222B56D12046092107AAFEF737FEBDF8D0
:104458001C30062B4DD906AB0093204603A9072232
:1044680005ABFEF735FD9DF80C30A52B41D19DF825
:104478001030AA2B3DD19DF80F3003F0F003C02B6C
:1044880018D004D8A02B09D0B02B0DD031E0E02BE8
:104498001CD0F02B20D0D02B2BD111E0204605A921
:1044A80003AAFFF703FC24E0204605A903AAFFF7A7
:1044B8008FFB1EE0204605A903AAFFF77DFD18E043
:1044C800204605A903AAFFF701FE12E0204605A928
:1044D80003AAFFF701FD0CE0204605A903AAFFF790
:1044E800CDFE06E02046022141F696120123FEF792
:1044F800BBFB08B010BD00BF72B603480068854614
:104508000248006887467047006000080460000899
:1045180030B593B0002069464522FDF7F9FD9DF8B6
:104528000030A52B01D0002300E0012343B39DF800
:104538000D009DF80E301B0443EA00639DF80F0040
:1045480043EA00239DF8100018430DF11301FEF70C
:10455800D9F9FEF781F904460028FAD002280DD1CE
:104568000020FFF701FF4525684600212A4600F094
:104578006AF8002069462A46FDF7DAFD204600E081
:10458800002013B030BD00BF10B5FDF7E1FB0020DF
:10459800FDF772FB0120FDF76FFB0020FDF78EFB96
:1045A8000120FDF79BFBFDF7B7FBFDF7B9FEFDF713
:1045B8000DFBFFF7B3F9FFF78BFAFDF70FFDFDF7DA
:1045C80065FDFDF703FEFFF72FFA01200B49FEF703
:1045D80031F9FFF79DFF0446FDF7B2FB48B9012CFE
:1045E80007D0074B5B681B68B3F1FF3F01D0FFF7AB
:1045F80083FF0020FFF718FFFBE700BF080A002031
:10460800CC090020014B1868704700BFC400002087
:1046180010B50A44441E914208D014F8013F0878A6
:10462800834201D0181A10BD0131F4E7002010BDF3
:1046380010B5431E0A44914204D011F8014B03F807
:10464800014FF8E710BD03460244934202D003F835
:10465800011BFAE7704700000FB40A4B13B51C683A
:1046680024B1A36913B9204600F08EF805AB2046A3
:10467800A168049A019300F01DFB02B0BDE8104048
:1046880004B07047C400002010F8012B11F8013B5A
:10469800012A28BF9A42F7D0D01A7047034611F86A
:1046A800012B03F8012B002AF9D17047034613F8B0
:1046B800012B002AFBD1181A0138704710B59AB09F
:1046C800009104916FF00041029105914FF6FF713E
:1046D8004FF40274ADF80E106946ADF80C4000F0C6
:1046E800CFF9009B00221A701AB010BD30B50546EC
:1046F8000C461346034A294610682246BDE8304056
:10470800FFF7DCBFC4000020014900F0A7B800BFD4
:104718006D55000810B504460023036043608360AC
:1047280081814366C28103614361836119465C30BC
:104738000822FFF788FF054B24626362044BA362DB
:10474800044BE362044B236310BD00BF19520008F9
:104758003B520008735200089752000870B568234E
:104768004D1E5D430E4605F1740100F0D9F804466C
:1047780040B1002180E842000C30A06005F16802D9
:10478800FFF761FF204670BD836910B5044633BB4F
:104798008364C3640365124B124A1B6882629842A1
:1047A80004BF0123836100F01FF86060204600F019
:1047B8001BF8A060204600F017F80421E0600022F2
:1047C8006068FFF7A7FFA06809210122FFF7A2FF91
:1047D800E06812210222FFF79DFF0123A36110BDAB
:1047E800745A000811470008F8B51B4B07461E68A5
:1047F800B36913B93046FFF7C7FF4836B468736822
:10480800013B04D4B4F90C5075B16834F8E7336847
:104818002BB938460421FFF7A1FF306008B136688C
:10482800ECE70C233B60F8BD4FF6FF73E3810123EF
:10483800A38165662560A560656025616561A561E0
:1048480004F15C0029460822FFF7FDFE6563A563B5
:10485800A564E5642046F8BD745A00082DE9F843BC
:104868008046894600F14804002694B1A568676827
:10487800013F0CD4AB89012B07D9B5F90E300133B0
:1048880003D040462946C84706436835F0E7246800
:10489800EBE73046BDE8F88330B500293CD051F845
:1048A800042C0B1F1D49002AB8BF9B180A680C4628
:1048B80012B95A600B6030BD93420DD2196858186E
:1048C800904201BF5A5852181A60426823605A60D1
:1048D80030BD994203D80A4651680029F9D11468B5
:1048E80015199D420AD11B682344D01888421360C9
:1048F80012D10868034413604B680CE002D90C23FA
:10490800036030BD1C681819884201BF08684968EF
:10491800001918605960536030BD00BFC4090020F9
:1049280070B5CC1C24F0030408340C2C38BF0C24BC
:10493800002C064603DA0C233360002070BD8C423D
:10494800F9D3204A136810461946A1B10A68121B08
:104958000ED40B2A03D90A608B188C501FE08B42A7
:104968000BBF5A684A6802605A6018BF0B4616E0C7
:104978000B464968E9E7144D2B681BB9304600F02F
:1049880037FC28603046214600F032FC421C0346C2
:10499800D1D0C51C25F0030585420AD11C6003F15E
:1049A8000B001A1D20F00700821A0AD051429950B4
:1049B80070BD3046E91A00F01BFC0130BBD02B4615
:1049C800ECE770BDC4090020C00900202DE9F047BC
:1049D8008E688246B3420C469046994640D38A89EF
:1049E80012F4906F3AD02568096902236F1A656935
:1049F80005EB450595FBF3F57B1C4B449D4238BF01
:104A08001D4653050FD52946FFF78AFF064698B17C
:104A180021693A46FFF70CFEA38923F4906343F01B
:104A28008003A38113E02A4600F04DFE064670B9C4
:104A380050462169FFF730FF0C23CAF80030A389DC
:104A48004FF0FF3043F04003A381BDE8F0872661B3
:104A58003E4426604E466561ED1BA560B14500D217
:104A68004E4632462068414600F012FEA3680020F8
:104A78009B1BA36023681E442660BDE8F0870000E6
:104A88002DE9F0439DB003938B8906461C060D461D
:104A980090460CD50B6953B94021FFF741FF2860B8
:104AA800286110B90C233360CCE040236B610023EC
:104AB800099320238DF8293030238DF82A30434676
:104AC8001C4613F8012B1AB9B4EB08090FD002E001
:104AD800252AF5D1F8E73046294642464B46FFF7E6
:104AE80075FF013000F0A980099B4B440993237896
:104AF800002B00F0A28000234FF0FF3204930793AD
:104B0800059206938DF853301A9304F10108444630
:104B1800DFF8489121784846052200F0ABFD08F1FE
:104B28000108049B30B1C9EB000001228240134305
:104B38000493ECE7D80644BF20228DF853201907C8
:104B480044BF2B228DF8532022782A2A02D00799B5
:104B580023460EE0039A0134111D12680391002ABE
:104B6800BBBF524243F0020307920792B8BF0493B7
:104B78000AE01C4622780133303A092A03D80A2071
:104B880000FB0121F5E7079123782E2B1AD16378D2
:104B98002A2B0AD1039B02341A1D1B680392002B8F
:104BA800B8BF4FF0FF3305930CE0611C00220C46A0
:104BB80023780131303B092B03D80A2000FB02324D
:104BC800F5E70592DFF8988021784046032200F047
:104BD80051FD38B1049AC8EB0000402383401343C9
:104BE8000493013421781A48062204F101088DF84B
:104BF800281000F03FFD88B1164B33B9039B0733EB
:104C080023F007030833039313E003AB0093304604
:104C180004A92A46104BAFF3008007E003AB0093CA
:104C2800304604A92A460C4B00F0C2F9421C07463C
:104C380003D0099B3B44099341E7AB895B0601D448
:104C4800099801E04FF0FF301DB0BDE8F08300BFC8
:104C5800E25A000800000000D5490008D85A0008A8
:104C6800DE5A0008936810B5013B002B936009DAFF
:104C78009469A34202DBCBB20A2B03D1BDE81040F2
:104C880000F00ABB1368581C10601970C8B210BD38
:104C9800F8B506460F461446D518AC4208D030463B
:104CA80014F8011B3A46FFF7DDFF431CF5D100E07D
:104CB8000020F8BD2DE9F0439DB00D4690460393C2
:104CC800064618B183690BB9FFF75EFD754B9D4227
:104CD80001D1756808E0744B9D4201D1B56803E0C5
:104CE800724B9D4208BFF568AB891C070AD52B6932
:104CF80043B10023099320238DF8293030238DF800
:104D08002A3041E03046294600F02CFB0028F0D03C
:104D18004FF0FF30C2E0039A0134111D126803916D
:104D2800002ABBBF524243F0020307920792B8BF62
:104D3800049323782E2B7BD0DFF88081217840469E
:104D4800032200F097FC38B1049AC8EB0000402316
:104D5800834013430493013421785548062204F113
:104D680001088DF8281000F085FC002800F08580E7
:104D7800504B002B78D1039B073323F007030833EC
:104D88000393099B3B44099343461C4613F8012BA4
:104D98001AB9B4EB08090ED002E0252AF5D1F8E7D4
:104DA8003046294642464B46FFF772FF013070D025
:104DB800099B4B4409932378002B6AD000234FF0BA
:104DC800FF3204930793059206938DF853301A9394
:104DD80004F101084446DFF8E890217848460522A6
:104DE80000F048FC08F10108049B30B1C9EB000051
:104DF8000122824013430493ECE7D80644BF2022E3
:104E08008DF85320190744BF2B228DF853202278A0
:104E18002A2A80D0234607991C4622780133303A43
:104E2800092A03D80A2000FB0121F5E7079180E74A
:104E380063782A2B0AD1039B02341A1D1B6803923C
:104E4800002BB8BF4FF0FF33059375E7611C0022B4
:104E58000C4623780131303B092B03D80A2000FB8C
:104E68000232F5E7059267E703AB0093304604A9E1
:104E78002A46114BAFF3008007E003AB009330469E
:104E880004A92A460C4B00F093F8421C07467FF40D
:104E980078AFAB895B063FF53BAF09981DB0BDE81D
:104EA800F08300BF785A0008985A0008B85A0008DA
:104EB800E25A000800000000994C0008DE5A000879
:104EC800D85A00082DE9F84391461F468A680B69AD
:104ED80006469342B8BF1346C9F8003091F84320FC
:104EE8000C46DDF8208012B10133C9F80030236880
:104EF800990642BFD9F800300233C9F80030256856
:104F080015F006051CD094F843302268003318BF0A
:104F1800012392061FD5E118302081F843005A1C5E
:104F280094F845102244023382F8431013E03046C7
:104F3800394604F119020123C047013007D0013571
:104F4800E368D9F800209B1A9D42F0DBDBE74FF0BD
:104F5800FF30BDE8F8833046394604F14302C047C4
:104F68000130F4D02268D9F80050E36802F0060254
:104F7800042A08BF5D1B2269A3680CBF25EAE575F2
:104F880000259342C4BF9B1AED184FF00009A945AC
:104F98000ADA3046394604F11A020123C0470130C3
:104FA800D5D009F10109F2E70020BDE8F883000037
:104FB8002DE9FF410C461746227E98466E2A064682
:104FC8000A9B01F1430100F0B08012D8632A23D074
:104FD8000AD8002A00F0BD80582A40F0CC8084F816
:104FE8004520DFF804E257E0642A1ED0692A1CD065
:104FF800C1E0732A00F0B18009D86F2A2ED0702A38
:1050080040F0B980226842F0200222603FE0752A11
:1050180024D0782A3BD0AEE01A6804F14205111D6D
:105028001960136884F84230A9E020681A6810F003
:10503800800F02D0101D186008E010F0400F02F138
:105048000400186002D0B2F9003000E01368002BA9
:105058003EDA2D225B4284F8432039E020681A6842
:1050680010F0800F02D0101D186007E010F0400FFC
:1050780002F10400186001D0138800E01368227E52
:10508800DFF864E16F2A0CBF08220A221CE07822AC
:10509800DFF858E184F845202268186812F0800F7C
:1050A80000F104051D6003D1550601D5038800E011
:1050B8000368D00744BF42F0200222601BB922686F
:1050C80022F0200222601022002084F8430002E02F
:1050D800DFF814E10A226568002DA8BF2068A560E2
:1050E800A4BF20F00400206003B965B10D46B3FBEE
:1050F800F2F002FB10331EF8033005F8013D0346B9
:105108000028F4D100E00D46082A0BD12368DA07FD
:1051180008D5236962689A42DEBF302305F8013C4E
:1051280005F1FF35491B21612EE025681A6815F045
:10513800800F606903D0151D1D60136808E015F025
:10514800400F02F104051D60136801D0188000E0CB
:105158001860002323610D4616E01A68111D1960B6
:10516800156800212846626800F084FA08B1401BDF
:105178006060636804E004F1420584F8422001237A
:105188002361002384F84330CDF80080304621465F
:1051980003AA3B46FFF796FE013002D14FF0FF30DD
:1051A8001FE0304639462A462369C0470130F5D00A
:1051B80023689B0705D4E068039B9842B8BF18464C
:1051C8000FE00025E368039A9B1A9D42F3DA304604
:1051D800394604F119020123C0470130DED00135F8
:1051E800F0E704B0BDE8F081E95A0008FA5A00086F
:1051F80038B5064C0023054608462360FCF746FBF5
:10520800431C02D1236803B12B6038BDC8090020B4
:1052180010B50C46B1F90E1000F07CFA0028ABBFAF
:10522800636DA3891B1823F48053ACBF6365A38106
:1052380010BD2DE9F0411D468B890746DB050C465C
:10524800164605D5B1F90E100022022300F0B4F974
:10525800A389384623F48053A381B4F90E1032464B
:105268002B46BDE8F04100F06BB810B50C46B1F91B
:105278000E1000F0A1F9431CA38915BF606523F443
:10528800805343F48053A38118BFA38110BDB1F9A3
:105298000E1000F0D3B8000070B50D46144606464F
:1052A80018B183690BB9FFF76FFA224B9C4201D101
:1052B800746808E0204B9C4201D1B46803E01F4B9E
:1052C8009C4208BFF468A369A360A3891A0709D59B
:1052D80023693BB123682069EDB2181A63699842C3
:1052E8000FDB08E03046214600F03CF80028F1D0FA
:1052F8004FF0FF3070BD3046214600F033F90028EA
:10530800F6D1A3680130013BA36023685A1C2260D0
:105318001D706369984204D0A389DB0707D50A2D5D
:1053280005D13046214600F01DF90028E0D1284675
:1053380070BD00BF785A0008985A0008B85A00088B
:1053480038B5074C054600202060084611461A4625
:10535800FCF7EEFA431C02D1236803B12B6038BD79
:10536800C8090020314B70B51D6806460C4625B1AA
:10537800AB6913B92846FFF707FA2D4B9C4201D1B8
:105388006C6808E02B4B9C4201D1AC6803E02A4BC7
:105398009C4208BFEC68A3899AB211071DD4D506B0
:1053A80002D40922326038E0500712D5616B41B14E
:1053B80004F14403994202D03046FFF76DFA002306
:1053C8006363A38923F02403A38100236360236913
:1053D8002360A38943F00803A38123694BB9A389F8
:1053E80003F42073B3F5007F03D03046214600F064
:1053F800F5F8A38913F0010205D00022A2606269C2
:105408005242A26103E0990758BF6269A26022690B
:105418004AB903F0800080B230B143F04003A38161
:105428004FF0FF3070BD002070BD00BFC4000020E9
:10543800785A0008985A0008B85A000838B5064C37
:105448000023054608462360FCF74AFA431C02D1AC
:10545800236803B12B6038BDC80900208A892DE96B
:10546800F041054610070C4657D44B68002B02DC68
:105478000B6C002B18DDE66AB6B102F480520023EB
:1054880092B22F682B600AB1626D10E0216A28463B
:105498000123B047411C024609D12B683BB11D2BA3
:1054A80001D0162B46D12F600020BDE8F081A389DA
:1054B8005B0705D56368D21A636B0BB1236CD21AEC
:1054C800E66A00232846216AB047461CA38905D10D
:1054D8002A681AB11D2A01D0162A19D10022626041
:1054E8002269D904226004D5421C01D12B6803B972
:1054F8006065616B2F600029D6D004F1440399429E
:1055080002D02846FFF7C8F900206063BDE8F081A3
:1055180043F04003A381BDE8F0810F69002FC3D099
:1055280093070E680CBF4B690023C7EB06080F6092
:105538008B6012E0A3894FF0FF3043F04003A38152
:10554800BDE8F0812846216A3A464346A66AB04734
:105558000028EFDD0744C0EB0808B8F1000FF1DCC4
:10556800A2E7000038B50B6905460C46DBB118B157
:1055780083690BB9FFF708F90C4B9C4201D16C68A1
:1055880008E00B4B9C4201D1AC6803E0094B9C42FC
:1055980008BFEC68B4F90C302BB128462146BDE8A9
:1055A8003840FFF75BBF002038BD00BF785A0008BD
:1055B800985A0008B85A000838B5074C0546002024
:1055C8002060084611461A46FCF7A2F9431C02D18E
:1055D800236803B12B6038BDC8090020F0B58B895A
:1055E80091B09D0706460C4625D4B1F90E10002946
:1055F80008DAA389002513F0800F14BF40274FF461
:1056080080670DE001AA00F097F80028F1DB029D01
:105618004FF4806705F47045A5F500514D424D41A2
:1056280030463946FFF77CF960B9A3899A051DD43D
:1056380043F00203A38104F147032360236101239C
:10564800636113E00A4BB362A389206043F08003CF
:10565800A381206167614DB13046B4F90E1000F0A6
:105668007DF818B1A38943F00103A38111B0F0BDFF
:105678001147000810B5C9B202449042034605D04C
:105688001C7801308C42F8D1184610BD002010BD9E
:10569800814210B501EB020301D3421E0BE0984290
:1056A800FBD28118D21AD34204D013F8014D01F865
:1056B800014DF8E710BD994204D011F8014B02F8EA
:1056C800014FF8E710BDF8B5074615460E4621B953
:1056D8001146BDE8F840FFF723B91AB9FFF7DCF81F
:1056E8002846F8BD00F04AF8A8420ED238462946A6
:1056F800FFF716F9044650B131462A46FEF798FFDF
:1057080038463146FFF7C8F801E03046F8BD204674
:10571800F8BD000038B5074C054600202060084653
:1057280011461A46FCF7FCF8431C02D1236803B162
:105738002B6038BDC809002038B5074C0023054642
:10574800084611462360FCF7D3F8431C02D12368AE
:1057580003B12B6038BD00BFC809002038B5064C1E
:105768000023054608462360FCF7CAF8431C02D10B
:10577800236803B12B6038BDC809002051F8040C18
:105788000028BEBF091851F8043CC01804387047F7
:105798002E2E2F73797374656D2F7372632F737444
:1057A8006D333266312D7374647065726970682F59
:1057B8006D6973632E6300002E2E2F7379737465E1
:1057C8006D2F7372632F73746D333266312D73745A
:1057D800647065726970682F73746D333266313026
:1057E800785F666C6173682E630000002E2E2F733D
:1057F800797374656D2F7372632F73746D333266AA
:10580800312D7374647065726970682F73746D33A9
:1058180032663130785F6770696F2E630000000070
:105828002E2E2F73797374656D2F7372632F7374B3
:105838006D333266312D7374647065726970682FC8
:1058480073746D3332663130785F7263632E630030
:105858002E2E2F73797374656D2F7372632F737483
:105868006D333266312D7374647065726970682F98
:1058780073746D3332663130785F7370692E6300EC
:105888002E2E2F73797374656D2F7372632F737453
:105898006D333266312D7374647065726970682F68
:1058A80073746D3332663130785F74696D2E6300BE
:1058B8002E2E2F73797374656D2F7372632F737423
:1058C8006D333266312D7374647065726970682F38
:1058D80073746D3332663130785F75736172742E0C
:1058E80063000000464C4153485F45726173655040
:1058F800616765204572726F720D0A00464C41530C
:10590800485F50726F6772616D576F72642045729D
:10591800726F720D0A000000484947482044656EBE
:105928007369747920466C617368206D656D6F7258
:10593800790D0A004D656469756D2044656E73695B
:10594800747920466C617368206D656D6F72790D8E
:105958000A00000010000000100000000000000015
:105968000000000000010010000000000202020216
:1059780002020202020202020202020257495A43CA
:1059880048495020496E697469616C697A65642078
:105998006661696C2E0D0A006F63746574000000FF
:1059A80074696D656F7574003500000057495A3584
:1059B800353057454200000000000000000000009C
:1059C800000000000000000057495A6E657400008E
:1059D800000000004D41433A20253032583A253026
:1059E80032583A253032583A253032583A25303232
:1059F800583A253032580D0A0000000049503A2024
:105A080025642E25642E25642E25640D0A000000C9
:105A180047573A2025642E25642E25642E25640DCB
:105A28000A000000534E3A2025642E25642E256472
:105A38002E25640D0A000000444E533A2025642E9A
:105A480025642E25642E25640D0A0000496E7075A4
:105A580074204D4143203F20000000005200000008
:105A68000D0A4F4B0D0A000043000000640000209F
:105A7800000000000000000000000000000000001E
:105A8800000000000000000000000000000000000E
:105A980000000000000000000000000000000000FE
:105AA80000000000000000000000000000000000EE
:105AB80000000000000000000000000000000000DE
:105AC80000000000000000000000000000000000CE
